{
	"contracts/Election.sol": {
		"VotingSystem": {
			"abi": [
				{
					"inputs": [],
					"stateMutability": "nonpayable",
					"type": "constructor"
				},
				{
					"inputs": [
						{
							"internalType": "string",
							"name": "candidateName",
							"type": "string"
						}
					],
					"name": "addCandidate",
					"outputs": [],
					"stateMutability": "nonpayable",
					"type": "function"
				},
				{
					"inputs": [
						{
							"internalType": "uint256",
							"name": "",
							"type": "uint256"
						}
					],
					"name": "candidates",
					"outputs": [
						{
							"internalType": "uint256",
							"name": "id",
							"type": "uint256"
						},
						{
							"internalType": "string",
							"name": "name",
							"type": "string"
						},
						{
							"internalType": "uint256",
							"name": "voteCount",
							"type": "uint256"
						}
					],
					"stateMutability": "view",
					"type": "function"
				},
				{
					"inputs": [],
					"name": "candidatesCount",
					"outputs": [
						{
							"internalType": "uint256",
							"name": "",
							"type": "uint256"
						}
					],
					"stateMutability": "view",
					"type": "function"
				},
				{
					"inputs": [],
					"name": "electionCommission",
					"outputs": [
						{
							"internalType": "address",
							"name": "",
							"type": "address"
						}
					],
					"stateMutability": "view",
					"type": "function"
				},
				{
					"inputs": [
						{
							"internalType": "address",
							"name": "voterAddress",
							"type": "address"
						}
					],
					"name": "registerVoter",
					"outputs": [],
					"stateMutability": "nonpayable",
					"type": "function"
				},
				{
					"inputs": [
						{
							"internalType": "uint256",
							"name": "candidateId",
							"type": "uint256"
						}
					],
					"name": "vote",
					"outputs": [],
					"stateMutability": "nonpayable",
					"type": "function"
				},
				{
					"inputs": [
						{
							"internalType": "address",
							"name": "",
							"type": "address"
						}
					],
					"name": "voters",
					"outputs": [
						{
							"internalType": "bool",
							"name": "isRegistered",
							"type": "bool"
						},
						{
							"internalType": "bool",
							"name": "hasVoted",
							"type": "bool"
						},
						{
							"internalType": "uint256",
							"name": "votedCandidateId",
							"type": "uint256"
						}
					],
					"stateMutability": "view",
					"type": "function"
				},
				{
					"inputs": [],
					"name": "winnerName",
					"outputs": [
						{
							"internalType": "string",
							"name": "winnerCandidateName",
							"type": "string"
						}
					],
					"stateMutability": "view",
					"type": "function"
				},
				{
					"inputs": [],
					"name": "winningCandidate",
					"outputs": [
						{
							"internalType": "uint256",
							"name": "winningCandidateId",
							"type": "uint256"
						}
					],
					"stateMutability": "view",
					"type": "function"
				}
			],
			"devdoc": {
				"kind": "dev",
				"methods": {},
				"version": 1
			},
			"evm": {
				"assembly": "    /* \"contracts/Election.sol\":60:3211  contract VotingSystem {... */\n  mstore(0x40, 0x80)\n    /* \"contracts/Election.sol\":1033:1154  constructor() {... */\n  callvalue\n  dup1\n  iszero\n  tag_1\n  jumpi\n  0x00\n  dup1\n  revert\ntag_1:\n  pop\n    /* \"contracts/Election.sol\":1079:1089  msg.sender */\n  caller\n    /* \"contracts/Election.sol\":1058:1076  electionCommission */\n  0x00\n  dup1\n    /* \"contracts/Election.sol\":1058:1089  electionCommission = msg.sender */\n  0x0100\n  exp\n  dup2\n  sload\n  dup2\n  0xffffffffffffffffffffffffffffffffffffffff\n  mul\n  not\n  and\n  swap1\n  dup4\n  0xffffffffffffffffffffffffffffffffffffffff\n  and\n  mul\n  or\n  swap1\n  sstore\n  pop\n    /* \"contracts/Election.sol\":1142:1146  true */\n  0x01\n    /* \"contracts/Election.sol\":1100:1106  voters */\n  dup1\n    /* \"contracts/Election.sol\":1100:1126  voters[electionCommission] */\n  0x00\n    /* \"contracts/Election.sol\":1107:1125  electionCommission */\n  dup1\n  0x00\n  swap1\n  sload\n  swap1\n  0x0100\n  exp\n  swap1\n  div\n  0xffffffffffffffffffffffffffffffffffffffff\n  and\n    /* \"contracts/Election.sol\":1100:1126  voters[electionCommission] */\n  0xffffffffffffffffffffffffffffffffffffffff\n  and\n  0xffffffffffffffffffffffffffffffffffffffff\n  and\n  dup2\n  mstore\n  0x20\n  add\n  swap1\n  dup2\n  mstore\n  0x20\n  add\n  0x00\n  keccak256\n    /* \"contracts/Election.sol\":1100:1139  voters[electionCommission].isRegistered */\n  0x00\n  add\n  0x00\n    /* \"contracts/Election.sol\":1100:1146  voters[electionCommission].isRegistered = true */\n  0x0100\n  exp\n  dup2\n  sload\n  dup2\n  0xff\n  mul\n  not\n  and\n  swap1\n  dup4\n  iszero\n  iszero\n  mul\n  or\n  swap1\n  sstore\n  pop\n    /* \"contracts/Election.sol\":60:3211  contract VotingSystem {... */\n  dataSize(sub_0)\n  dup1\n  dataOffset(sub_0)\n  0x00\n  codecopy\n  0x00\n  return\nstop\n\nsub_0: assembly {\n        /* \"contracts/Election.sol\":60:3211  contract VotingSystem {... */\n      mstore(0x40, 0x80)\n      callvalue\n      dup1\n      iszero\n      tag_1\n      jumpi\n      0x00\n      dup1\n      revert\n    tag_1:\n      pop\n      jumpi(tag_2, lt(calldatasize, 0x04))\n      shr(0xe0, calldataload(0x00))\n      dup1\n      0x462e91ec\n      gt\n      tag_12\n      jumpi\n      dup1\n      0x462e91ec\n      eq\n      tag_7\n      jumpi\n      dup1\n      0xa3ec138d\n      eq\n      tag_8\n      jumpi\n      dup1\n      0xaab46b7f\n      eq\n      tag_9\n      jumpi\n      dup1\n      0xd28178d7\n      eq\n      tag_10\n      jumpi\n      dup1\n      0xe2ba53f0\n      eq\n      tag_11\n      jumpi\n      jump(tag_2)\n    tag_12:\n      dup1\n      0x0121b93f\n      eq\n      tag_3\n      jumpi\n      dup1\n      0x2d35a8a2\n      eq\n      tag_4\n      jumpi\n      dup1\n      0x3477ee2e\n      eq\n      tag_5\n      jumpi\n      dup1\n      0x38db6dd3\n      eq\n      tag_6\n      jumpi\n    tag_2:\n      0x00\n      dup1\n      revert\n        /* \"contracts/Election.sol\":1983:2511  function vote(uint candidateId) public {... */\n    tag_3:\n      tag_13\n      0x04\n      dup1\n      calldatasize\n      sub\n      dup2\n      add\n      swap1\n      tag_14\n      swap2\n      swap1\n      tag_15\n      jump\t// in\n    tag_14:\n      tag_16\n      jump\t// in\n    tag_13:\n      stop\n        /* \"contracts/Election.sol\":881:908  uint public candidatesCount */\n    tag_4:\n      tag_17\n      tag_18\n      jump\t// in\n    tag_17:\n      mload(0x40)\n      tag_19\n      swap2\n      swap1\n      tag_20\n      jump\t// in\n    tag_19:\n      mload(0x40)\n      dup1\n      swap2\n      sub\n      swap1\n      return\n        /* \"contracts/Election.sol\":793:837  mapping(uint => Candidate) public candidates */\n    tag_5:\n      tag_21\n      0x04\n      dup1\n      calldatasize\n      sub\n      dup2\n      add\n      swap1\n      tag_22\n      swap2\n      swap1\n      tag_15\n      jump\t// in\n    tag_22:\n      tag_23\n      jump\t// in\n    tag_21:\n      mload(0x40)\n      tag_24\n      swap4\n      swap3\n      swap2\n      swap1\n      tag_25\n      jump\t// in\n    tag_24:\n      mload(0x40)\n      dup1\n      swap2\n      sub\n      swap1\n      return\n        /* \"contracts/Election.sol\":1613:1915  function registerVoter(address voterAddress) public {... */\n    tag_6:\n      tag_26\n      0x04\n      dup1\n      calldatasize\n      sub\n      dup2\n      add\n      swap1\n      tag_27\n      swap2\n      swap1\n      tag_28\n      jump\t// in\n    tag_27:\n      tag_29\n      jump\t// in\n    tag_26:\n      stop\n        /* \"contracts/Election.sol\":1241:1524  function addCandidate(string memory candidateName) public {... */\n    tag_7:\n      tag_30\n      0x04\n      dup1\n      calldatasize\n      sub\n      dup2\n      add\n      swap1\n      tag_31\n      swap2\n      swap1\n      tag_32\n      jump\t// in\n    tag_31:\n      tag_33\n      jump\t// in\n    tag_30:\n      stop\n        /* \"contracts/Election.sol\":700:739  mapping(address => Voter) public voters */\n    tag_8:\n      tag_34\n      0x04\n      dup1\n      calldatasize\n      sub\n      dup2\n      add\n      swap1\n      tag_35\n      swap2\n      swap1\n      tag_28\n      jump\t// in\n    tag_35:\n      tag_36\n      jump\t// in\n    tag_34:\n      mload(0x40)\n      tag_37\n      swap4\n      swap3\n      swap2\n      swap1\n      tag_38\n      jump\t// in\n    tag_37:\n      mload(0x40)\n      dup1\n      swap2\n      sub\n      swap1\n      return\n        /* \"contracts/Election.sol\":602:635  address public electionCommission */\n    tag_9:\n      tag_39\n      tag_40\n      jump\t// in\n    tag_39:\n      mload(0x40)\n      tag_41\n      swap2\n      swap1\n      tag_42\n      jump\t// in\n    tag_41:\n      mload(0x40)\n      dup1\n      swap2\n      sub\n      swap1\n      return\n        /* \"contracts/Election.sol\":2584:2953  function winningCandidate() public view returns (uint winningCandidateId) {... */\n    tag_10:\n      tag_43\n      tag_44\n      jump\t// in\n    tag_43:\n      mload(0x40)\n      tag_45\n      swap2\n      swap1\n      tag_20\n      jump\t// in\n    tag_45:\n      mload(0x40)\n      dup1\n      swap2\n      sub\n      swap1\n      return\n        /* \"contracts/Election.sol\":3019:3208  function winnerName() public view returns (string memory winnerCandidateName) {... */\n    tag_11:\n      tag_46\n      tag_47\n      jump\t// in\n    tag_46:\n      mload(0x40)\n      tag_48\n      swap2\n      swap1\n      tag_49\n      jump\t// in\n    tag_48:\n      mload(0x40)\n      dup1\n      swap2\n      sub\n      swap1\n      return\n        /* \"contracts/Election.sol\":1983:2511  function vote(uint candidateId) public {... */\n    tag_16:\n        /* \"contracts/Election.sol\":2033:2053  Voter storage sender */\n      0x00\n        /* \"contracts/Election.sol\":2056:2062  voters */\n      0x01\n        /* \"contracts/Election.sol\":2056:2074  voters[msg.sender] */\n      0x00\n        /* \"contracts/Election.sol\":2063:2073  msg.sender */\n      caller\n        /* \"contracts/Election.sol\":2056:2074  voters[msg.sender] */\n      0xffffffffffffffffffffffffffffffffffffffff\n      and\n      0xffffffffffffffffffffffffffffffffffffffff\n      and\n      dup2\n      mstore\n      0x20\n      add\n      swap1\n      dup2\n      mstore\n      0x20\n      add\n      0x00\n      keccak256\n        /* \"contracts/Election.sol\":2033:2074  Voter storage sender = voters[msg.sender] */\n      swap1\n      pop\n        /* \"contracts/Election.sol\":2093:2099  sender */\n      dup1\n        /* \"contracts/Election.sol\":2093:2112  sender.isRegistered */\n      0x00\n      add\n      0x00\n      swap1\n      sload\n      swap1\n      0x0100\n      exp\n      swap1\n      div\n      0xff\n      and\n        /* \"contracts/Election.sol\":2085:2148  require(sender.isRegistered, \"You must be a registered voter.\") */\n      tag_51\n      jumpi\n      mload(0x40)\n      0x08c379a000000000000000000000000000000000000000000000000000000000\n      dup2\n      mstore\n      0x04\n      add\n      tag_52\n      swap1\n      tag_53\n      jump\t// in\n    tag_52:\n      mload(0x40)\n      dup1\n      swap2\n      sub\n      swap1\n      revert\n    tag_51:\n        /* \"contracts/Election.sol\":2168:2174  sender */\n      dup1\n        /* \"contracts/Election.sol\":2168:2183  sender.hasVoted */\n      0x00\n      add\n      0x01\n      swap1\n      sload\n      swap1\n      0x0100\n      exp\n      swap1\n      div\n      0xff\n      and\n        /* \"contracts/Election.sol\":2167:2183  !sender.hasVoted */\n      iszero\n        /* \"contracts/Election.sol\":2159:2211  require(!sender.hasVoted, \"You have already voted.\") */\n      tag_54\n      jumpi\n      mload(0x40)\n      0x08c379a000000000000000000000000000000000000000000000000000000000\n      dup2\n      mstore\n      0x04\n      add\n      tag_55\n      swap1\n      tag_56\n      jump\t// in\n    tag_55:\n      mload(0x40)\n      dup1\n      swap2\n      sub\n      swap1\n      revert\n    tag_54:\n        /* \"contracts/Election.sol\":2244:2245  0 */\n      0x00\n        /* \"contracts/Election.sol\":2230:2241  candidateId */\n      dup3\n        /* \"contracts/Election.sol\":2230:2245  candidateId > 0 */\n      gt\n        /* \"contracts/Election.sol\":2230:2279  candidateId > 0 && candidateId <= candidatesCount */\n      dup1\n      iszero\n      tag_57\n      jumpi\n      pop\n        /* \"contracts/Election.sol\":2264:2279  candidatesCount */\n      sload(0x03)\n        /* \"contracts/Election.sol\":2249:2260  candidateId */\n      dup3\n        /* \"contracts/Election.sol\":2249:2279  candidateId <= candidatesCount */\n      gt\n      iszero\n        /* \"contracts/Election.sol\":2230:2279  candidateId > 0 && candidateId <= candidatesCount */\n    tag_57:\n        /* \"contracts/Election.sol\":2222:2305  require(candidateId > 0 && candidateId <= candidatesCount, \"Invalid candidate ID.\") */\n      tag_58\n      jumpi\n      mload(0x40)\n      0x08c379a000000000000000000000000000000000000000000000000000000000\n      dup2\n      mstore\n      0x04\n      add\n      tag_59\n      swap1\n      tag_60\n      jump\t// in\n    tag_59:\n      mload(0x40)\n      dup1\n      swap2\n      sub\n      swap1\n      revert\n    tag_58:\n        /* \"contracts/Election.sol\":2336:2340  true */\n      0x01\n        /* \"contracts/Election.sol\":2318:2324  sender */\n      dup2\n        /* \"contracts/Election.sol\":2318:2333  sender.hasVoted */\n      0x00\n      add\n      0x01\n        /* \"contracts/Election.sol\":2318:2340  sender.hasVoted = true */\n      0x0100\n      exp\n      dup2\n      sload\n      dup2\n      0xff\n      mul\n      not\n      and\n      swap1\n      dup4\n      iszero\n      iszero\n      mul\n      or\n      swap1\n      sstore\n      pop\n        /* \"contracts/Election.sol\":2377:2388  candidateId */\n      dup2\n        /* \"contracts/Election.sol\":2351:2357  sender */\n      dup2\n        /* \"contracts/Election.sol\":2351:2374  sender.votedCandidateId */\n      0x01\n      add\n        /* \"contracts/Election.sol\":2351:2388  sender.votedCandidateId = candidateId */\n      dup2\n      swap1\n      sstore\n      pop\n        /* \"contracts/Election.sol\":2502:2503  1 */\n      0x01\n        /* \"contracts/Election.sol\":2465:2475  candidates */\n      0x02\n        /* \"contracts/Election.sol\":2465:2488  candidates[candidateId] */\n      0x00\n        /* \"contracts/Election.sol\":2476:2487  candidateId */\n      dup5\n        /* \"contracts/Election.sol\":2465:2488  candidates[candidateId] */\n      dup2\n      mstore\n      0x20\n      add\n      swap1\n      dup2\n      mstore\n      0x20\n      add\n      0x00\n      keccak256\n        /* \"contracts/Election.sol\":2465:2498  candidates[candidateId].voteCount */\n      0x02\n      add\n      0x00\n        /* \"contracts/Election.sol\":2465:2503  candidates[candidateId].voteCount += 1 */\n      dup3\n      dup3\n      sload\n      tag_61\n      swap2\n      swap1\n      tag_62\n      jump\t// in\n    tag_61:\n      swap3\n      pop\n      pop\n      dup2\n      swap1\n      sstore\n      pop\n        /* \"contracts/Election.sol\":2022:2511  {... */\n      pop\n        /* \"contracts/Election.sol\":1983:2511  function vote(uint candidateId) public {... */\n      pop\n      jump\t// out\n        /* \"contracts/Election.sol\":881:908  uint public candidatesCount */\n    tag_18:\n      sload(0x03)\n      dup2\n      jump\t// out\n        /* \"contracts/Election.sol\":793:837  mapping(uint => Candidate) public candidates */\n    tag_23:\n      mstore(0x20, 0x02)\n      dup1\n      0x00\n      mstore\n      keccak256(0x00, 0x40)\n      0x00\n      swap2\n      pop\n      swap1\n      pop\n      dup1\n      0x00\n      add\n      sload\n      swap1\n      dup1\n      0x01\n      add\n      dup1\n      sload\n      tag_63\n      swap1\n      tag_64\n      jump\t// in\n    tag_63:\n      dup1\n      0x1f\n      add\n      0x20\n      dup1\n      swap2\n      div\n      mul\n      0x20\n      add\n      mload(0x40)\n      swap1\n      dup2\n      add\n      0x40\n      mstore\n      dup1\n      swap3\n      swap2\n      swap1\n      dup2\n      dup2\n      mstore\n      0x20\n      add\n      dup3\n      dup1\n      sload\n      tag_65\n      swap1\n      tag_64\n      jump\t// in\n    tag_65:\n      dup1\n      iszero\n      tag_66\n      jumpi\n      dup1\n      0x1f\n      lt\n      tag_67\n      jumpi\n      0x0100\n      dup1\n      dup4\n      sload\n      div\n      mul\n      dup4\n      mstore\n      swap2\n      0x20\n      add\n      swap2\n      jump(tag_66)\n    tag_67:\n      dup3\n      add\n      swap2\n      swap1\n      0x00\n      mstore\n      keccak256(0x00, 0x20)\n      swap1\n    tag_68:\n      dup2\n      sload\n      dup2\n      mstore\n      swap1\n      0x01\n      add\n      swap1\n      0x20\n      add\n      dup1\n      dup4\n      gt\n      tag_68\n      jumpi\n      dup3\n      swap1\n      sub\n      0x1f\n      and\n      dup3\n      add\n      swap2\n    tag_66:\n      pop\n      pop\n      pop\n      pop\n      pop\n      swap1\n      dup1\n      0x02\n      add\n      sload\n      swap1\n      pop\n      dup4\n      jump\t// out\n        /* \"contracts/Election.sol\":1613:1915  function registerVoter(address voterAddress) public {... */\n    tag_29:\n        /* \"contracts/Election.sol\":1698:1716  electionCommission */\n      0x00\n      dup1\n      sload\n      swap1\n      0x0100\n      exp\n      swap1\n      div\n      0xffffffffffffffffffffffffffffffffffffffff\n      and\n        /* \"contracts/Election.sol\":1684:1716  msg.sender == electionCommission */\n      0xffffffffffffffffffffffffffffffffffffffff\n      and\n        /* \"contracts/Election.sol\":1684:1694  msg.sender */\n      caller\n        /* \"contracts/Election.sol\":1684:1716  msg.sender == electionCommission */\n      0xffffffffffffffffffffffffffffffffffffffff\n      and\n      eq\n        /* \"contracts/Election.sol\":1676:1770  require(msg.sender == electionCommission, \"Only the election commission can register voters.\") */\n      tag_70\n      jumpi\n      mload(0x40)\n      0x08c379a000000000000000000000000000000000000000000000000000000000\n      dup2\n      mstore\n      0x04\n      add\n      tag_71\n      swap1\n      tag_72\n      jump\t// in\n    tag_71:\n      mload(0x40)\n      dup1\n      swap2\n      sub\n      swap1\n      revert\n    tag_70:\n        /* \"contracts/Election.sol\":1790:1796  voters */\n      0x01\n        /* \"contracts/Election.sol\":1790:1810  voters[voterAddress] */\n      0x00\n        /* \"contracts/Election.sol\":1797:1809  voterAddress */\n      dup3\n        /* \"contracts/Election.sol\":1790:1810  voters[voterAddress] */\n      0xffffffffffffffffffffffffffffffffffffffff\n      and\n      0xffffffffffffffffffffffffffffffffffffffff\n      and\n      dup2\n      mstore\n      0x20\n      add\n      swap1\n      dup2\n      mstore\n      0x20\n      add\n      0x00\n      keccak256\n        /* \"contracts/Election.sol\":1790:1823  voters[voterAddress].isRegistered */\n      0x00\n      add\n      0x00\n      swap1\n      sload\n      swap1\n      0x0100\n      exp\n      swap1\n      div\n      0xff\n      and\n        /* \"contracts/Election.sol\":1789:1823  !voters[voterAddress].isRegistered */\n      iszero\n        /* \"contracts/Election.sol\":1781:1856  require(!voters[voterAddress].isRegistered, \"Voter is already registered.\") */\n      tag_73\n      jumpi\n      mload(0x40)\n      0x08c379a000000000000000000000000000000000000000000000000000000000\n      dup2\n      mstore\n      0x04\n      add\n      tag_74\n      swap1\n      tag_75\n      jump\t// in\n    tag_74:\n      mload(0x40)\n      dup1\n      swap2\n      sub\n      swap1\n      revert\n    tag_73:\n        /* \"contracts/Election.sol\":1903:1907  true */\n      0x01\n        /* \"contracts/Election.sol\":1867:1873  voters */\n      dup1\n        /* \"contracts/Election.sol\":1867:1887  voters[voterAddress] */\n      0x00\n        /* \"contracts/Election.sol\":1874:1886  voterAddress */\n      dup4\n        /* \"contracts/Election.sol\":1867:1887  voters[voterAddress] */\n      0xffffffffffffffffffffffffffffffffffffffff\n      and\n      0xffffffffffffffffffffffffffffffffffffffff\n      and\n      dup2\n      mstore\n      0x20\n      add\n      swap1\n      dup2\n      mstore\n      0x20\n      add\n      0x00\n      keccak256\n        /* \"contracts/Election.sol\":1867:1900  voters[voterAddress].isRegistered */\n      0x00\n      add\n      0x00\n        /* \"contracts/Election.sol\":1867:1907  voters[voterAddress].isRegistered = true */\n      0x0100\n      exp\n      dup2\n      sload\n      dup2\n      0xff\n      mul\n      not\n      and\n      swap1\n      dup4\n      iszero\n      iszero\n      mul\n      or\n      swap1\n      sstore\n      pop\n        /* \"contracts/Election.sol\":1613:1915  function registerVoter(address voterAddress) public {... */\n      pop\n      jump\t// out\n        /* \"contracts/Election.sol\":1241:1524  function addCandidate(string memory candidateName) public {... */\n    tag_33:\n        /* \"contracts/Election.sol\":1332:1350  electionCommission */\n      0x00\n      dup1\n      sload\n      swap1\n      0x0100\n      exp\n      swap1\n      div\n      0xffffffffffffffffffffffffffffffffffffffff\n      and\n        /* \"contracts/Election.sol\":1318:1350  msg.sender == electionCommission */\n      0xffffffffffffffffffffffffffffffffffffffff\n      and\n        /* \"contracts/Election.sol\":1318:1328  msg.sender */\n      caller\n        /* \"contracts/Election.sol\":1318:1350  msg.sender == electionCommission */\n      0xffffffffffffffffffffffffffffffffffffffff\n      and\n      eq\n        /* \"contracts/Election.sol\":1310:1403  require(msg.sender == electionCommission, \"Only the election commission can add candidates.\") */\n      tag_77\n      jumpi\n      mload(0x40)\n      0x08c379a000000000000000000000000000000000000000000000000000000000\n      dup2\n      mstore\n      0x04\n      add\n      tag_78\n      swap1\n      tag_79\n      jump\t// in\n    tag_78:\n      mload(0x40)\n      dup1\n      swap2\n      sub\n      swap1\n      revert\n    tag_77:\n        /* \"contracts/Election.sol\":1414:1429  candidatesCount */\n      0x03\n      0x00\n        /* \"contracts/Election.sol\":1414:1431  candidatesCount++ */\n      dup2\n      sload\n      dup1\n      swap3\n      swap2\n      swap1\n      tag_80\n      swap1\n      tag_81\n      jump\t// in\n    tag_80:\n      swap2\n      swap1\n      pop\n      sstore\n      pop\n        /* \"contracts/Election.sol\":1472:1516  Candidate(candidatesCount, candidateName, 0) */\n      mload(0x40)\n      dup1\n      0x60\n      add\n      0x40\n      mstore\n      dup1\n        /* \"contracts/Election.sol\":1482:1497  candidatesCount */\n      sload(0x03)\n        /* \"contracts/Election.sol\":1472:1516  Candidate(candidatesCount, candidateName, 0) */\n      dup2\n      mstore\n      0x20\n      add\n        /* \"contracts/Election.sol\":1499:1512  candidateName */\n      dup3\n        /* \"contracts/Election.sol\":1472:1516  Candidate(candidatesCount, candidateName, 0) */\n      dup2\n      mstore\n      0x20\n      add\n        /* \"contracts/Election.sol\":1514:1515  0 */\n      0x00\n        /* \"contracts/Election.sol\":1472:1516  Candidate(candidatesCount, candidateName, 0) */\n      dup2\n      mstore\n      pop\n        /* \"contracts/Election.sol\":1442:1452  candidates */\n      0x02\n        /* \"contracts/Election.sol\":1442:1469  candidates[candidatesCount] */\n      0x00\n        /* \"contracts/Election.sol\":1453:1468  candidatesCount */\n      sload(0x03)\n        /* \"contracts/Election.sol\":1442:1469  candidates[candidatesCount] */\n      dup2\n      mstore\n      0x20\n      add\n      swap1\n      dup2\n      mstore\n      0x20\n      add\n      0x00\n      keccak256\n        /* \"contracts/Election.sol\":1442:1516  candidates[candidatesCount] = Candidate(candidatesCount, candidateName, 0) */\n      0x00\n      dup3\n      add\n      mload\n      dup2\n      0x00\n      add\n      sstore\n      0x20\n      dup3\n      add\n      mload\n      dup2\n      0x01\n      add\n      swap1\n      dup2\n      tag_82\n      swap2\n      swap1\n      tag_83\n      jump\t// in\n    tag_82:\n      pop\n      0x40\n      dup3\n      add\n      mload\n      dup2\n      0x02\n      add\n      sstore\n      swap1\n      pop\n      pop\n        /* \"contracts/Election.sol\":1241:1524  function addCandidate(string memory candidateName) public {... */\n      pop\n      jump\t// out\n        /* \"contracts/Election.sol\":700:739  mapping(address => Voter) public voters */\n    tag_36:\n      mstore(0x20, 0x01)\n      dup1\n      0x00\n      mstore\n      keccak256(0x00, 0x40)\n      0x00\n      swap2\n      pop\n      swap1\n      pop\n      dup1\n      0x00\n      add\n      0x00\n      swap1\n      sload\n      swap1\n      0x0100\n      exp\n      swap1\n      div\n      0xff\n      and\n      swap1\n      dup1\n      0x00\n      add\n      0x01\n      swap1\n      sload\n      swap1\n      0x0100\n      exp\n      swap1\n      div\n      0xff\n      and\n      swap1\n      dup1\n      0x01\n      add\n      sload\n      swap1\n      pop\n      dup4\n      jump\t// out\n        /* \"contracts/Election.sol\":602:635  address public electionCommission */\n    tag_40:\n      0x00\n      dup1\n      sload\n      swap1\n      0x0100\n      exp\n      swap1\n      div\n      0xffffffffffffffffffffffffffffffffffffffff\n      and\n      dup2\n      jump\t// out\n        /* \"contracts/Election.sol\":2584:2953  function winningCandidate() public view returns (uint winningCandidateId) {... */\n    tag_44:\n        /* \"contracts/Election.sol\":2633:2656  uint winningCandidateId */\n      0x00\n        /* \"contracts/Election.sol\":2669:2686  uint maxVoteCount */\n      dup1\n        /* \"contracts/Election.sol\":2689:2690  0 */\n      0x00\n        /* \"contracts/Election.sol\":2669:2690  uint maxVoteCount = 0 */\n      swap1\n      pop\n        /* \"contracts/Election.sol\":2708:2714  uint i */\n      0x00\n        /* \"contracts/Election.sol\":2717:2718  1 */\n      0x01\n        /* \"contracts/Election.sol\":2708:2718  uint i = 1 */\n      swap1\n      pop\n        /* \"contracts/Election.sol\":2703:2946  for (uint i = 1; i <= candidatesCount; i++) {... */\n    tag_85:\n        /* \"contracts/Election.sol\":2725:2740  candidatesCount */\n      sload(0x03)\n        /* \"contracts/Election.sol\":2720:2721  i */\n      dup2\n        /* \"contracts/Election.sol\":2720:2740  i <= candidatesCount */\n      gt\n        /* \"contracts/Election.sol\":2703:2946  for (uint i = 1; i <= candidatesCount; i++) {... */\n      tag_86\n      jumpi\n        /* \"contracts/Election.sol\":2792:2804  maxVoteCount */\n      dup2\n        /* \"contracts/Election.sol\":2766:2776  candidates */\n      0x02\n        /* \"contracts/Election.sol\":2766:2779  candidates[i] */\n      0x00\n        /* \"contracts/Election.sol\":2777:2778  i */\n      dup4\n        /* \"contracts/Election.sol\":2766:2779  candidates[i] */\n      dup2\n      mstore\n      0x20\n      add\n      swap1\n      dup2\n      mstore\n      0x20\n      add\n      0x00\n      keccak256\n        /* \"contracts/Election.sol\":2766:2789  candidates[i].voteCount */\n      0x02\n      add\n      sload\n        /* \"contracts/Election.sol\":2766:2804  candidates[i].voteCount > maxVoteCount */\n      gt\n        /* \"contracts/Election.sol\":2762:2935  if (candidates[i].voteCount > maxVoteCount) {... */\n      iszero\n      tag_88\n      jumpi\n        /* \"contracts/Election.sol\":2840:2850  candidates */\n      0x02\n        /* \"contracts/Election.sol\":2840:2853  candidates[i] */\n      0x00\n        /* \"contracts/Election.sol\":2851:2852  i */\n      dup3\n        /* \"contracts/Election.sol\":2840:2853  candidates[i] */\n      dup2\n      mstore\n      0x20\n      add\n      swap1\n      dup2\n      mstore\n      0x20\n      add\n      0x00\n      keccak256\n        /* \"contracts/Election.sol\":2840:2863  candidates[i].voteCount */\n      0x02\n      add\n      sload\n        /* \"contracts/Election.sol\":2825:2863  maxVoteCount = candidates[i].voteCount */\n      swap2\n      pop\n        /* \"contracts/Election.sol\":2903:2913  candidates */\n      0x02\n        /* \"contracts/Election.sol\":2903:2916  candidates[i] */\n      0x00\n        /* \"contracts/Election.sol\":2914:2915  i */\n      dup3\n        /* \"contracts/Election.sol\":2903:2916  candidates[i] */\n      dup2\n      mstore\n      0x20\n      add\n      swap1\n      dup2\n      mstore\n      0x20\n      add\n      0x00\n      keccak256\n        /* \"contracts/Election.sol\":2903:2919  candidates[i].id */\n      0x00\n      add\n      sload\n        /* \"contracts/Election.sol\":2882:2919  winningCandidateId = candidates[i].id */\n      swap3\n      pop\n        /* \"contracts/Election.sol\":2762:2935  if (candidates[i].voteCount > maxVoteCount) {... */\n    tag_88:\n        /* \"contracts/Election.sol\":2742:2745  i++ */\n      dup1\n      dup1\n      tag_89\n      swap1\n      tag_81\n      jump\t// in\n    tag_89:\n      swap2\n      pop\n      pop\n        /* \"contracts/Election.sol\":2703:2946  for (uint i = 1; i <= candidatesCount; i++) {... */\n      jump(tag_85)\n    tag_86:\n      pop\n        /* \"contracts/Election.sol\":2658:2953  {... */\n      pop\n        /* \"contracts/Election.sol\":2584:2953  function winningCandidate() public view returns (uint winningCandidateId) {... */\n      swap1\n      jump\t// out\n        /* \"contracts/Election.sol\":3019:3208  function winnerName() public view returns (string memory winnerCandidateName) {... */\n    tag_47:\n        /* \"contracts/Election.sol\":3062:3095  string memory winnerCandidateName */\n      0x60\n        /* \"contracts/Election.sol\":3108:3121  uint winnerId */\n      0x00\n        /* \"contracts/Election.sol\":3124:3142  winningCandidate() */\n      tag_91\n        /* \"contracts/Election.sol\":3124:3140  winningCandidate */\n      tag_44\n        /* \"contracts/Election.sol\":3124:3142  winningCandidate() */\n      jump\t// in\n    tag_91:\n        /* \"contracts/Election.sol\":3108:3142  uint winnerId = winningCandidate() */\n      swap1\n      pop\n        /* \"contracts/Election.sol\":3175:3185  candidates */\n      0x02\n        /* \"contracts/Election.sol\":3175:3195  candidates[winnerId] */\n      0x00\n        /* \"contracts/Election.sol\":3186:3194  winnerId */\n      dup3\n        /* \"contracts/Election.sol\":3175:3195  candidates[winnerId] */\n      dup2\n      mstore\n      0x20\n      add\n      swap1\n      dup2\n      mstore\n      0x20\n      add\n      0x00\n      keccak256\n        /* \"contracts/Election.sol\":3175:3200  candidates[winnerId].name */\n      0x01\n      add\n        /* \"contracts/Election.sol\":3153:3200  winnerCandidateName = candidates[winnerId].name */\n      dup1\n      sload\n      tag_92\n      swap1\n      tag_64\n      jump\t// in\n    tag_92:\n      dup1\n      0x1f\n      add\n      0x20\n      dup1\n      swap2\n      div\n      mul\n      0x20\n      add\n      mload(0x40)\n      swap1\n      dup2\n      add\n      0x40\n      mstore\n      dup1\n      swap3\n      swap2\n      swap1\n      dup2\n      dup2\n      mstore\n      0x20\n      add\n      dup3\n      dup1\n      sload\n      tag_93\n      swap1\n      tag_64\n      jump\t// in\n    tag_93:\n      dup1\n      iszero\n      tag_94\n      jumpi\n      dup1\n      0x1f\n      lt\n      tag_95\n      jumpi\n      0x0100\n      dup1\n      dup4\n      sload\n      div\n      mul\n      dup4\n      mstore\n      swap2\n      0x20\n      add\n      swap2\n      jump(tag_94)\n    tag_95:\n      dup3\n      add\n      swap2\n      swap1\n      0x00\n      mstore\n      keccak256(0x00, 0x20)\n      swap1\n    tag_96:\n      dup2\n      sload\n      dup2\n      mstore\n      swap1\n      0x01\n      add\n      swap1\n      0x20\n      add\n      dup1\n      dup4\n      gt\n      tag_96\n      jumpi\n      dup3\n      swap1\n      sub\n      0x1f\n      and\n      dup3\n      add\n      swap2\n    tag_94:\n      pop\n      pop\n      pop\n      pop\n      pop\n      swap2\n      pop\n        /* \"contracts/Election.sol\":3097:3208  {... */\n      pop\n        /* \"contracts/Election.sol\":3019:3208  function winnerName() public view returns (string memory winnerCandidateName) {... */\n      swap1\n      jump\t// out\n        /* \"#utility.yul\":7:82   */\n    tag_97:\n        /* \"#utility.yul\":40:46   */\n      0x00\n        /* \"#utility.yul\":73:75   */\n      0x40\n        /* \"#utility.yul\":67:76   */\n      mload\n        /* \"#utility.yul\":57:76   */\n      swap1\n      pop\n        /* \"#utility.yul\":7:82   */\n      swap1\n      jump\t// out\n        /* \"#utility.yul\":88:205   */\n    tag_98:\n        /* \"#utility.yul\":197:198   */\n      0x00\n        /* \"#utility.yul\":194:195   */\n      dup1\n        /* \"#utility.yul\":187:199   */\n      revert\n        /* \"#utility.yul\":211:328   */\n    tag_99:\n        /* \"#utility.yul\":320:321   */\n      0x00\n        /* \"#utility.yul\":317:318   */\n      dup1\n        /* \"#utility.yul\":310:322   */\n      revert\n        /* \"#utility.yul\":334:411   */\n    tag_100:\n        /* \"#utility.yul\":371:378   */\n      0x00\n        /* \"#utility.yul\":400:405   */\n      dup2\n        /* \"#utility.yul\":389:405   */\n      swap1\n      pop\n        /* \"#utility.yul\":334:411   */\n      swap2\n      swap1\n      pop\n      jump\t// out\n        /* \"#utility.yul\":417:539   */\n    tag_101:\n        /* \"#utility.yul\":490:514   */\n      tag_160\n        /* \"#utility.yul\":508:513   */\n      dup2\n        /* \"#utility.yul\":490:514   */\n      tag_100\n      jump\t// in\n    tag_160:\n        /* \"#utility.yul\":483:488   */\n      dup2\n        /* \"#utility.yul\":480:515   */\n      eq\n        /* \"#utility.yul\":470:533   */\n      tag_161\n      jumpi\n        /* \"#utility.yul\":529:530   */\n      0x00\n        /* \"#utility.yul\":526:527   */\n      dup1\n        /* \"#utility.yul\":519:531   */\n      revert\n        /* \"#utility.yul\":470:533   */\n    tag_161:\n        /* \"#utility.yul\":417:539   */\n      pop\n      jump\t// out\n        /* \"#utility.yul\":545:684   */\n    tag_102:\n        /* \"#utility.yul\":591:596   */\n      0x00\n        /* \"#utility.yul\":629:635   */\n      dup2\n        /* \"#utility.yul\":616:636   */\n      calldataload\n        /* \"#utility.yul\":607:636   */\n      swap1\n      pop\n        /* \"#utility.yul\":645:678   */\n      tag_163\n        /* \"#utility.yul\":672:677   */\n      dup2\n        /* \"#utility.yul\":645:678   */\n      tag_101\n      jump\t// in\n    tag_163:\n        /* \"#utility.yul\":545:684   */\n      swap3\n      swap2\n      pop\n      pop\n      jump\t// out\n        /* \"#utility.yul\":690:1019   */\n    tag_15:\n        /* \"#utility.yul\":749:755   */\n      0x00\n        /* \"#utility.yul\":798:800   */\n      0x20\n        /* \"#utility.yul\":786:795   */\n      dup3\n        /* \"#utility.yul\":777:784   */\n      dup5\n        /* \"#utility.yul\":773:796   */\n      sub\n        /* \"#utility.yul\":769:801   */\n      slt\n        /* \"#utility.yul\":766:885   */\n      iszero\n      tag_165\n      jumpi\n        /* \"#utility.yul\":804:883   */\n      tag_166\n      tag_98\n      jump\t// in\n    tag_166:\n        /* \"#utility.yul\":766:885   */\n    tag_165:\n        /* \"#utility.yul\":924:925   */\n      0x00\n        /* \"#utility.yul\":949:1002   */\n      tag_167\n        /* \"#utility.yul\":994:1001   */\n      dup5\n        /* \"#utility.yul\":985:991   */\n      dup3\n        /* \"#utility.yul\":974:983   */\n      dup6\n        /* \"#utility.yul\":970:992   */\n      add\n        /* \"#utility.yul\":949:1002   */\n      tag_102\n      jump\t// in\n    tag_167:\n        /* \"#utility.yul\":939:1002   */\n      swap2\n      pop\n        /* \"#utility.yul\":895:1012   */\n      pop\n        /* \"#utility.yul\":690:1019   */\n      swap3\n      swap2\n      pop\n      pop\n      jump\t// out\n        /* \"#utility.yul\":1025:1143   */\n    tag_103:\n        /* \"#utility.yul\":1112:1136   */\n      tag_169\n        /* \"#utility.yul\":1130:1135   */\n      dup2\n        /* \"#utility.yul\":1112:1136   */\n      tag_100\n      jump\t// in\n    tag_169:\n        /* \"#utility.yul\":1107:1110   */\n      dup3\n        /* \"#utility.yul\":1100:1137   */\n      mstore\n        /* \"#utility.yul\":1025:1143   */\n      pop\n      pop\n      jump\t// out\n        /* \"#utility.yul\":1149:1371   */\n    tag_20:\n        /* \"#utility.yul\":1242:1246   */\n      0x00\n        /* \"#utility.yul\":1280:1282   */\n      0x20\n        /* \"#utility.yul\":1269:1278   */\n      dup3\n        /* \"#utility.yul\":1265:1283   */\n      add\n        /* \"#utility.yul\":1257:1283   */\n      swap1\n      pop\n        /* \"#utility.yul\":1293:1364   */\n      tag_171\n        /* \"#utility.yul\":1361:1362   */\n      0x00\n        /* \"#utility.yul\":1350:1359   */\n      dup4\n        /* \"#utility.yul\":1346:1363   */\n      add\n        /* \"#utility.yul\":1337:1343   */\n      dup5\n        /* \"#utility.yul\":1293:1364   */\n      tag_103\n      jump\t// in\n    tag_171:\n        /* \"#utility.yul\":1149:1371   */\n      swap3\n      swap2\n      pop\n      pop\n      jump\t// out\n        /* \"#utility.yul\":1377:1476   */\n    tag_104:\n        /* \"#utility.yul\":1429:1435   */\n      0x00\n        /* \"#utility.yul\":1463:1468   */\n      dup2\n        /* \"#utility.yul\":1457:1469   */\n      mload\n        /* \"#utility.yul\":1447:1469   */\n      swap1\n      pop\n        /* \"#utility.yul\":1377:1476   */\n      swap2\n      swap1\n      pop\n      jump\t// out\n        /* \"#utility.yul\":1482:1651   */\n    tag_105:\n        /* \"#utility.yul\":1566:1577   */\n      0x00\n        /* \"#utility.yul\":1600:1606   */\n      dup3\n        /* \"#utility.yul\":1595:1598   */\n      dup3\n        /* \"#utility.yul\":1588:1607   */\n      mstore\n        /* \"#utility.yul\":1640:1644   */\n      0x20\n        /* \"#utility.yul\":1635:1638   */\n      dup3\n        /* \"#utility.yul\":1631:1645   */\n      add\n        /* \"#utility.yul\":1616:1645   */\n      swap1\n      pop\n        /* \"#utility.yul\":1482:1651   */\n      swap3\n      swap2\n      pop\n      pop\n      jump\t// out\n        /* \"#utility.yul\":1657:1796   */\n    tag_106:\n        /* \"#utility.yul\":1746:1752   */\n      dup3\n        /* \"#utility.yul\":1741:1744   */\n      dup2\n        /* \"#utility.yul\":1736:1739   */\n      dup4\n        /* \"#utility.yul\":1730:1753   */\n      mcopy\n        /* \"#utility.yul\":1787:1788   */\n      0x00\n        /* \"#utility.yul\":1778:1784   */\n      dup4\n        /* \"#utility.yul\":1773:1776   */\n      dup4\n        /* \"#utility.yul\":1769:1785   */\n      add\n        /* \"#utility.yul\":1762:1789   */\n      mstore\n        /* \"#utility.yul\":1657:1796   */\n      pop\n      pop\n      pop\n      jump\t// out\n        /* \"#utility.yul\":1802:1904   */\n    tag_107:\n        /* \"#utility.yul\":1843:1849   */\n      0x00\n        /* \"#utility.yul\":1894:1896   */\n      0x1f\n        /* \"#utility.yul\":1890:1897   */\n      not\n        /* \"#utility.yul\":1885:1887   */\n      0x1f\n        /* \"#utility.yul\":1878:1883   */\n      dup4\n        /* \"#utility.yul\":1874:1888   */\n      add\n        /* \"#utility.yul\":1870:1898   */\n      and\n        /* \"#utility.yul\":1860:1898   */\n      swap1\n      pop\n        /* \"#utility.yul\":1802:1904   */\n      swap2\n      swap1\n      pop\n      jump\t// out\n        /* \"#utility.yul\":1910:2287   */\n    tag_108:\n        /* \"#utility.yul\":1998:2001   */\n      0x00\n        /* \"#utility.yul\":2026:2065   */\n      tag_177\n        /* \"#utility.yul\":2059:2064   */\n      dup3\n        /* \"#utility.yul\":2026:2065   */\n      tag_104\n      jump\t// in\n    tag_177:\n        /* \"#utility.yul\":2081:2152   */\n      tag_178\n        /* \"#utility.yul\":2145:2151   */\n      dup2\n        /* \"#utility.yul\":2140:2143   */\n      dup6\n        /* \"#utility.yul\":2081:2152   */\n      tag_105\n      jump\t// in\n    tag_178:\n        /* \"#utility.yul\":2074:2152   */\n      swap4\n      pop\n        /* \"#utility.yul\":2161:2226   */\n      tag_179\n        /* \"#utility.yul\":2219:2225   */\n      dup2\n        /* \"#utility.yul\":2214:2217   */\n      dup6\n        /* \"#utility.yul\":2207:2211   */\n      0x20\n        /* \"#utility.yul\":2200:2205   */\n      dup7\n        /* \"#utility.yul\":2196:2212   */\n      add\n        /* \"#utility.yul\":2161:2226   */\n      tag_106\n      jump\t// in\n    tag_179:\n        /* \"#utility.yul\":2251:2280   */\n      tag_180\n        /* \"#utility.yul\":2273:2279   */\n      dup2\n        /* \"#utility.yul\":2251:2280   */\n      tag_107\n      jump\t// in\n    tag_180:\n        /* \"#utility.yul\":2246:2249   */\n      dup5\n        /* \"#utility.yul\":2242:2281   */\n      add\n        /* \"#utility.yul\":2235:2281   */\n      swap2\n      pop\n        /* \"#utility.yul\":2002:2287   */\n      pop\n        /* \"#utility.yul\":1910:2287   */\n      swap3\n      swap2\n      pop\n      pop\n      jump\t// out\n        /* \"#utility.yul\":2293:2826   */\n    tag_25:\n        /* \"#utility.yul\":2462:2466   */\n      0x00\n        /* \"#utility.yul\":2500:2502   */\n      0x60\n        /* \"#utility.yul\":2489:2498   */\n      dup3\n        /* \"#utility.yul\":2485:2503   */\n      add\n        /* \"#utility.yul\":2477:2503   */\n      swap1\n      pop\n        /* \"#utility.yul\":2513:2584   */\n      tag_182\n        /* \"#utility.yul\":2581:2582   */\n      0x00\n        /* \"#utility.yul\":2570:2579   */\n      dup4\n        /* \"#utility.yul\":2566:2583   */\n      add\n        /* \"#utility.yul\":2557:2563   */\n      dup7\n        /* \"#utility.yul\":2513:2584   */\n      tag_103\n      jump\t// in\n    tag_182:\n        /* \"#utility.yul\":2631:2640   */\n      dup2\n        /* \"#utility.yul\":2625:2629   */\n      dup2\n        /* \"#utility.yul\":2621:2641   */\n      sub\n        /* \"#utility.yul\":2616:2618   */\n      0x20\n        /* \"#utility.yul\":2605:2614   */\n      dup4\n        /* \"#utility.yul\":2601:2619   */\n      add\n        /* \"#utility.yul\":2594:2642   */\n      mstore\n        /* \"#utility.yul\":2659:2737   */\n      tag_183\n        /* \"#utility.yul\":2732:2736   */\n      dup2\n        /* \"#utility.yul\":2723:2729   */\n      dup6\n        /* \"#utility.yul\":2659:2737   */\n      tag_108\n      jump\t// in\n    tag_183:\n        /* \"#utility.yul\":2651:2737   */\n      swap1\n      pop\n        /* \"#utility.yul\":2747:2819   */\n      tag_184\n        /* \"#utility.yul\":2815:2817   */\n      0x40\n        /* \"#utility.yul\":2804:2813   */\n      dup4\n        /* \"#utility.yul\":2800:2818   */\n      add\n        /* \"#utility.yul\":2791:2797   */\n      dup5\n        /* \"#utility.yul\":2747:2819   */\n      tag_103\n      jump\t// in\n    tag_184:\n        /* \"#utility.yul\":2293:2826   */\n      swap5\n      swap4\n      pop\n      pop\n      pop\n      pop\n      jump\t// out\n        /* \"#utility.yul\":2832:2958   */\n    tag_109:\n        /* \"#utility.yul\":2869:2876   */\n      0x00\n        /* \"#utility.yul\":2909:2951   */\n      0xffffffffffffffffffffffffffffffffffffffff\n        /* \"#utility.yul\":2902:2907   */\n      dup3\n        /* \"#utility.yul\":2898:2952   */\n      and\n        /* \"#utility.yul\":2887:2952   */\n      swap1\n      pop\n        /* \"#utility.yul\":2832:2958   */\n      swap2\n      swap1\n      pop\n      jump\t// out\n        /* \"#utility.yul\":2964:3060   */\n    tag_110:\n        /* \"#utility.yul\":3001:3008   */\n      0x00\n        /* \"#utility.yul\":3030:3054   */\n      tag_187\n        /* \"#utility.yul\":3048:3053   */\n      dup3\n        /* \"#utility.yul\":3030:3054   */\n      tag_109\n      jump\t// in\n    tag_187:\n        /* \"#utility.yul\":3019:3054   */\n      swap1\n      pop\n        /* \"#utility.yul\":2964:3060   */\n      swap2\n      swap1\n      pop\n      jump\t// out\n        /* \"#utility.yul\":3066:3188   */\n    tag_111:\n        /* \"#utility.yul\":3139:3163   */\n      tag_189\n        /* \"#utility.yul\":3157:3162   */\n      dup2\n        /* \"#utility.yul\":3139:3163   */\n      tag_110\n      jump\t// in\n    tag_189:\n        /* \"#utility.yul\":3132:3137   */\n      dup2\n        /* \"#utility.yul\":3129:3164   */\n      eq\n        /* \"#utility.yul\":3119:3182   */\n      tag_190\n      jumpi\n        /* \"#utility.yul\":3178:3179   */\n      0x00\n        /* \"#utility.yul\":3175:3176   */\n      dup1\n        /* \"#utility.yul\":3168:3180   */\n      revert\n        /* \"#utility.yul\":3119:3182   */\n    tag_190:\n        /* \"#utility.yul\":3066:3188   */\n      pop\n      jump\t// out\n        /* \"#utility.yul\":3194:3333   */\n    tag_112:\n        /* \"#utility.yul\":3240:3245   */\n      0x00\n        /* \"#utility.yul\":3278:3284   */\n      dup2\n        /* \"#utility.yul\":3265:3285   */\n      calldataload\n        /* \"#utility.yul\":3256:3285   */\n      swap1\n      pop\n        /* \"#utility.yul\":3294:3327   */\n      tag_192\n        /* \"#utility.yul\":3321:3326   */\n      dup2\n        /* \"#utility.yul\":3294:3327   */\n      tag_111\n      jump\t// in\n    tag_192:\n        /* \"#utility.yul\":3194:3333   */\n      swap3\n      swap2\n      pop\n      pop\n      jump\t// out\n        /* \"#utility.yul\":3339:3668   */\n    tag_28:\n        /* \"#utility.yul\":3398:3404   */\n      0x00\n        /* \"#utility.yul\":3447:3449   */\n      0x20\n        /* \"#utility.yul\":3435:3444   */\n      dup3\n        /* \"#utility.yul\":3426:3433   */\n      dup5\n        /* \"#utility.yul\":3422:3445   */\n      sub\n        /* \"#utility.yul\":3418:3450   */\n      slt\n        /* \"#utility.yul\":3415:3534   */\n      iszero\n      tag_194\n      jumpi\n        /* \"#utility.yul\":3453:3532   */\n      tag_195\n      tag_98\n      jump\t// in\n    tag_195:\n        /* \"#utility.yul\":3415:3534   */\n    tag_194:\n        /* \"#utility.yul\":3573:3574   */\n      0x00\n        /* \"#utility.yul\":3598:3651   */\n      tag_196\n        /* \"#utility.yul\":3643:3650   */\n      dup5\n        /* \"#utility.yul\":3634:3640   */\n      dup3\n        /* \"#utility.yul\":3623:3632   */\n      dup6\n        /* \"#utility.yul\":3619:3641   */\n      add\n        /* \"#utility.yul\":3598:3651   */\n      tag_112\n      jump\t// in\n    tag_196:\n        /* \"#utility.yul\":3588:3651   */\n      swap2\n      pop\n        /* \"#utility.yul\":3544:3661   */\n      pop\n        /* \"#utility.yul\":3339:3668   */\n      swap3\n      swap2\n      pop\n      pop\n      jump\t// out\n        /* \"#utility.yul\":3674:3791   */\n    tag_113:\n        /* \"#utility.yul\":3783:3784   */\n      0x00\n        /* \"#utility.yul\":3780:3781   */\n      dup1\n        /* \"#utility.yul\":3773:3785   */\n      revert\n        /* \"#utility.yul\":3797:3914   */\n    tag_114:\n        /* \"#utility.yul\":3906:3907   */\n      0x00\n        /* \"#utility.yul\":3903:3904   */\n      dup1\n        /* \"#utility.yul\":3896:3908   */\n      revert\n        /* \"#utility.yul\":3920:4100   */\n    tag_115:\n        /* \"#utility.yul\":3968:4045   */\n      0x4e487b7100000000000000000000000000000000000000000000000000000000\n        /* \"#utility.yul\":3965:3966   */\n      0x00\n        /* \"#utility.yul\":3958:4046   */\n      mstore\n        /* \"#utility.yul\":4065:4069   */\n      0x41\n        /* \"#utility.yul\":4062:4063   */\n      0x04\n        /* \"#utility.yul\":4055:4070   */\n      mstore\n        /* \"#utility.yul\":4089:4093   */\n      0x24\n        /* \"#utility.yul\":4086:4087   */\n      0x00\n        /* \"#utility.yul\":4079:4094   */\n      revert\n        /* \"#utility.yul\":4106:4387   */\n    tag_116:\n        /* \"#utility.yul\":4189:4216   */\n      tag_201\n        /* \"#utility.yul\":4211:4215   */\n      dup3\n        /* \"#utility.yul\":4189:4216   */\n      tag_107\n      jump\t// in\n    tag_201:\n        /* \"#utility.yul\":4181:4187   */\n      dup2\n        /* \"#utility.yul\":4177:4217   */\n      add\n        /* \"#utility.yul\":4319:4325   */\n      dup2\n        /* \"#utility.yul\":4307:4317   */\n      dup2\n        /* \"#utility.yul\":4304:4326   */\n      lt\n        /* \"#utility.yul\":4283:4301   */\n      0xffffffffffffffff\n        /* \"#utility.yul\":4271:4281   */\n      dup3\n        /* \"#utility.yul\":4268:4302   */\n      gt\n        /* \"#utility.yul\":4265:4327   */\n      or\n        /* \"#utility.yul\":4262:4350   */\n      iszero\n      tag_202\n      jumpi\n        /* \"#utility.yul\":4330:4348   */\n      tag_203\n      tag_115\n      jump\t// in\n    tag_203:\n        /* \"#utility.yul\":4262:4350   */\n    tag_202:\n        /* \"#utility.yul\":4370:4380   */\n      dup1\n        /* \"#utility.yul\":4366:4368   */\n      0x40\n        /* \"#utility.yul\":4359:4381   */\n      mstore\n        /* \"#utility.yul\":4149:4387   */\n      pop\n        /* \"#utility.yul\":4106:4387   */\n      pop\n      pop\n      jump\t// out\n        /* \"#utility.yul\":4393:4522   */\n    tag_117:\n        /* \"#utility.yul\":4427:4433   */\n      0x00\n        /* \"#utility.yul\":4454:4474   */\n      tag_205\n      tag_97\n      jump\t// in\n    tag_205:\n        /* \"#utility.yul\":4444:4474   */\n      swap1\n      pop\n        /* \"#utility.yul\":4483:4516   */\n      tag_206\n        /* \"#utility.yul\":4511:4515   */\n      dup3\n        /* \"#utility.yul\":4503:4509   */\n      dup3\n        /* \"#utility.yul\":4483:4516   */\n      tag_116\n      jump\t// in\n    tag_206:\n        /* \"#utility.yul\":4393:4522   */\n      swap2\n      swap1\n      pop\n      jump\t// out\n        /* \"#utility.yul\":4528:4836   */\n    tag_118:\n        /* \"#utility.yul\":4590:4594   */\n      0x00\n        /* \"#utility.yul\":4680:4698   */\n      0xffffffffffffffff\n        /* \"#utility.yul\":4672:4678   */\n      dup3\n        /* \"#utility.yul\":4669:4699   */\n      gt\n        /* \"#utility.yul\":4666:4722   */\n      iszero\n      tag_208\n      jumpi\n        /* \"#utility.yul\":4702:4720   */\n      tag_209\n      tag_115\n      jump\t// in\n    tag_209:\n        /* \"#utility.yul\":4666:4722   */\n    tag_208:\n        /* \"#utility.yul\":4740:4769   */\n      tag_210\n        /* \"#utility.yul\":4762:4768   */\n      dup3\n        /* \"#utility.yul\":4740:4769   */\n      tag_107\n      jump\t// in\n    tag_210:\n        /* \"#utility.yul\":4732:4769   */\n      swap1\n      pop\n        /* \"#utility.yul\":4824:4828   */\n      0x20\n        /* \"#utility.yul\":4818:4822   */\n      dup2\n        /* \"#utility.yul\":4814:4829   */\n      add\n        /* \"#utility.yul\":4806:4829   */\n      swap1\n      pop\n        /* \"#utility.yul\":4528:4836   */\n      swap2\n      swap1\n      pop\n      jump\t// out\n        /* \"#utility.yul\":4842:4990   */\n    tag_119:\n        /* \"#utility.yul\":4940:4946   */\n      dup3\n        /* \"#utility.yul\":4935:4938   */\n      dup2\n        /* \"#utility.yul\":4930:4933   */\n      dup4\n        /* \"#utility.yul\":4917:4947   */\n      calldatacopy\n        /* \"#utility.yul\":4981:4982   */\n      0x00\n        /* \"#utility.yul\":4972:4978   */\n      dup4\n        /* \"#utility.yul\":4967:4970   */\n      dup4\n        /* \"#utility.yul\":4963:4979   */\n      add\n        /* \"#utility.yul\":4956:4983   */\n      mstore\n        /* \"#utility.yul\":4842:4990   */\n      pop\n      pop\n      pop\n      jump\t// out\n        /* \"#utility.yul\":4996:5421   */\n    tag_120:\n        /* \"#utility.yul\":5074:5079   */\n      0x00\n        /* \"#utility.yul\":5099:5165   */\n      tag_213\n        /* \"#utility.yul\":5115:5164   */\n      tag_214\n        /* \"#utility.yul\":5157:5163   */\n      dup5\n        /* \"#utility.yul\":5115:5164   */\n      tag_118\n      jump\t// in\n    tag_214:\n        /* \"#utility.yul\":5099:5165   */\n      tag_117\n      jump\t// in\n    tag_213:\n        /* \"#utility.yul\":5090:5165   */\n      swap1\n      pop\n        /* \"#utility.yul\":5188:5194   */\n      dup3\n        /* \"#utility.yul\":5181:5186   */\n      dup2\n        /* \"#utility.yul\":5174:5195   */\n      mstore\n        /* \"#utility.yul\":5226:5230   */\n      0x20\n        /* \"#utility.yul\":5219:5224   */\n      dup2\n        /* \"#utility.yul\":5215:5231   */\n      add\n        /* \"#utility.yul\":5264:5267   */\n      dup5\n        /* \"#utility.yul\":5255:5261   */\n      dup5\n        /* \"#utility.yul\":5250:5253   */\n      dup5\n        /* \"#utility.yul\":5246:5262   */\n      add\n        /* \"#utility.yul\":5243:5268   */\n      gt\n        /* \"#utility.yul\":5240:5352   */\n      iszero\n      tag_215\n      jumpi\n        /* \"#utility.yul\":5271:5350   */\n      tag_216\n      tag_114\n      jump\t// in\n    tag_216:\n        /* \"#utility.yul\":5240:5352   */\n    tag_215:\n        /* \"#utility.yul\":5361:5415   */\n      tag_217\n        /* \"#utility.yul\":5408:5414   */\n      dup5\n        /* \"#utility.yul\":5403:5406   */\n      dup3\n        /* \"#utility.yul\":5398:5401   */\n      dup6\n        /* \"#utility.yul\":5361:5415   */\n      tag_119\n      jump\t// in\n    tag_217:\n        /* \"#utility.yul\":5080:5421   */\n      pop\n        /* \"#utility.yul\":4996:5421   */\n      swap4\n      swap3\n      pop\n      pop\n      pop\n      jump\t// out\n        /* \"#utility.yul\":5441:5781   */\n    tag_121:\n        /* \"#utility.yul\":5497:5502   */\n      0x00\n        /* \"#utility.yul\":5546:5549   */\n      dup3\n        /* \"#utility.yul\":5539:5543   */\n      0x1f\n        /* \"#utility.yul\":5531:5537   */\n      dup4\n        /* \"#utility.yul\":5527:5544   */\n      add\n        /* \"#utility.yul\":5523:5550   */\n      slt\n        /* \"#utility.yul\":5513:5635   */\n      tag_219\n      jumpi\n        /* \"#utility.yul\":5554:5633   */\n      tag_220\n      tag_113\n      jump\t// in\n    tag_220:\n        /* \"#utility.yul\":5513:5635   */\n    tag_219:\n        /* \"#utility.yul\":5671:5677   */\n      dup2\n        /* \"#utility.yul\":5658:5678   */\n      calldataload\n        /* \"#utility.yul\":5696:5775   */\n      tag_221\n        /* \"#utility.yul\":5771:5774   */\n      dup5\n        /* \"#utility.yul\":5763:5769   */\n      dup3\n        /* \"#utility.yul\":5756:5760   */\n      0x20\n        /* \"#utility.yul\":5748:5754   */\n      dup7\n        /* \"#utility.yul\":5744:5761   */\n      add\n        /* \"#utility.yul\":5696:5775   */\n      tag_120\n      jump\t// in\n    tag_221:\n        /* \"#utility.yul\":5687:5775   */\n      swap2\n      pop\n        /* \"#utility.yul\":5503:5781   */\n      pop\n        /* \"#utility.yul\":5441:5781   */\n      swap3\n      swap2\n      pop\n      pop\n      jump\t// out\n        /* \"#utility.yul\":5787:6296   */\n    tag_32:\n        /* \"#utility.yul\":5856:5862   */\n      0x00\n        /* \"#utility.yul\":5905:5907   */\n      0x20\n        /* \"#utility.yul\":5893:5902   */\n      dup3\n        /* \"#utility.yul\":5884:5891   */\n      dup5\n        /* \"#utility.yul\":5880:5903   */\n      sub\n        /* \"#utility.yul\":5876:5908   */\n      slt\n        /* \"#utility.yul\":5873:5992   */\n      iszero\n      tag_223\n      jumpi\n        /* \"#utility.yul\":5911:5990   */\n      tag_224\n      tag_98\n      jump\t// in\n    tag_224:\n        /* \"#utility.yul\":5873:5992   */\n    tag_223:\n        /* \"#utility.yul\":6059:6060   */\n      0x00\n        /* \"#utility.yul\":6048:6057   */\n      dup3\n        /* \"#utility.yul\":6044:6061   */\n      add\n        /* \"#utility.yul\":6031:6062   */\n      calldataload\n        /* \"#utility.yul\":6089:6107   */\n      0xffffffffffffffff\n        /* \"#utility.yul\":6081:6087   */\n      dup2\n        /* \"#utility.yul\":6078:6108   */\n      gt\n        /* \"#utility.yul\":6075:6192   */\n      iszero\n      tag_225\n      jumpi\n        /* \"#utility.yul\":6111:6190   */\n      tag_226\n      tag_99\n      jump\t// in\n    tag_226:\n        /* \"#utility.yul\":6075:6192   */\n    tag_225:\n        /* \"#utility.yul\":6216:6279   */\n      tag_227\n        /* \"#utility.yul\":6271:6278   */\n      dup5\n        /* \"#utility.yul\":6262:6268   */\n      dup3\n        /* \"#utility.yul\":6251:6260   */\n      dup6\n        /* \"#utility.yul\":6247:6269   */\n      add\n        /* \"#utility.yul\":6216:6279   */\n      tag_121\n      jump\t// in\n    tag_227:\n        /* \"#utility.yul\":6206:6279   */\n      swap2\n      pop\n        /* \"#utility.yul\":6002:6289   */\n      pop\n        /* \"#utility.yul\":5787:6296   */\n      swap3\n      swap2\n      pop\n      pop\n      jump\t// out\n        /* \"#utility.yul\":6302:6392   */\n    tag_122:\n        /* \"#utility.yul\":6336:6343   */\n      0x00\n        /* \"#utility.yul\":6379:6384   */\n      dup2\n        /* \"#utility.yul\":6372:6385   */\n      iszero\n        /* \"#utility.yul\":6365:6386   */\n      iszero\n        /* \"#utility.yul\":6354:6386   */\n      swap1\n      pop\n        /* \"#utility.yul\":6302:6392   */\n      swap2\n      swap1\n      pop\n      jump\t// out\n        /* \"#utility.yul\":6398:6507   */\n    tag_123:\n        /* \"#utility.yul\":6479:6500   */\n      tag_230\n        /* \"#utility.yul\":6494:6499   */\n      dup2\n        /* \"#utility.yul\":6479:6500   */\n      tag_122\n      jump\t// in\n    tag_230:\n        /* \"#utility.yul\":6474:6477   */\n      dup3\n        /* \"#utility.yul\":6467:6501   */\n      mstore\n        /* \"#utility.yul\":6398:6507   */\n      pop\n      pop\n      jump\t// out\n        /* \"#utility.yul\":6513:6931   */\n    tag_38:\n        /* \"#utility.yul\":6650:6654   */\n      0x00\n        /* \"#utility.yul\":6688:6690   */\n      0x60\n        /* \"#utility.yul\":6677:6686   */\n      dup3\n        /* \"#utility.yul\":6673:6691   */\n      add\n        /* \"#utility.yul\":6665:6691   */\n      swap1\n      pop\n        /* \"#utility.yul\":6701:6766   */\n      tag_232\n        /* \"#utility.yul\":6763:6764   */\n      0x00\n        /* \"#utility.yul\":6752:6761   */\n      dup4\n        /* \"#utility.yul\":6748:6765   */\n      add\n        /* \"#utility.yul\":6739:6745   */\n      dup7\n        /* \"#utility.yul\":6701:6766   */\n      tag_123\n      jump\t// in\n    tag_232:\n        /* \"#utility.yul\":6776:6842   */\n      tag_233\n        /* \"#utility.yul\":6838:6840   */\n      0x20\n        /* \"#utility.yul\":6827:6836   */\n      dup4\n        /* \"#utility.yul\":6823:6841   */\n      add\n        /* \"#utility.yul\":6814:6820   */\n      dup6\n        /* \"#utility.yul\":6776:6842   */\n      tag_123\n      jump\t// in\n    tag_233:\n        /* \"#utility.yul\":6852:6924   */\n      tag_234\n        /* \"#utility.yul\":6920:6922   */\n      0x40\n        /* \"#utility.yul\":6909:6918   */\n      dup4\n        /* \"#utility.yul\":6905:6923   */\n      add\n        /* \"#utility.yul\":6896:6902   */\n      dup5\n        /* \"#utility.yul\":6852:6924   */\n      tag_103\n      jump\t// in\n    tag_234:\n        /* \"#utility.yul\":6513:6931   */\n      swap5\n      swap4\n      pop\n      pop\n      pop\n      pop\n      jump\t// out\n        /* \"#utility.yul\":6937:7055   */\n    tag_124:\n        /* \"#utility.yul\":7024:7048   */\n      tag_236\n        /* \"#utility.yul\":7042:7047   */\n      dup2\n        /* \"#utility.yul\":7024:7048   */\n      tag_110\n      jump\t// in\n    tag_236:\n        /* \"#utility.yul\":7019:7022   */\n      dup3\n        /* \"#utility.yul\":7012:7049   */\n      mstore\n        /* \"#utility.yul\":6937:7055   */\n      pop\n      pop\n      jump\t// out\n        /* \"#utility.yul\":7061:7283   */\n    tag_42:\n        /* \"#utility.yul\":7154:7158   */\n      0x00\n        /* \"#utility.yul\":7192:7194   */\n      0x20\n        /* \"#utility.yul\":7181:7190   */\n      dup3\n        /* \"#utility.yul\":7177:7195   */\n      add\n        /* \"#utility.yul\":7169:7195   */\n      swap1\n      pop\n        /* \"#utility.yul\":7205:7276   */\n      tag_238\n        /* \"#utility.yul\":7273:7274   */\n      0x00\n        /* \"#utility.yul\":7262:7271   */\n      dup4\n        /* \"#utility.yul\":7258:7275   */\n      add\n        /* \"#utility.yul\":7249:7255   */\n      dup5\n        /* \"#utility.yul\":7205:7276   */\n      tag_124\n      jump\t// in\n    tag_238:\n        /* \"#utility.yul\":7061:7283   */\n      swap3\n      swap2\n      pop\n      pop\n      jump\t// out\n        /* \"#utility.yul\":7289:7602   */\n    tag_49:\n        /* \"#utility.yul\":7402:7406   */\n      0x00\n        /* \"#utility.yul\":7440:7442   */\n      0x20\n        /* \"#utility.yul\":7429:7438   */\n      dup3\n        /* \"#utility.yul\":7425:7443   */\n      add\n        /* \"#utility.yul\":7417:7443   */\n      swap1\n      pop\n        /* \"#utility.yul\":7489:7498   */\n      dup2\n        /* \"#utility.yul\":7483:7487   */\n      dup2\n        /* \"#utility.yul\":7479:7499   */\n      sub\n        /* \"#utility.yul\":7475:7476   */\n      0x00\n        /* \"#utility.yul\":7464:7473   */\n      dup4\n        /* \"#utility.yul\":7460:7477   */\n      add\n        /* \"#utility.yul\":7453:7500   */\n      mstore\n        /* \"#utility.yul\":7517:7595   */\n      tag_240\n        /* \"#utility.yul\":7590:7594   */\n      dup2\n        /* \"#utility.yul\":7581:7587   */\n      dup5\n        /* \"#utility.yul\":7517:7595   */\n      tag_108\n      jump\t// in\n    tag_240:\n        /* \"#utility.yul\":7509:7595   */\n      swap1\n      pop\n        /* \"#utility.yul\":7289:7602   */\n      swap3\n      swap2\n      pop\n      pop\n      jump\t// out\n        /* \"#utility.yul\":7608:7789   */\n    tag_125:\n        /* \"#utility.yul\":7748:7781   */\n      0x596f75206d7573742062652061207265676973746572656420766f7465722e00\n        /* \"#utility.yul\":7744:7745   */\n      0x00\n        /* \"#utility.yul\":7736:7742   */\n      dup3\n        /* \"#utility.yul\":7732:7746   */\n      add\n        /* \"#utility.yul\":7725:7782   */\n      mstore\n        /* \"#utility.yul\":7608:7789   */\n      pop\n      jump\t// out\n        /* \"#utility.yul\":7795:8161   */\n    tag_126:\n        /* \"#utility.yul\":7937:7940   */\n      0x00\n        /* \"#utility.yul\":7958:8025   */\n      tag_243\n        /* \"#utility.yul\":8022:8024   */\n      0x1f\n        /* \"#utility.yul\":8017:8020   */\n      dup4\n        /* \"#utility.yul\":7958:8025   */\n      tag_105\n      jump\t// in\n    tag_243:\n        /* \"#utility.yul\":7951:8025   */\n      swap2\n      pop\n        /* \"#utility.yul\":8034:8127   */\n      tag_244\n        /* \"#utility.yul\":8123:8126   */\n      dup3\n        /* \"#utility.yul\":8034:8127   */\n      tag_125\n      jump\t// in\n    tag_244:\n        /* \"#utility.yul\":8152:8154   */\n      0x20\n        /* \"#utility.yul\":8147:8150   */\n      dup3\n        /* \"#utility.yul\":8143:8155   */\n      add\n        /* \"#utility.yul\":8136:8155   */\n      swap1\n      pop\n        /* \"#utility.yul\":7795:8161   */\n      swap2\n      swap1\n      pop\n      jump\t// out\n        /* \"#utility.yul\":8167:8586   */\n    tag_53:\n        /* \"#utility.yul\":8333:8337   */\n      0x00\n        /* \"#utility.yul\":8371:8373   */\n      0x20\n        /* \"#utility.yul\":8360:8369   */\n      dup3\n        /* \"#utility.yul\":8356:8374   */\n      add\n        /* \"#utility.yul\":8348:8374   */\n      swap1\n      pop\n        /* \"#utility.yul\":8420:8429   */\n      dup2\n        /* \"#utility.yul\":8414:8418   */\n      dup2\n        /* \"#utility.yul\":8410:8430   */\n      sub\n        /* \"#utility.yul\":8406:8407   */\n      0x00\n        /* \"#utility.yul\":8395:8404   */\n      dup4\n        /* \"#utility.yul\":8391:8408   */\n      add\n        /* \"#utility.yul\":8384:8431   */\n      mstore\n        /* \"#utility.yul\":8448:8579   */\n      tag_246\n        /* \"#utility.yul\":8574:8578   */\n      dup2\n        /* \"#utility.yul\":8448:8579   */\n      tag_126\n      jump\t// in\n    tag_246:\n        /* \"#utility.yul\":8440:8579   */\n      swap1\n      pop\n        /* \"#utility.yul\":8167:8586   */\n      swap2\n      swap1\n      pop\n      jump\t// out\n        /* \"#utility.yul\":8592:8765   */\n    tag_127:\n        /* \"#utility.yul\":8732:8757   */\n      0x596f75206861766520616c726561647920766f7465642e000000000000000000\n        /* \"#utility.yul\":8728:8729   */\n      0x00\n        /* \"#utility.yul\":8720:8726   */\n      dup3\n        /* \"#utility.yul\":8716:8730   */\n      add\n        /* \"#utility.yul\":8709:8758   */\n      mstore\n        /* \"#utility.yul\":8592:8765   */\n      pop\n      jump\t// out\n        /* \"#utility.yul\":8771:9137   */\n    tag_128:\n        /* \"#utility.yul\":8913:8916   */\n      0x00\n        /* \"#utility.yul\":8934:9001   */\n      tag_249\n        /* \"#utility.yul\":8998:9000   */\n      0x17\n        /* \"#utility.yul\":8993:8996   */\n      dup4\n        /* \"#utility.yul\":8934:9001   */\n      tag_105\n      jump\t// in\n    tag_249:\n        /* \"#utility.yul\":8927:9001   */\n      swap2\n      pop\n        /* \"#utility.yul\":9010:9103   */\n      tag_250\n        /* \"#utility.yul\":9099:9102   */\n      dup3\n        /* \"#utility.yul\":9010:9103   */\n      tag_127\n      jump\t// in\n    tag_250:\n        /* \"#utility.yul\":9128:9130   */\n      0x20\n        /* \"#utility.yul\":9123:9126   */\n      dup3\n        /* \"#utility.yul\":9119:9131   */\n      add\n        /* \"#utility.yul\":9112:9131   */\n      swap1\n      pop\n        /* \"#utility.yul\":8771:9137   */\n      swap2\n      swap1\n      pop\n      jump\t// out\n        /* \"#utility.yul\":9143:9562   */\n    tag_56:\n        /* \"#utility.yul\":9309:9313   */\n      0x00\n        /* \"#utility.yul\":9347:9349   */\n      0x20\n        /* \"#utility.yul\":9336:9345   */\n      dup3\n        /* \"#utility.yul\":9332:9350   */\n      add\n        /* \"#utility.yul\":9324:9350   */\n      swap1\n      pop\n        /* \"#utility.yul\":9396:9405   */\n      dup2\n        /* \"#utility.yul\":9390:9394   */\n      dup2\n        /* \"#utility.yul\":9386:9406   */\n      sub\n        /* \"#utility.yul\":9382:9383   */\n      0x00\n        /* \"#utility.yul\":9371:9380   */\n      dup4\n        /* \"#utility.yul\":9367:9384   */\n      add\n        /* \"#utility.yul\":9360:9407   */\n      mstore\n        /* \"#utility.yul\":9424:9555   */\n      tag_252\n        /* \"#utility.yul\":9550:9554   */\n      dup2\n        /* \"#utility.yul\":9424:9555   */\n      tag_128\n      jump\t// in\n    tag_252:\n        /* \"#utility.yul\":9416:9555   */\n      swap1\n      pop\n        /* \"#utility.yul\":9143:9562   */\n      swap2\n      swap1\n      pop\n      jump\t// out\n        /* \"#utility.yul\":9568:9739   */\n    tag_129:\n        /* \"#utility.yul\":9708:9731   */\n      0x496e76616c69642063616e6469646174652049442e0000000000000000000000\n        /* \"#utility.yul\":9704:9705   */\n      0x00\n        /* \"#utility.yul\":9696:9702   */\n      dup3\n        /* \"#utility.yul\":9692:9706   */\n      add\n        /* \"#utility.yul\":9685:9732   */\n      mstore\n        /* \"#utility.yul\":9568:9739   */\n      pop\n      jump\t// out\n        /* \"#utility.yul\":9745:10111   */\n    tag_130:\n        /* \"#utility.yul\":9887:9890   */\n      0x00\n        /* \"#utility.yul\":9908:9975   */\n      tag_255\n        /* \"#utility.yul\":9972:9974   */\n      0x15\n        /* \"#utility.yul\":9967:9970   */\n      dup4\n        /* \"#utility.yul\":9908:9975   */\n      tag_105\n      jump\t// in\n    tag_255:\n        /* \"#utility.yul\":9901:9975   */\n      swap2\n      pop\n        /* \"#utility.yul\":9984:10077   */\n      tag_256\n        /* \"#utility.yul\":10073:10076   */\n      dup3\n        /* \"#utility.yul\":9984:10077   */\n      tag_129\n      jump\t// in\n    tag_256:\n        /* \"#utility.yul\":10102:10104   */\n      0x20\n        /* \"#utility.yul\":10097:10100   */\n      dup3\n        /* \"#utility.yul\":10093:10105   */\n      add\n        /* \"#utility.yul\":10086:10105   */\n      swap1\n      pop\n        /* \"#utility.yul\":9745:10111   */\n      swap2\n      swap1\n      pop\n      jump\t// out\n        /* \"#utility.yul\":10117:10536   */\n    tag_60:\n        /* \"#utility.yul\":10283:10287   */\n      0x00\n        /* \"#utility.yul\":10321:10323   */\n      0x20\n        /* \"#utility.yul\":10310:10319   */\n      dup3\n        /* \"#utility.yul\":10306:10324   */\n      add\n        /* \"#utility.yul\":10298:10324   */\n      swap1\n      pop\n        /* \"#utility.yul\":10370:10379   */\n      dup2\n        /* \"#utility.yul\":10364:10368   */\n      dup2\n        /* \"#utility.yul\":10360:10380   */\n      sub\n        /* \"#utility.yul\":10356:10357   */\n      0x00\n        /* \"#utility.yul\":10345:10354   */\n      dup4\n        /* \"#utility.yul\":10341:10358   */\n      add\n        /* \"#utility.yul\":10334:10381   */\n      mstore\n        /* \"#utility.yul\":10398:10529   */\n      tag_258\n        /* \"#utility.yul\":10524:10528   */\n      dup2\n        /* \"#utility.yul\":10398:10529   */\n      tag_130\n      jump\t// in\n    tag_258:\n        /* \"#utility.yul\":10390:10529   */\n      swap1\n      pop\n        /* \"#utility.yul\":10117:10536   */\n      swap2\n      swap1\n      pop\n      jump\t// out\n        /* \"#utility.yul\":10542:10722   */\n    tag_131:\n        /* \"#utility.yul\":10590:10667   */\n      0x4e487b7100000000000000000000000000000000000000000000000000000000\n        /* \"#utility.yul\":10587:10588   */\n      0x00\n        /* \"#utility.yul\":10580:10668   */\n      mstore\n        /* \"#utility.yul\":10687:10691   */\n      0x11\n        /* \"#utility.yul\":10684:10685   */\n      0x04\n        /* \"#utility.yul\":10677:10692   */\n      mstore\n        /* \"#utility.yul\":10711:10715   */\n      0x24\n        /* \"#utility.yul\":10708:10709   */\n      0x00\n        /* \"#utility.yul\":10701:10716   */\n      revert\n        /* \"#utility.yul\":10728:10919   */\n    tag_62:\n        /* \"#utility.yul\":10768:10771   */\n      0x00\n        /* \"#utility.yul\":10787:10807   */\n      tag_261\n        /* \"#utility.yul\":10805:10806   */\n      dup3\n        /* \"#utility.yul\":10787:10807   */\n      tag_100\n      jump\t// in\n    tag_261:\n        /* \"#utility.yul\":10782:10807   */\n      swap2\n      pop\n        /* \"#utility.yul\":10821:10841   */\n      tag_262\n        /* \"#utility.yul\":10839:10840   */\n      dup4\n        /* \"#utility.yul\":10821:10841   */\n      tag_100\n      jump\t// in\n    tag_262:\n        /* \"#utility.yul\":10816:10841   */\n      swap3\n      pop\n        /* \"#utility.yul\":10864:10865   */\n      dup3\n        /* \"#utility.yul\":10861:10862   */\n      dup3\n        /* \"#utility.yul\":10857:10866   */\n      add\n        /* \"#utility.yul\":10850:10866   */\n      swap1\n      pop\n        /* \"#utility.yul\":10885:10888   */\n      dup1\n        /* \"#utility.yul\":10882:10883   */\n      dup3\n        /* \"#utility.yul\":10879:10889   */\n      gt\n        /* \"#utility.yul\":10876:10912   */\n      iszero\n      tag_263\n      jumpi\n        /* \"#utility.yul\":10892:10910   */\n      tag_264\n      tag_131\n      jump\t// in\n    tag_264:\n        /* \"#utility.yul\":10876:10912   */\n    tag_263:\n        /* \"#utility.yul\":10728:10919   */\n      swap3\n      swap2\n      pop\n      pop\n      jump\t// out\n        /* \"#utility.yul\":10925:11105   */\n    tag_132:\n        /* \"#utility.yul\":10973:11050   */\n      0x4e487b7100000000000000000000000000000000000000000000000000000000\n        /* \"#utility.yul\":10970:10971   */\n      0x00\n        /* \"#utility.yul\":10963:11051   */\n      mstore\n        /* \"#utility.yul\":11070:11074   */\n      0x22\n        /* \"#utility.yul\":11067:11068   */\n      0x04\n        /* \"#utility.yul\":11060:11075   */\n      mstore\n        /* \"#utility.yul\":11094:11098   */\n      0x24\n        /* \"#utility.yul\":11091:11092   */\n      0x00\n        /* \"#utility.yul\":11084:11099   */\n      revert\n        /* \"#utility.yul\":11111:11431   */\n    tag_64:\n        /* \"#utility.yul\":11155:11161   */\n      0x00\n        /* \"#utility.yul\":11192:11193   */\n      0x02\n        /* \"#utility.yul\":11186:11190   */\n      dup3\n        /* \"#utility.yul\":11182:11194   */\n      div\n        /* \"#utility.yul\":11172:11194   */\n      swap1\n      pop\n        /* \"#utility.yul\":11239:11240   */\n      0x01\n        /* \"#utility.yul\":11233:11237   */\n      dup3\n        /* \"#utility.yul\":11229:11241   */\n      and\n        /* \"#utility.yul\":11260:11278   */\n      dup1\n        /* \"#utility.yul\":11250:11331   */\n      tag_267\n      jumpi\n        /* \"#utility.yul\":11316:11320   */\n      0x7f\n        /* \"#utility.yul\":11308:11314   */\n      dup3\n        /* \"#utility.yul\":11304:11321   */\n      and\n        /* \"#utility.yul\":11294:11321   */\n      swap2\n      pop\n        /* \"#utility.yul\":11250:11331   */\n    tag_267:\n        /* \"#utility.yul\":11378:11380   */\n      0x20\n        /* \"#utility.yul\":11370:11376   */\n      dup3\n        /* \"#utility.yul\":11367:11381   */\n      lt\n        /* \"#utility.yul\":11347:11365   */\n      dup2\n        /* \"#utility.yul\":11344:11382   */\n      sub\n        /* \"#utility.yul\":11341:11425   */\n      tag_268\n      jumpi\n        /* \"#utility.yul\":11397:11415   */\n      tag_269\n      tag_132\n      jump\t// in\n    tag_269:\n        /* \"#utility.yul\":11341:11425   */\n    tag_268:\n        /* \"#utility.yul\":11162:11431   */\n      pop\n        /* \"#utility.yul\":11111:11431   */\n      swap2\n      swap1\n      pop\n      jump\t// out\n        /* \"#utility.yul\":11437:11673   */\n    tag_133:\n        /* \"#utility.yul\":11577:11611   */\n      0x4f6e6c792074686520656c656374696f6e20636f6d6d697373696f6e2063616e\n        /* \"#utility.yul\":11573:11574   */\n      0x00\n        /* \"#utility.yul\":11565:11571   */\n      dup3\n        /* \"#utility.yul\":11561:11575   */\n      add\n        /* \"#utility.yul\":11554:11612   */\n      mstore\n        /* \"#utility.yul\":11646:11665   */\n      0x20726567697374657220766f746572732e000000000000000000000000000000\n        /* \"#utility.yul\":11641:11643   */\n      0x20\n        /* \"#utility.yul\":11633:11639   */\n      dup3\n        /* \"#utility.yul\":11629:11644   */\n      add\n        /* \"#utility.yul\":11622:11666   */\n      mstore\n        /* \"#utility.yul\":11437:11673   */\n      pop\n      jump\t// out\n        /* \"#utility.yul\":11679:12045   */\n    tag_134:\n        /* \"#utility.yul\":11821:11824   */\n      0x00\n        /* \"#utility.yul\":11842:11909   */\n      tag_272\n        /* \"#utility.yul\":11906:11908   */\n      0x31\n        /* \"#utility.yul\":11901:11904   */\n      dup4\n        /* \"#utility.yul\":11842:11909   */\n      tag_105\n      jump\t// in\n    tag_272:\n        /* \"#utility.yul\":11835:11909   */\n      swap2\n      pop\n        /* \"#utility.yul\":11918:12011   */\n      tag_273\n        /* \"#utility.yul\":12007:12010   */\n      dup3\n        /* \"#utility.yul\":11918:12011   */\n      tag_133\n      jump\t// in\n    tag_273:\n        /* \"#utility.yul\":12036:12038   */\n      0x40\n        /* \"#utility.yul\":12031:12034   */\n      dup3\n        /* \"#utility.yul\":12027:12039   */\n      add\n        /* \"#utility.yul\":12020:12039   */\n      swap1\n      pop\n        /* \"#utility.yul\":11679:12045   */\n      swap2\n      swap1\n      pop\n      jump\t// out\n        /* \"#utility.yul\":12051:12470   */\n    tag_72:\n        /* \"#utility.yul\":12217:12221   */\n      0x00\n        /* \"#utility.yul\":12255:12257   */\n      0x20\n        /* \"#utility.yul\":12244:12253   */\n      dup3\n        /* \"#utility.yul\":12240:12258   */\n      add\n        /* \"#utility.yul\":12232:12258   */\n      swap1\n      pop\n        /* \"#utility.yul\":12304:12313   */\n      dup2\n        /* \"#utility.yul\":12298:12302   */\n      dup2\n        /* \"#utility.yul\":12294:12314   */\n      sub\n        /* \"#utility.yul\":12290:12291   */\n      0x00\n        /* \"#utility.yul\":12279:12288   */\n      dup4\n        /* \"#utility.yul\":12275:12292   */\n      add\n        /* \"#utility.yul\":12268:12315   */\n      mstore\n        /* \"#utility.yul\":12332:12463   */\n      tag_275\n        /* \"#utility.yul\":12458:12462   */\n      dup2\n        /* \"#utility.yul\":12332:12463   */\n      tag_134\n      jump\t// in\n    tag_275:\n        /* \"#utility.yul\":12324:12463   */\n      swap1\n      pop\n        /* \"#utility.yul\":12051:12470   */\n      swap2\n      swap1\n      pop\n      jump\t// out\n        /* \"#utility.yul\":12476:12654   */\n    tag_135:\n        /* \"#utility.yul\":12616:12646   */\n      0x566f74657220697320616c726561647920726567697374657265642e00000000\n        /* \"#utility.yul\":12612:12613   */\n      0x00\n        /* \"#utility.yul\":12604:12610   */\n      dup3\n        /* \"#utility.yul\":12600:12614   */\n      add\n        /* \"#utility.yul\":12593:12647   */\n      mstore\n        /* \"#utility.yul\":12476:12654   */\n      pop\n      jump\t// out\n        /* \"#utility.yul\":12660:13026   */\n    tag_136:\n        /* \"#utility.yul\":12802:12805   */\n      0x00\n        /* \"#utility.yul\":12823:12890   */\n      tag_278\n        /* \"#utility.yul\":12887:12889   */\n      0x1c\n        /* \"#utility.yul\":12882:12885   */\n      dup4\n        /* \"#utility.yul\":12823:12890   */\n      tag_105\n      jump\t// in\n    tag_278:\n        /* \"#utility.yul\":12816:12890   */\n      swap2\n      pop\n        /* \"#utility.yul\":12899:12992   */\n      tag_279\n        /* \"#utility.yul\":12988:12991   */\n      dup3\n        /* \"#utility.yul\":12899:12992   */\n      tag_135\n      jump\t// in\n    tag_279:\n        /* \"#utility.yul\":13017:13019   */\n      0x20\n        /* \"#utility.yul\":13012:13015   */\n      dup3\n        /* \"#utility.yul\":13008:13020   */\n      add\n        /* \"#utility.yul\":13001:13020   */\n      swap1\n      pop\n        /* \"#utility.yul\":12660:13026   */\n      swap2\n      swap1\n      pop\n      jump\t// out\n        /* \"#utility.yul\":13032:13451   */\n    tag_75:\n        /* \"#utility.yul\":13198:13202   */\n      0x00\n        /* \"#utility.yul\":13236:13238   */\n      0x20\n        /* \"#utility.yul\":13225:13234   */\n      dup3\n        /* \"#utility.yul\":13221:13239   */\n      add\n        /* \"#utility.yul\":13213:13239   */\n      swap1\n      pop\n        /* \"#utility.yul\":13285:13294   */\n      dup2\n        /* \"#utility.yul\":13279:13283   */\n      dup2\n        /* \"#utility.yul\":13275:13295   */\n      sub\n        /* \"#utility.yul\":13271:13272   */\n      0x00\n        /* \"#utility.yul\":13260:13269   */\n      dup4\n        /* \"#utility.yul\":13256:13273   */\n      add\n        /* \"#utility.yul\":13249:13296   */\n      mstore\n        /* \"#utility.yul\":13313:13444   */\n      tag_281\n        /* \"#utility.yul\":13439:13443   */\n      dup2\n        /* \"#utility.yul\":13313:13444   */\n      tag_136\n      jump\t// in\n    tag_281:\n        /* \"#utility.yul\":13305:13444   */\n      swap1\n      pop\n        /* \"#utility.yul\":13032:13451   */\n      swap2\n      swap1\n      pop\n      jump\t// out\n        /* \"#utility.yul\":13457:13692   */\n    tag_137:\n        /* \"#utility.yul\":13597:13631   */\n      0x4f6e6c792074686520656c656374696f6e20636f6d6d697373696f6e2063616e\n        /* \"#utility.yul\":13593:13594   */\n      0x00\n        /* \"#utility.yul\":13585:13591   */\n      dup3\n        /* \"#utility.yul\":13581:13595   */\n      add\n        /* \"#utility.yul\":13574:13632   */\n      mstore\n        /* \"#utility.yul\":13666:13684   */\n      0x206164642063616e646964617465732e00000000000000000000000000000000\n        /* \"#utility.yul\":13661:13663   */\n      0x20\n        /* \"#utility.yul\":13653:13659   */\n      dup3\n        /* \"#utility.yul\":13649:13664   */\n      add\n        /* \"#utility.yul\":13642:13685   */\n      mstore\n        /* \"#utility.yul\":13457:13692   */\n      pop\n      jump\t// out\n        /* \"#utility.yul\":13698:14064   */\n    tag_138:\n        /* \"#utility.yul\":13840:13843   */\n      0x00\n        /* \"#utility.yul\":13861:13928   */\n      tag_284\n        /* \"#utility.yul\":13925:13927   */\n      0x30\n        /* \"#utility.yul\":13920:13923   */\n      dup4\n        /* \"#utility.yul\":13861:13928   */\n      tag_105\n      jump\t// in\n    tag_284:\n        /* \"#utility.yul\":13854:13928   */\n      swap2\n      pop\n        /* \"#utility.yul\":13937:14030   */\n      tag_285\n        /* \"#utility.yul\":14026:14029   */\n      dup3\n        /* \"#utility.yul\":13937:14030   */\n      tag_137\n      jump\t// in\n    tag_285:\n        /* \"#utility.yul\":14055:14057   */\n      0x40\n        /* \"#utility.yul\":14050:14053   */\n      dup3\n        /* \"#utility.yul\":14046:14058   */\n      add\n        /* \"#utility.yul\":14039:14058   */\n      swap1\n      pop\n        /* \"#utility.yul\":13698:14064   */\n      swap2\n      swap1\n      pop\n      jump\t// out\n        /* \"#utility.yul\":14070:14489   */\n    tag_79:\n        /* \"#utility.yul\":14236:14240   */\n      0x00\n        /* \"#utility.yul\":14274:14276   */\n      0x20\n        /* \"#utility.yul\":14263:14272   */\n      dup3\n        /* \"#utility.yul\":14259:14277   */\n      add\n        /* \"#utility.yul\":14251:14277   */\n      swap1\n      pop\n        /* \"#utility.yul\":14323:14332   */\n      dup2\n        /* \"#utility.yul\":14317:14321   */\n      dup2\n        /* \"#utility.yul\":14313:14333   */\n      sub\n        /* \"#utility.yul\":14309:14310   */\n      0x00\n        /* \"#utility.yul\":14298:14307   */\n      dup4\n        /* \"#utility.yul\":14294:14311   */\n      add\n        /* \"#utility.yul\":14287:14334   */\n      mstore\n        /* \"#utility.yul\":14351:14482   */\n      tag_287\n        /* \"#utility.yul\":14477:14481   */\n      dup2\n        /* \"#utility.yul\":14351:14482   */\n      tag_138\n      jump\t// in\n    tag_287:\n        /* \"#utility.yul\":14343:14482   */\n      swap1\n      pop\n        /* \"#utility.yul\":14070:14489   */\n      swap2\n      swap1\n      pop\n      jump\t// out\n        /* \"#utility.yul\":14495:14728   */\n    tag_81:\n        /* \"#utility.yul\":14534:14537   */\n      0x00\n        /* \"#utility.yul\":14557:14581   */\n      tag_289\n        /* \"#utility.yul\":14575:14580   */\n      dup3\n        /* \"#utility.yul\":14557:14581   */\n      tag_100\n      jump\t// in\n    tag_289:\n        /* \"#utility.yul\":14548:14581   */\n      swap2\n      pop\n        /* \"#utility.yul\":14603:14669   */\n      0xffffffffffffffffffffffffffffffffffffffffffffffffffffffffffffffff\n        /* \"#utility.yul\":14596:14601   */\n      dup3\n        /* \"#utility.yul\":14593:14670   */\n      sub\n        /* \"#utility.yul\":14590:14693   */\n      tag_290\n      jumpi\n        /* \"#utility.yul\":14673:14691   */\n      tag_291\n      tag_131\n      jump\t// in\n    tag_291:\n        /* \"#utility.yul\":14590:14693   */\n    tag_290:\n        /* \"#utility.yul\":14720:14721   */\n      0x01\n        /* \"#utility.yul\":14713:14718   */\n      dup3\n        /* \"#utility.yul\":14709:14722   */\n      add\n        /* \"#utility.yul\":14702:14722   */\n      swap1\n      pop\n        /* \"#utility.yul\":14495:14728   */\n      swap2\n      swap1\n      pop\n      jump\t// out\n        /* \"#utility.yul\":14734:14875   */\n    tag_139:\n        /* \"#utility.yul\":14783:14787   */\n      0x00\n        /* \"#utility.yul\":14806:14809   */\n      dup2\n        /* \"#utility.yul\":14798:14809   */\n      swap1\n      pop\n        /* \"#utility.yul\":14829:14832   */\n      dup2\n        /* \"#utility.yul\":14826:14827   */\n      0x00\n        /* \"#utility.yul\":14819:14833   */\n      mstore\n        /* \"#utility.yul\":14863:14867   */\n      0x20\n        /* \"#utility.yul\":14860:14861   */\n      0x00\n        /* \"#utility.yul\":14850:14868   */\n      keccak256\n        /* \"#utility.yul\":14842:14868   */\n      swap1\n      pop\n        /* \"#utility.yul\":14734:14875   */\n      swap2\n      swap1\n      pop\n      jump\t// out\n        /* \"#utility.yul\":14881:14974   */\n    tag_140:\n        /* \"#utility.yul\":14918:14924   */\n      0x00\n        /* \"#utility.yul\":14965:14967   */\n      0x20\n        /* \"#utility.yul\":14960:14962   */\n      0x1f\n        /* \"#utility.yul\":14953:14958   */\n      dup4\n        /* \"#utility.yul\":14949:14963   */\n      add\n        /* \"#utility.yul\":14945:14968   */\n      div\n        /* \"#utility.yul\":14935:14968   */\n      swap1\n      pop\n        /* \"#utility.yul\":14881:14974   */\n      swap2\n      swap1\n      pop\n      jump\t// out\n        /* \"#utility.yul\":14980:15087   */\n    tag_141:\n        /* \"#utility.yul\":15024:15032   */\n      0x00\n        /* \"#utility.yul\":15074:15079   */\n      dup3\n        /* \"#utility.yul\":15068:15072   */\n      dup3\n        /* \"#utility.yul\":15064:15080   */\n      shl\n        /* \"#utility.yul\":15043:15080   */\n      swap1\n      pop\n        /* \"#utility.yul\":14980:15087   */\n      swap3\n      swap2\n      pop\n      pop\n      jump\t// out\n        /* \"#utility.yul\":15093:15486   */\n    tag_142:\n        /* \"#utility.yul\":15162:15168   */\n      0x00\n        /* \"#utility.yul\":15212:15213   */\n      0x08\n        /* \"#utility.yul\":15200:15210   */\n      dup4\n        /* \"#utility.yul\":15196:15214   */\n      mul\n        /* \"#utility.yul\":15235:15332   */\n      tag_296\n        /* \"#utility.yul\":15265:15331   */\n      0xffffffffffffffffffffffffffffffffffffffffffffffffffffffffffffffff\n        /* \"#utility.yul\":15254:15263   */\n      dup3\n        /* \"#utility.yul\":15235:15332   */\n      tag_141\n      jump\t// in\n    tag_296:\n        /* \"#utility.yul\":15353:15392   */\n      tag_297\n        /* \"#utility.yul\":15383:15391   */\n      dup7\n        /* \"#utility.yul\":15372:15381   */\n      dup4\n        /* \"#utility.yul\":15353:15392   */\n      tag_141\n      jump\t// in\n    tag_297:\n        /* \"#utility.yul\":15341:15392   */\n      swap6\n      pop\n        /* \"#utility.yul\":15425:15429   */\n      dup1\n        /* \"#utility.yul\":15421:15430   */\n      not\n        /* \"#utility.yul\":15414:15419   */\n      dup5\n        /* \"#utility.yul\":15410:15431   */\n      and\n        /* \"#utility.yul\":15401:15431   */\n      swap4\n      pop\n        /* \"#utility.yul\":15474:15478   */\n      dup1\n        /* \"#utility.yul\":15464:15472   */\n      dup7\n        /* \"#utility.yul\":15460:15479   */\n      and\n        /* \"#utility.yul\":15453:15458   */\n      dup5\n        /* \"#utility.yul\":15450:15480   */\n      or\n        /* \"#utility.yul\":15440:15480   */\n      swap3\n      pop\n        /* \"#utility.yul\":15169:15486   */\n      pop\n      pop\n        /* \"#utility.yul\":15093:15486   */\n      swap4\n      swap3\n      pop\n      pop\n      pop\n      jump\t// out\n        /* \"#utility.yul\":15492:15552   */\n    tag_143:\n        /* \"#utility.yul\":15520:15523   */\n      0x00\n        /* \"#utility.yul\":15541:15546   */\n      dup2\n        /* \"#utility.yul\":15534:15546   */\n      swap1\n      pop\n        /* \"#utility.yul\":15492:15552   */\n      swap2\n      swap1\n      pop\n      jump\t// out\n        /* \"#utility.yul\":15558:15700   */\n    tag_144:\n        /* \"#utility.yul\":15608:15617   */\n      0x00\n        /* \"#utility.yul\":15641:15694   */\n      tag_300\n        /* \"#utility.yul\":15659:15693   */\n      tag_301\n        /* \"#utility.yul\":15668:15692   */\n      tag_302\n        /* \"#utility.yul\":15686:15691   */\n      dup5\n        /* \"#utility.yul\":15668:15692   */\n      tag_100\n      jump\t// in\n    tag_302:\n        /* \"#utility.yul\":15659:15693   */\n      tag_143\n      jump\t// in\n    tag_301:\n        /* \"#utility.yul\":15641:15694   */\n      tag_100\n      jump\t// in\n    tag_300:\n        /* \"#utility.yul\":15628:15694   */\n      swap1\n      pop\n        /* \"#utility.yul\":15558:15700   */\n      swap2\n      swap1\n      pop\n      jump\t// out\n        /* \"#utility.yul\":15706:15781   */\n    tag_145:\n        /* \"#utility.yul\":15749:15752   */\n      0x00\n        /* \"#utility.yul\":15770:15775   */\n      dup2\n        /* \"#utility.yul\":15763:15775   */\n      swap1\n      pop\n        /* \"#utility.yul\":15706:15781   */\n      swap2\n      swap1\n      pop\n      jump\t// out\n        /* \"#utility.yul\":15787:16056   */\n    tag_146:\n        /* \"#utility.yul\":15897:15936   */\n      tag_305\n        /* \"#utility.yul\":15928:15935   */\n      dup4\n        /* \"#utility.yul\":15897:15936   */\n      tag_144\n      jump\t// in\n    tag_305:\n        /* \"#utility.yul\":15958:16049   */\n      tag_306\n        /* \"#utility.yul\":16007:16048   */\n      tag_307\n        /* \"#utility.yul\":16031:16047   */\n      dup3\n        /* \"#utility.yul\":16007:16048   */\n      tag_145\n      jump\t// in\n    tag_307:\n        /* \"#utility.yul\":15999:16005   */\n      dup5\n        /* \"#utility.yul\":15992:15996   */\n      dup5\n        /* \"#utility.yul\":15986:15997   */\n      sload\n        /* \"#utility.yul\":15958:16049   */\n      tag_142\n      jump\t// in\n    tag_306:\n        /* \"#utility.yul\":15952:15956   */\n      dup3\n        /* \"#utility.yul\":15945:16050   */\n      sstore\n        /* \"#utility.yul\":15863:16056   */\n      pop\n        /* \"#utility.yul\":15787:16056   */\n      pop\n      pop\n      pop\n      jump\t// out\n        /* \"#utility.yul\":16062:16135   */\n    tag_147:\n        /* \"#utility.yul\":16107:16110   */\n      0x00\n        /* \"#utility.yul\":16062:16135   */\n      swap1\n      jump\t// out\n        /* \"#utility.yul\":16141:16330   */\n    tag_148:\n        /* \"#utility.yul\":16218:16250   */\n      tag_310\n      tag_147\n      jump\t// in\n    tag_310:\n        /* \"#utility.yul\":16259:16324   */\n      tag_311\n        /* \"#utility.yul\":16317:16323   */\n      dup2\n        /* \"#utility.yul\":16309:16315   */\n      dup5\n        /* \"#utility.yul\":16303:16307   */\n      dup5\n        /* \"#utility.yul\":16259:16324   */\n      tag_146\n      jump\t// in\n    tag_311:\n        /* \"#utility.yul\":16194:16330   */\n      pop\n        /* \"#utility.yul\":16141:16330   */\n      pop\n      pop\n      jump\t// out\n        /* \"#utility.yul\":16336:16522   */\n    tag_149:\n        /* \"#utility.yul\":16396:16516   */\n    tag_313:\n        /* \"#utility.yul\":16413:16416   */\n      dup2\n        /* \"#utility.yul\":16406:16411   */\n      dup2\n        /* \"#utility.yul\":16403:16417   */\n      lt\n        /* \"#utility.yul\":16396:16516   */\n      iszero\n      tag_315\n      jumpi\n        /* \"#utility.yul\":16467:16506   */\n      tag_316\n        /* \"#utility.yul\":16504:16505   */\n      0x00\n        /* \"#utility.yul\":16497:16502   */\n      dup3\n        /* \"#utility.yul\":16467:16506   */\n      tag_148\n      jump\t// in\n    tag_316:\n        /* \"#utility.yul\":16440:16441   */\n      0x01\n        /* \"#utility.yul\":16433:16438   */\n      dup2\n        /* \"#utility.yul\":16429:16442   */\n      add\n        /* \"#utility.yul\":16420:16442   */\n      swap1\n      pop\n        /* \"#utility.yul\":16396:16516   */\n      jump(tag_313)\n    tag_315:\n        /* \"#utility.yul\":16336:16522   */\n      pop\n      pop\n      jump\t// out\n        /* \"#utility.yul\":16528:17071   */\n    tag_150:\n        /* \"#utility.yul\":16629:16631   */\n      0x1f\n        /* \"#utility.yul\":16624:16627   */\n      dup3\n        /* \"#utility.yul\":16621:16632   */\n      gt\n        /* \"#utility.yul\":16618:17064   */\n      iszero\n      tag_318\n      jumpi\n        /* \"#utility.yul\":16663:16701   */\n      tag_319\n        /* \"#utility.yul\":16695:16700   */\n      dup2\n        /* \"#utility.yul\":16663:16701   */\n      tag_139\n      jump\t// in\n    tag_319:\n        /* \"#utility.yul\":16747:16776   */\n      tag_320\n        /* \"#utility.yul\":16765:16775   */\n      dup5\n        /* \"#utility.yul\":16747:16776   */\n      tag_140\n      jump\t// in\n    tag_320:\n        /* \"#utility.yul\":16737:16745   */\n      dup2\n        /* \"#utility.yul\":16733:16777   */\n      add\n        /* \"#utility.yul\":16930:16932   */\n      0x20\n        /* \"#utility.yul\":16918:16928   */\n      dup6\n        /* \"#utility.yul\":16915:16933   */\n      lt\n        /* \"#utility.yul\":16912:16961   */\n      iszero\n      tag_321\n      jumpi\n        /* \"#utility.yul\":16951:16959   */\n      dup2\n        /* \"#utility.yul\":16936:16959   */\n      swap1\n      pop\n        /* \"#utility.yul\":16912:16961   */\n    tag_321:\n        /* \"#utility.yul\":16974:17054   */\n      tag_322\n        /* \"#utility.yul\":17030:17052   */\n      tag_323\n        /* \"#utility.yul\":17048:17051   */\n      dup6\n        /* \"#utility.yul\":17030:17052   */\n      tag_140\n      jump\t// in\n    tag_323:\n        /* \"#utility.yul\":17020:17028   */\n      dup4\n        /* \"#utility.yul\":17016:17053   */\n      add\n        /* \"#utility.yul\":17003:17014   */\n      dup3\n        /* \"#utility.yul\":16974:17054   */\n      tag_149\n      jump\t// in\n    tag_322:\n        /* \"#utility.yul\":16633:17064   */\n      pop\n      pop\n        /* \"#utility.yul\":16618:17064   */\n    tag_318:\n        /* \"#utility.yul\":16528:17071   */\n      pop\n      pop\n      pop\n      jump\t// out\n        /* \"#utility.yul\":17077:17194   */\n    tag_151:\n        /* \"#utility.yul\":17131:17139   */\n      0x00\n        /* \"#utility.yul\":17181:17186   */\n      dup3\n        /* \"#utility.yul\":17175:17179   */\n      dup3\n        /* \"#utility.yul\":17171:17187   */\n      shr\n        /* \"#utility.yul\":17150:17187   */\n      swap1\n      pop\n        /* \"#utility.yul\":17077:17194   */\n      swap3\n      swap2\n      pop\n      pop\n      jump\t// out\n        /* \"#utility.yul\":17200:17369   */\n    tag_152:\n        /* \"#utility.yul\":17244:17250   */\n      0x00\n        /* \"#utility.yul\":17277:17328   */\n      tag_326\n        /* \"#utility.yul\":17325:17326   */\n      0x00\n        /* \"#utility.yul\":17321:17327   */\n      not\n        /* \"#utility.yul\":17313:17318   */\n      dup5\n        /* \"#utility.yul\":17310:17311   */\n      0x08\n        /* \"#utility.yul\":17306:17319   */\n      mul\n        /* \"#utility.yul\":17277:17328   */\n      tag_151\n      jump\t// in\n    tag_326:\n        /* \"#utility.yul\":17273:17329   */\n      not\n        /* \"#utility.yul\":17358:17362   */\n      dup1\n        /* \"#utility.yul\":17352:17356   */\n      dup4\n        /* \"#utility.yul\":17348:17363   */\n      and\n        /* \"#utility.yul\":17338:17363   */\n      swap2\n      pop\n        /* \"#utility.yul\":17251:17369   */\n      pop\n        /* \"#utility.yul\":17200:17369   */\n      swap3\n      swap2\n      pop\n      pop\n      jump\t// out\n        /* \"#utility.yul\":17374:17669   */\n    tag_153:\n        /* \"#utility.yul\":17450:17454   */\n      0x00\n        /* \"#utility.yul\":17596:17625   */\n      tag_328\n        /* \"#utility.yul\":17621:17624   */\n      dup4\n        /* \"#utility.yul\":17615:17619   */\n      dup4\n        /* \"#utility.yul\":17596:17625   */\n      tag_152\n      jump\t// in\n    tag_328:\n        /* \"#utility.yul\":17588:17625   */\n      swap2\n      pop\n        /* \"#utility.yul\":17658:17661   */\n      dup3\n        /* \"#utility.yul\":17655:17656   */\n      0x02\n        /* \"#utility.yul\":17651:17662   */\n      mul\n        /* \"#utility.yul\":17645:17649   */\n      dup3\n        /* \"#utility.yul\":17642:17663   */\n      or\n        /* \"#utility.yul\":17634:17663   */\n      swap1\n      pop\n        /* \"#utility.yul\":17374:17669   */\n      swap3\n      swap2\n      pop\n      pop\n      jump\t// out\n        /* \"#utility.yul\":17674:19069   */\n    tag_83:\n        /* \"#utility.yul\":17791:17828   */\n      tag_330\n        /* \"#utility.yul\":17824:17827   */\n      dup3\n        /* \"#utility.yul\":17791:17828   */\n      tag_104\n      jump\t// in\n    tag_330:\n        /* \"#utility.yul\":17893:17911   */\n      0xffffffffffffffff\n        /* \"#utility.yul\":17885:17891   */\n      dup2\n        /* \"#utility.yul\":17882:17912   */\n      gt\n        /* \"#utility.yul\":17879:17935   */\n      iszero\n      tag_331\n      jumpi\n        /* \"#utility.yul\":17915:17933   */\n      tag_332\n      tag_115\n      jump\t// in\n    tag_332:\n        /* \"#utility.yul\":17879:17935   */\n    tag_331:\n        /* \"#utility.yul\":17959:17997   */\n      tag_333\n        /* \"#utility.yul\":17991:17995   */\n      dup3\n        /* \"#utility.yul\":17985:17996   */\n      sload\n        /* \"#utility.yul\":17959:17997   */\n      tag_64\n      jump\t// in\n    tag_333:\n        /* \"#utility.yul\":18044:18111   */\n      tag_334\n        /* \"#utility.yul\":18104:18110   */\n      dup3\n        /* \"#utility.yul\":18096:18102   */\n      dup3\n        /* \"#utility.yul\":18090:18094   */\n      dup6\n        /* \"#utility.yul\":18044:18111   */\n      tag_150\n      jump\t// in\n    tag_334:\n        /* \"#utility.yul\":18138:18139   */\n      0x00\n        /* \"#utility.yul\":18162:18166   */\n      0x20\n        /* \"#utility.yul\":18149:18166   */\n      swap1\n      pop\n        /* \"#utility.yul\":18194:18196   */\n      0x1f\n        /* \"#utility.yul\":18186:18192   */\n      dup4\n        /* \"#utility.yul\":18183:18197   */\n      gt\n        /* \"#utility.yul\":18211:18212   */\n      0x01\n        /* \"#utility.yul\":18206:18824   */\n      dup2\n      eq\n      tag_336\n      jumpi\n        /* \"#utility.yul\":18868:18869   */\n      0x00\n        /* \"#utility.yul\":18885:18891   */\n      dup5\n        /* \"#utility.yul\":18882:18959   */\n      iszero\n      tag_337\n      jumpi\n        /* \"#utility.yul\":18934:18943   */\n      dup3\n        /* \"#utility.yul\":18929:18932   */\n      dup8\n        /* \"#utility.yul\":18925:18944   */\n      add\n        /* \"#utility.yul\":18919:18945   */\n      mload\n        /* \"#utility.yul\":18910:18945   */\n      swap1\n      pop\n        /* \"#utility.yul\":18882:18959   */\n    tag_337:\n        /* \"#utility.yul\":18985:19052   */\n      tag_338\n        /* \"#utility.yul\":19045:19051   */\n      dup6\n        /* \"#utility.yul\":19038:19043   */\n      dup3\n        /* \"#utility.yul\":18985:19052   */\n      tag_153\n      jump\t// in\n    tag_338:\n        /* \"#utility.yul\":18979:18983   */\n      dup7\n        /* \"#utility.yul\":18972:19053   */\n      sstore\n        /* \"#utility.yul\":18841:19063   */\n      pop\n        /* \"#utility.yul\":18176:19063   */\n      jump(tag_335)\n        /* \"#utility.yul\":18206:18824   */\n    tag_336:\n        /* \"#utility.yul\":18258:18262   */\n      0x1f\n        /* \"#utility.yul\":18254:18263   */\n      not\n        /* \"#utility.yul\":18246:18252   */\n      dup5\n        /* \"#utility.yul\":18242:18264   */\n      and\n        /* \"#utility.yul\":18292:18329   */\n      tag_339\n        /* \"#utility.yul\":18324:18328   */\n      dup7\n        /* \"#utility.yul\":18292:18329   */\n      tag_139\n      jump\t// in\n    tag_339:\n        /* \"#utility.yul\":18351:18352   */\n      0x00\n        /* \"#utility.yul\":18365:18573   */\n    tag_340:\n        /* \"#utility.yul\":18379:18386   */\n      dup3\n        /* \"#utility.yul\":18376:18377   */\n      dup2\n        /* \"#utility.yul\":18373:18387   */\n      lt\n        /* \"#utility.yul\":18365:18573   */\n      iszero\n      tag_342\n      jumpi\n        /* \"#utility.yul\":18458:18467   */\n      dup5\n        /* \"#utility.yul\":18453:18456   */\n      dup10\n        /* \"#utility.yul\":18449:18468   */\n      add\n        /* \"#utility.yul\":18443:18469   */\n      mload\n        /* \"#utility.yul\":18435:18441   */\n      dup3\n        /* \"#utility.yul\":18428:18470   */\n      sstore\n        /* \"#utility.yul\":18509:18510   */\n      0x01\n        /* \"#utility.yul\":18501:18507   */\n      dup3\n        /* \"#utility.yul\":18497:18511   */\n      add\n        /* \"#utility.yul\":18487:18511   */\n      swap2\n      pop\n        /* \"#utility.yul\":18556:18558   */\n      0x20\n        /* \"#utility.yul\":18545:18554   */\n      dup6\n        /* \"#utility.yul\":18541:18559   */\n      add\n        /* \"#utility.yul\":18528:18559   */\n      swap5\n      pop\n        /* \"#utility.yul\":18402:18406   */\n      0x20\n        /* \"#utility.yul\":18399:18400   */\n      dup2\n        /* \"#utility.yul\":18395:18407   */\n      add\n        /* \"#utility.yul\":18390:18407   */\n      swap1\n      pop\n        /* \"#utility.yul\":18365:18573   */\n      jump(tag_340)\n    tag_342:\n        /* \"#utility.yul\":18601:18607   */\n      dup7\n        /* \"#utility.yul\":18592:18599   */\n      dup4\n        /* \"#utility.yul\":18589:18608   */\n      lt\n        /* \"#utility.yul\":18586:18765   */\n      iszero\n      tag_343\n      jumpi\n        /* \"#utility.yul\":18659:18668   */\n      dup5\n        /* \"#utility.yul\":18654:18657   */\n      dup10\n        /* \"#utility.yul\":18650:18669   */\n      add\n        /* \"#utility.yul\":18644:18670   */\n      mload\n        /* \"#utility.yul\":18702:18750   */\n      tag_344\n        /* \"#utility.yul\":18744:18748   */\n      0x1f\n        /* \"#utility.yul\":18736:18742   */\n      dup10\n        /* \"#utility.yul\":18732:18749   */\n      and\n        /* \"#utility.yul\":18721:18730   */\n      dup3\n        /* \"#utility.yul\":18702:18750   */\n      tag_152\n      jump\t// in\n    tag_344:\n        /* \"#utility.yul\":18694:18700   */\n      dup4\n        /* \"#utility.yul\":18687:18751   */\n      sstore\n        /* \"#utility.yul\":18609:18765   */\n      pop\n        /* \"#utility.yul\":18586:18765   */\n    tag_343:\n        /* \"#utility.yul\":18811:18812   */\n      0x01\n        /* \"#utility.yul\":18807:18808   */\n      0x02\n        /* \"#utility.yul\":18799:18805   */\n      dup9\n        /* \"#utility.yul\":18795:18809   */\n      mul\n        /* \"#utility.yul\":18791:18813   */\n      add\n        /* \"#utility.yul\":18785:18789   */\n      dup9\n        /* \"#utility.yul\":18778:18814   */\n      sstore\n        /* \"#utility.yul\":18213:18824   */\n      pop\n      pop\n      pop\n        /* \"#utility.yul\":18176:19063   */\n    tag_335:\n      pop\n        /* \"#utility.yul\":17766:19069   */\n      pop\n      pop\n      pop\n        /* \"#utility.yul\":17674:19069   */\n      pop\n      pop\n      jump\t// out\n\n    auxdata: 0xa264697066735822122033c4179e453929c033d98641093de9fa0686c8b617e02bb4fe2afd545a2e672064736f6c634300081a0033\n}\n",
				"bytecode": {
					"linkReferences": {},
					"object": "6080604052348015600e575f80fd5b50335f806101000a81548173ffffffffffffffffffffffffffffffffffffffff021916908373ffffffffffffffffffffffffffffffffffffffff1602179055506001805f805f9054906101000a900473ffffffffffffffffffffffffffffffffffffffff1673ffffffffffffffffffffffffffffffffffffffff1673ffffffffffffffffffffffffffffffffffffffff1681526020019081526020015f205f015f6101000a81548160ff021916908315150217905550611228806100d15f395ff3fe608060405234801561000f575f80fd5b5060043610610091575f3560e01c8063462e91ec11610064578063462e91ec1461011d578063a3ec138d14610139578063aab46b7f1461016b578063d28178d714610189578063e2ba53f0146101a757610091565b80630121b93f146100955780632d35a8a2146100b15780633477ee2e146100cf57806338db6dd314610101575b5f80fd5b6100af60048036038101906100aa9190610838565b6101c5565b005b6100b9610349565b6040516100c69190610872565b60405180910390f35b6100e960048036038101906100e49190610838565b61034f565b6040516100f8939291906108fb565b60405180910390f35b61011b60048036038101906101169190610991565b6103fb565b005b61013760048036038101906101329190610ae8565b61056d565b005b610153600480360381019061014e9190610991565b61066f565b60405161016293929190610b49565b60405180910390f35b6101736106ad565b6040516101809190610b8d565b60405180910390f35b6101916106d0565b60405161019e9190610872565b60405180910390f35b6101af610746565b6040516101bc9190610ba6565b60405180910390f35b5f60015f3373ffffffffffffffffffffffffffffffffffffffff1673ffffffffffffffffffffffffffffffffffffffff1681526020019081526020015f209050805f015f9054906101000a900460ff16610254576040517f08c379a000000000000000000000000000000000000000000000000000000000815260040161024b90610c10565b60405180910390fd5b805f0160019054906101000a900460ff16156102a5576040517f08c379a000000000000000000000000000000000000000000000000000000000815260040161029c90610c78565b60405180910390fd5b5f821180156102b657506003548211155b6102f5576040517f08c379a00000000000000000000000000000000000000000000000000000000081526004016102ec90610ce0565b60405180910390fd5b6001815f0160016101000a81548160ff021916908315150217905550818160010181905550600160025f8481526020019081526020015f206002015f82825461033e9190610d2b565b925050819055505050565b60035481565b6002602052805f5260405f205f91509050805f01549080600101805461037490610d8b565b80601f01602080910402602001604051908101604052809291908181526020018280546103a090610d8b565b80156103eb5780601f106103c2576101008083540402835291602001916103eb565b820191905f5260205f20905b8154815290600101906020018083116103ce57829003601f168201915b5050505050908060020154905083565b5f8054906101000a900473ffffffffffffffffffffffffffffffffffffffff1673ffffffffffffffffffffffffffffffffffffffff163373ffffffffffffffffffffffffffffffffffffffff1614610488576040517f08c379a000000000000000000000000000000000000000000000000000000000815260040161047f90610e2b565b60405180910390fd5b60015f8273ffffffffffffffffffffffffffffffffffffffff1673ffffffffffffffffffffffffffffffffffffffff1681526020019081526020015f205f015f9054906101000a900460ff1615610514576040517f08c379a000000000000000000000000000000000000000000000000000000000815260040161050b90610e93565b60405180910390fd5b6001805f8373ffffffffffffffffffffffffffffffffffffffff1673ffffffffffffffffffffffffffffffffffffffff1681526020019081526020015f205f015f6101000a81548160ff02191690831515021790555050565b5f8054906101000a900473ffffffffffffffffffffffffffffffffffffffff1673ffffffffffffffffffffffffffffffffffffffff163373ffffffffffffffffffffffffffffffffffffffff16146105fa576040517f08c379a00000000000000000000000000000000000000000000000000000000081526004016105f190610f21565b60405180910390fd5b60035f81548092919061060c90610f3f565b9190505550604051806060016040528060035481526020018281526020015f81525060025f60035481526020019081526020015f205f820151815f0155602082015181600101908161065e9190611123565b506040820151816002015590505050565b6001602052805f5260405f205f91509050805f015f9054906101000a900460ff1690805f0160019054906101000a900460ff16908060010154905083565b5f8054906101000a900473ffffffffffffffffffffffffffffffffffffffff1681565b5f805f90505f600190505b6003548111610741578160025f8381526020019081526020015f2060020154111561072e5760025f8281526020019081526020015f2060020154915060025f8281526020019081526020015f205f015492505b808061073990610f3f565b9150506106db565b505090565b60605f6107516106d0565b905060025f8281526020019081526020015f20600101805461077290610d8b565b80601f016020809104026020016040519081016040528092919081815260200182805461079e90610d8b565b80156107e95780601f106107c0576101008083540402835291602001916107e9565b820191905f5260205f20905b8154815290600101906020018083116107cc57829003601f168201915b505050505091505090565b5f604051905090565b5f80fd5b5f80fd5b5f819050919050565b61081781610805565b8114610821575f80fd5b50565b5f813590506108328161080e565b92915050565b5f6020828403121561084d5761084c6107fd565b5b5f61085a84828501610824565b91505092915050565b61086c81610805565b82525050565b5f6020820190506108855f830184610863565b92915050565b5f81519050919050565b5f82825260208201905092915050565b8281835e5f83830152505050565b5f601f19601f8301169050919050565b5f6108cd8261088b565b6108d78185610895565b93506108e78185602086016108a5565b6108f0816108b3565b840191505092915050565b5f60608201905061090e5f830186610863565b818103602083015261092081856108c3565b905061092f6040830184610863565b949350505050565b5f73ffffffffffffffffffffffffffffffffffffffff82169050919050565b5f61096082610937565b9050919050565b61097081610956565b811461097a575f80fd5b50565b5f8135905061098b81610967565b92915050565b5f602082840312156109a6576109a56107fd565b5b5f6109b38482850161097d565b91505092915050565b5f80fd5b5f80fd5b7f4e487b71000000000000000000000000000000000000000000000000000000005f52604160045260245ffd5b6109fa826108b3565b810181811067ffffffffffffffff82111715610a1957610a186109c4565b5b80604052505050565b5f610a2b6107f4565b9050610a3782826109f1565b919050565b5f67ffffffffffffffff821115610a5657610a556109c4565b5b610a5f826108b3565b9050602081019050919050565b828183375f83830152505050565b5f610a8c610a8784610a3c565b610a22565b905082815260208101848484011115610aa857610aa76109c0565b5b610ab3848285610a6c565b509392505050565b5f82601f830112610acf57610ace6109bc565b5b8135610adf848260208601610a7a565b91505092915050565b5f60208284031215610afd57610afc6107fd565b5b5f82013567ffffffffffffffff811115610b1a57610b19610801565b5b610b2684828501610abb565b91505092915050565b5f8115159050919050565b610b4381610b2f565b82525050565b5f606082019050610b5c5f830186610b3a565b610b696020830185610b3a565b610b766040830184610863565b949350505050565b610b8781610956565b82525050565b5f602082019050610ba05f830184610b7e565b92915050565b5f6020820190508181035f830152610bbe81846108c3565b905092915050565b7f596f75206d7573742062652061207265676973746572656420766f7465722e005f82015250565b5f610bfa601f83610895565b9150610c0582610bc6565b602082019050919050565b5f6020820190508181035f830152610c2781610bee565b9050919050565b7f596f75206861766520616c726561647920766f7465642e0000000000000000005f82015250565b5f610c62601783610895565b9150610c6d82610c2e565b602082019050919050565b5f6020820190508181035f830152610c8f81610c56565b9050919050565b7f496e76616c69642063616e6469646174652049442e00000000000000000000005f82015250565b5f610cca601583610895565b9150610cd582610c96565b602082019050919050565b5f6020820190508181035f830152610cf781610cbe565b9050919050565b7f4e487b71000000000000000000000000000000000000000000000000000000005f52601160045260245ffd5b5f610d3582610805565b9150610d4083610805565b9250828201905080821115610d5857610d57610cfe565b5b92915050565b7f4e487b71000000000000000000000000000000000000000000000000000000005f52602260045260245ffd5b5f6002820490506001821680610da257607f821691505b602082108103610db557610db4610d5e565b5b50919050565b7f4f6e6c792074686520656c656374696f6e20636f6d6d697373696f6e2063616e5f8201527f20726567697374657220766f746572732e000000000000000000000000000000602082015250565b5f610e15603183610895565b9150610e2082610dbb565b604082019050919050565b5f6020820190508181035f830152610e4281610e09565b9050919050565b7f566f74657220697320616c726561647920726567697374657265642e000000005f82015250565b5f610e7d601c83610895565b9150610e8882610e49565b602082019050919050565b5f6020820190508181035f830152610eaa81610e71565b9050919050565b7f4f6e6c792074686520656c656374696f6e20636f6d6d697373696f6e2063616e5f8201527f206164642063616e646964617465732e00000000000000000000000000000000602082015250565b5f610f0b603083610895565b9150610f1682610eb1565b604082019050919050565b5f6020820190508181035f830152610f3881610eff565b9050919050565b5f610f4982610805565b91507fffffffffffffffffffffffffffffffffffffffffffffffffffffffffffffffff8203610f7b57610f7a610cfe565b5b600182019050919050565b5f819050815f5260205f209050919050565b5f6020601f8301049050919050565b5f82821b905092915050565b5f60088302610fe27fffffffffffffffffffffffffffffffffffffffffffffffffffffffffffffffff82610fa7565b610fec8683610fa7565b95508019841693508086168417925050509392505050565b5f819050919050565b5f61102761102261101d84610805565b611004565b610805565b9050919050565b5f819050919050565b6110408361100d565b61105461104c8261102e565b848454610fb3565b825550505050565b5f90565b61106861105c565b611073818484611037565b505050565b5b818110156110965761108b5f82611060565b600181019050611079565b5050565b601f8211156110db576110ac81610f86565b6110b584610f98565b810160208510156110c4578190505b6110d86110d085610f98565b830182611078565b50505b505050565b5f82821c905092915050565b5f6110fb5f19846008026110e0565b1980831691505092915050565b5f61111383836110ec565b9150826002028217905092915050565b61112c8261088b565b67ffffffffffffffff811115611145576111446109c4565b5b61114f8254610d8b565b61115a82828561109a565b5f60209050601f83116001811461118b575f8415611179578287015190505b6111838582611108565b8655506111ea565b601f19841661119986610f86565b5f5b828110156111c05784890151825560018201915060208501945060208101905061119b565b868310156111dd57848901516111d9601f8916826110ec565b8355505b6001600288020188555050505b50505050505056fea264697066735822122033c4179e453929c033d98641093de9fa0686c8b617e02bb4fe2afd545a2e672064736f6c634300081a0033",
					"opcodes": "PUSH1 0x80 PUSH1 0x40 MSTORE CALLVALUE DUP1 ISZERO PUSH1 0xE JUMPI PUSH0 DUP1 REVERT JUMPDEST POP CALLER PUSH0 DUP1 PUSH2 0x100 EXP DUP2 SLOAD DUP2 PUSH20 0xFFFFFFFFFFFFFFFFFFFFFFFFFFFFFFFFFFFFFFFF MUL NOT AND SWAP1 DUP4 PUSH20 0xFFFFFFFFFFFFFFFFFFFFFFFFFFFFFFFFFFFFFFFF AND MUL OR SWAP1 SSTORE POP PUSH1 0x1 DUP1 PUSH0 DUP1 PUSH0 SWAP1 SLOAD SWAP1 PUSH2 0x100 EXP SWAP1 DIV PUSH20 0xFFFFFFFFFFFFFFFFFFFFFFFFFFFFFFFFFFFFFFFF AND PUSH20 0xFFFFFFFFFFFFFFFFFFFFFFFFFFFFFFFFFFFFFFFF AND PUSH20 0xFFFFFFFFFFFFFFFFFFFFFFFFFFFFFFFFFFFFFFFF AND DUP2 MSTORE PUSH1 0x20 ADD SWAP1 DUP2 MSTORE PUSH1 0x20 ADD PUSH0 KECCAK256 PUSH0 ADD PUSH0 PUSH2 0x100 EXP DUP2 SLOAD DUP2 PUSH1 0xFF MUL NOT AND SWAP1 DUP4 ISZERO ISZERO MUL OR SWAP1 SSTORE POP PUSH2 0x1228 DUP1 PUSH2 0xD1 PUSH0 CODECOPY PUSH0 RETURN INVALID PUSH1 0x80 PUSH1 0x40 MSTORE CALLVALUE DUP1 ISZERO PUSH2 0xF JUMPI PUSH0 DUP1 REVERT JUMPDEST POP PUSH1 0x4 CALLDATASIZE LT PUSH2 0x91 JUMPI PUSH0 CALLDATALOAD PUSH1 0xE0 SHR DUP1 PUSH4 0x462E91EC GT PUSH2 0x64 JUMPI DUP1 PUSH4 0x462E91EC EQ PUSH2 0x11D JUMPI DUP1 PUSH4 0xA3EC138D EQ PUSH2 0x139 JUMPI DUP1 PUSH4 0xAAB46B7F EQ PUSH2 0x16B JUMPI DUP1 PUSH4 0xD28178D7 EQ PUSH2 0x189 JUMPI DUP1 PUSH4 0xE2BA53F0 EQ PUSH2 0x1A7 JUMPI PUSH2 0x91 JUMP JUMPDEST DUP1 PUSH4 0x121B93F EQ PUSH2 0x95 JUMPI DUP1 PUSH4 0x2D35A8A2 EQ PUSH2 0xB1 JUMPI DUP1 PUSH4 0x3477EE2E EQ PUSH2 0xCF JUMPI DUP1 PUSH4 0x38DB6DD3 EQ PUSH2 0x101 JUMPI JUMPDEST PUSH0 DUP1 REVERT JUMPDEST PUSH2 0xAF PUSH1 0x4 DUP1 CALLDATASIZE SUB DUP2 ADD SWAP1 PUSH2 0xAA SWAP2 SWAP1 PUSH2 0x838 JUMP JUMPDEST PUSH2 0x1C5 JUMP JUMPDEST STOP JUMPDEST PUSH2 0xB9 PUSH2 0x349 JUMP JUMPDEST PUSH1 0x40 MLOAD PUSH2 0xC6 SWAP2 SWAP1 PUSH2 0x872 JUMP JUMPDEST PUSH1 0x40 MLOAD DUP1 SWAP2 SUB SWAP1 RETURN JUMPDEST PUSH2 0xE9 PUSH1 0x4 DUP1 CALLDATASIZE SUB DUP2 ADD SWAP1 PUSH2 0xE4 SWAP2 SWAP1 PUSH2 0x838 JUMP JUMPDEST PUSH2 0x34F JUMP JUMPDEST PUSH1 0x40 MLOAD PUSH2 0xF8 SWAP4 SWAP3 SWAP2 SWAP1 PUSH2 0x8FB JUMP JUMPDEST PUSH1 0x40 MLOAD DUP1 SWAP2 SUB SWAP1 RETURN JUMPDEST PUSH2 0x11B PUSH1 0x4 DUP1 CALLDATASIZE SUB DUP2 ADD SWAP1 PUSH2 0x116 SWAP2 SWAP1 PUSH2 0x991 JUMP JUMPDEST PUSH2 0x3FB JUMP JUMPDEST STOP JUMPDEST PUSH2 0x137 PUSH1 0x4 DUP1 CALLDATASIZE SUB DUP2 ADD SWAP1 PUSH2 0x132 SWAP2 SWAP1 PUSH2 0xAE8 JUMP JUMPDEST PUSH2 0x56D JUMP JUMPDEST STOP JUMPDEST PUSH2 0x153 PUSH1 0x4 DUP1 CALLDATASIZE SUB DUP2 ADD SWAP1 PUSH2 0x14E SWAP2 SWAP1 PUSH2 0x991 JUMP JUMPDEST PUSH2 0x66F JUMP JUMPDEST PUSH1 0x40 MLOAD PUSH2 0x162 SWAP4 SWAP3 SWAP2 SWAP1 PUSH2 0xB49 JUMP JUMPDEST PUSH1 0x40 MLOAD DUP1 SWAP2 SUB SWAP1 RETURN JUMPDEST PUSH2 0x173 PUSH2 0x6AD JUMP JUMPDEST PUSH1 0x40 MLOAD PUSH2 0x180 SWAP2 SWAP1 PUSH2 0xB8D JUMP JUMPDEST PUSH1 0x40 MLOAD DUP1 SWAP2 SUB SWAP1 RETURN JUMPDEST PUSH2 0x191 PUSH2 0x6D0 JUMP JUMPDEST PUSH1 0x40 MLOAD PUSH2 0x19E SWAP2 SWAP1 PUSH2 0x872 JUMP JUMPDEST PUSH1 0x40 MLOAD DUP1 SWAP2 SUB SWAP1 RETURN JUMPDEST PUSH2 0x1AF PUSH2 0x746 JUMP JUMPDEST PUSH1 0x40 MLOAD PUSH2 0x1BC SWAP2 SWAP1 PUSH2 0xBA6 JUMP JUMPDEST PUSH1 0x40 MLOAD DUP1 SWAP2 SUB SWAP1 RETURN JUMPDEST PUSH0 PUSH1 0x1 PUSH0 CALLER PUSH20 0xFFFFFFFFFFFFFFFFFFFFFFFFFFFFFFFFFFFFFFFF AND PUSH20 0xFFFFFFFFFFFFFFFFFFFFFFFFFFFFFFFFFFFFFFFF AND DUP2 MSTORE PUSH1 0x20 ADD SWAP1 DUP2 MSTORE PUSH1 0x20 ADD PUSH0 KECCAK256 SWAP1 POP DUP1 PUSH0 ADD PUSH0 SWAP1 SLOAD SWAP1 PUSH2 0x100 EXP SWAP1 DIV PUSH1 0xFF AND PUSH2 0x254 JUMPI PUSH1 0x40 MLOAD PUSH32 0x8C379A000000000000000000000000000000000000000000000000000000000 DUP2 MSTORE PUSH1 0x4 ADD PUSH2 0x24B SWAP1 PUSH2 0xC10 JUMP JUMPDEST PUSH1 0x40 MLOAD DUP1 SWAP2 SUB SWAP1 REVERT JUMPDEST DUP1 PUSH0 ADD PUSH1 0x1 SWAP1 SLOAD SWAP1 PUSH2 0x100 EXP SWAP1 DIV PUSH1 0xFF AND ISZERO PUSH2 0x2A5 JUMPI PUSH1 0x40 MLOAD PUSH32 0x8C379A000000000000000000000000000000000000000000000000000000000 DUP2 MSTORE PUSH1 0x4 ADD PUSH2 0x29C SWAP1 PUSH2 0xC78 JUMP JUMPDEST PUSH1 0x40 MLOAD DUP1 SWAP2 SUB SWAP1 REVERT JUMPDEST PUSH0 DUP3 GT DUP1 ISZERO PUSH2 0x2B6 JUMPI POP PUSH1 0x3 SLOAD DUP3 GT ISZERO JUMPDEST PUSH2 0x2F5 JUMPI PUSH1 0x40 MLOAD PUSH32 0x8C379A000000000000000000000000000000000000000000000000000000000 DUP2 MSTORE PUSH1 0x4 ADD PUSH2 0x2EC SWAP1 PUSH2 0xCE0 JUMP JUMPDEST PUSH1 0x40 MLOAD DUP1 SWAP2 SUB SWAP1 REVERT JUMPDEST PUSH1 0x1 DUP2 PUSH0 ADD PUSH1 0x1 PUSH2 0x100 EXP DUP2 SLOAD DUP2 PUSH1 0xFF MUL NOT AND SWAP1 DUP4 ISZERO ISZERO MUL OR SWAP1 SSTORE POP DUP2 DUP2 PUSH1 0x1 ADD DUP2 SWAP1 SSTORE POP PUSH1 0x1 PUSH1 0x2 PUSH0 DUP5 DUP2 MSTORE PUSH1 0x20 ADD SWAP1 DUP2 MSTORE PUSH1 0x20 ADD PUSH0 KECCAK256 PUSH1 0x2 ADD PUSH0 DUP3 DUP3 SLOAD PUSH2 0x33E SWAP2 SWAP1 PUSH2 0xD2B JUMP JUMPDEST SWAP3 POP POP DUP2 SWAP1 SSTORE POP POP POP JUMP JUMPDEST PUSH1 0x3 SLOAD DUP2 JUMP JUMPDEST PUSH1 0x2 PUSH1 0x20 MSTORE DUP1 PUSH0 MSTORE PUSH1 0x40 PUSH0 KECCAK256 PUSH0 SWAP2 POP SWAP1 POP DUP1 PUSH0 ADD SLOAD SWAP1 DUP1 PUSH1 0x1 ADD DUP1 SLOAD PUSH2 0x374 SWAP1 PUSH2 0xD8B JUMP JUMPDEST DUP1 PUSH1 0x1F ADD PUSH1 0x20 DUP1 SWAP2 DIV MUL PUSH1 0x20 ADD PUSH1 0x40 MLOAD SWAP1 DUP2 ADD PUSH1 0x40 MSTORE DUP1 SWAP3 SWAP2 SWAP1 DUP2 DUP2 MSTORE PUSH1 0x20 ADD DUP3 DUP1 SLOAD PUSH2 0x3A0 SWAP1 PUSH2 0xD8B JUMP JUMPDEST DUP1 ISZERO PUSH2 0x3EB JUMPI DUP1 PUSH1 0x1F LT PUSH2 0x3C2 JUMPI PUSH2 0x100 DUP1 DUP4 SLOAD DIV MUL DUP4 MSTORE SWAP2 PUSH1 0x20 ADD SWAP2 PUSH2 0x3EB JUMP JUMPDEST DUP3 ADD SWAP2 SWAP1 PUSH0 MSTORE PUSH1 0x20 PUSH0 KECCAK256 SWAP1 JUMPDEST DUP2 SLOAD DUP2 MSTORE SWAP1 PUSH1 0x1 ADD SWAP1 PUSH1 0x20 ADD DUP1 DUP4 GT PUSH2 0x3CE JUMPI DUP3 SWAP1 SUB PUSH1 0x1F AND DUP3 ADD SWAP2 JUMPDEST POP POP POP POP POP SWAP1 DUP1 PUSH1 0x2 ADD SLOAD SWAP1 POP DUP4 JUMP JUMPDEST PUSH0 DUP1 SLOAD SWAP1 PUSH2 0x100 EXP SWAP1 DIV PUSH20 0xFFFFFFFFFFFFFFFFFFFFFFFFFFFFFFFFFFFFFFFF AND PUSH20 0xFFFFFFFFFFFFFFFFFFFFFFFFFFFFFFFFFFFFFFFF AND CALLER PUSH20 0xFFFFFFFFFFFFFFFFFFFFFFFFFFFFFFFFFFFFFFFF AND EQ PUSH2 0x488 JUMPI PUSH1 0x40 MLOAD PUSH32 0x8C379A000000000000000000000000000000000000000000000000000000000 DUP2 MSTORE PUSH1 0x4 ADD PUSH2 0x47F SWAP1 PUSH2 0xE2B JUMP JUMPDEST PUSH1 0x40 MLOAD DUP1 SWAP2 SUB SWAP1 REVERT JUMPDEST PUSH1 0x1 PUSH0 DUP3 PUSH20 0xFFFFFFFFFFFFFFFFFFFFFFFFFFFFFFFFFFFFFFFF AND PUSH20 0xFFFFFFFFFFFFFFFFFFFFFFFFFFFFFFFFFFFFFFFF AND DUP2 MSTORE PUSH1 0x20 ADD SWAP1 DUP2 MSTORE PUSH1 0x20 ADD PUSH0 KECCAK256 PUSH0 ADD PUSH0 SWAP1 SLOAD SWAP1 PUSH2 0x100 EXP SWAP1 DIV PUSH1 0xFF AND ISZERO PUSH2 0x514 JUMPI PUSH1 0x40 MLOAD PUSH32 0x8C379A000000000000000000000000000000000000000000000000000000000 DUP2 MSTORE PUSH1 0x4 ADD PUSH2 0x50B SWAP1 PUSH2 0xE93 JUMP JUMPDEST PUSH1 0x40 MLOAD DUP1 SWAP2 SUB SWAP1 REVERT JUMPDEST PUSH1 0x1 DUP1 PUSH0 DUP4 PUSH20 0xFFFFFFFFFFFFFFFFFFFFFFFFFFFFFFFFFFFFFFFF AND PUSH20 0xFFFFFFFFFFFFFFFFFFFFFFFFFFFFFFFFFFFFFFFF AND DUP2 MSTORE PUSH1 0x20 ADD SWAP1 DUP2 MSTORE PUSH1 0x20 ADD PUSH0 KECCAK256 PUSH0 ADD PUSH0 PUSH2 0x100 EXP DUP2 SLOAD DUP2 PUSH1 0xFF MUL NOT AND SWAP1 DUP4 ISZERO ISZERO MUL OR SWAP1 SSTORE POP POP JUMP JUMPDEST PUSH0 DUP1 SLOAD SWAP1 PUSH2 0x100 EXP SWAP1 DIV PUSH20 0xFFFFFFFFFFFFFFFFFFFFFFFFFFFFFFFFFFFFFFFF AND PUSH20 0xFFFFFFFFFFFFFFFFFFFFFFFFFFFFFFFFFFFFFFFF AND CALLER PUSH20 0xFFFFFFFFFFFFFFFFFFFFFFFFFFFFFFFFFFFFFFFF AND EQ PUSH2 0x5FA JUMPI PUSH1 0x40 MLOAD PUSH32 0x8C379A000000000000000000000000000000000000000000000000000000000 DUP2 MSTORE PUSH1 0x4 ADD PUSH2 0x5F1 SWAP1 PUSH2 0xF21 JUMP JUMPDEST PUSH1 0x40 MLOAD DUP1 SWAP2 SUB SWAP1 REVERT JUMPDEST PUSH1 0x3 PUSH0 DUP2 SLOAD DUP1 SWAP3 SWAP2 SWAP1 PUSH2 0x60C SWAP1 PUSH2 0xF3F JUMP JUMPDEST SWAP2 SWAP1 POP SSTORE POP PUSH1 0x40 MLOAD DUP1 PUSH1 0x60 ADD PUSH1 0x40 MSTORE DUP1 PUSH1 0x3 SLOAD DUP2 MSTORE PUSH1 0x20 ADD DUP3 DUP2 MSTORE PUSH1 0x20 ADD PUSH0 DUP2 MSTORE POP PUSH1 0x2 PUSH0 PUSH1 0x3 SLOAD DUP2 MSTORE PUSH1 0x20 ADD SWAP1 DUP2 MSTORE PUSH1 0x20 ADD PUSH0 KECCAK256 PUSH0 DUP3 ADD MLOAD DUP2 PUSH0 ADD SSTORE PUSH1 0x20 DUP3 ADD MLOAD DUP2 PUSH1 0x1 ADD SWAP1 DUP2 PUSH2 0x65E SWAP2 SWAP1 PUSH2 0x1123 JUMP JUMPDEST POP PUSH1 0x40 DUP3 ADD MLOAD DUP2 PUSH1 0x2 ADD SSTORE SWAP1 POP POP POP JUMP JUMPDEST PUSH1 0x1 PUSH1 0x20 MSTORE DUP1 PUSH0 MSTORE PUSH1 0x40 PUSH0 KECCAK256 PUSH0 SWAP2 POP SWAP1 POP DUP1 PUSH0 ADD PUSH0 SWAP1 SLOAD SWAP1 PUSH2 0x100 EXP SWAP1 DIV PUSH1 0xFF AND SWAP1 DUP1 PUSH0 ADD PUSH1 0x1 SWAP1 SLOAD SWAP1 PUSH2 0x100 EXP SWAP1 DIV PUSH1 0xFF AND SWAP1 DUP1 PUSH1 0x1 ADD SLOAD SWAP1 POP DUP4 JUMP JUMPDEST PUSH0 DUP1 SLOAD SWAP1 PUSH2 0x100 EXP SWAP1 DIV PUSH20 0xFFFFFFFFFFFFFFFFFFFFFFFFFFFFFFFFFFFFFFFF AND DUP2 JUMP JUMPDEST PUSH0 DUP1 PUSH0 SWAP1 POP PUSH0 PUSH1 0x1 SWAP1 POP JUMPDEST PUSH1 0x3 SLOAD DUP2 GT PUSH2 0x741 JUMPI DUP2 PUSH1 0x2 PUSH0 DUP4 DUP2 MSTORE PUSH1 0x20 ADD SWAP1 DUP2 MSTORE PUSH1 0x20 ADD PUSH0 KECCAK256 PUSH1 0x2 ADD SLOAD GT ISZERO PUSH2 0x72E JUMPI PUSH1 0x2 PUSH0 DUP3 DUP2 MSTORE PUSH1 0x20 ADD SWAP1 DUP2 MSTORE PUSH1 0x20 ADD PUSH0 KECCAK256 PUSH1 0x2 ADD SLOAD SWAP2 POP PUSH1 0x2 PUSH0 DUP3 DUP2 MSTORE PUSH1 0x20 ADD SWAP1 DUP2 MSTORE PUSH1 0x20 ADD PUSH0 KECCAK256 PUSH0 ADD SLOAD SWAP3 POP JUMPDEST DUP1 DUP1 PUSH2 0x739 SWAP1 PUSH2 0xF3F JUMP JUMPDEST SWAP2 POP POP PUSH2 0x6DB JUMP JUMPDEST POP POP SWAP1 JUMP JUMPDEST PUSH1 0x60 PUSH0 PUSH2 0x751 PUSH2 0x6D0 JUMP JUMPDEST SWAP1 POP PUSH1 0x2 PUSH0 DUP3 DUP2 MSTORE PUSH1 0x20 ADD SWAP1 DUP2 MSTORE PUSH1 0x20 ADD PUSH0 KECCAK256 PUSH1 0x1 ADD DUP1 SLOAD PUSH2 0x772 SWAP1 PUSH2 0xD8B JUMP JUMPDEST DUP1 PUSH1 0x1F ADD PUSH1 0x20 DUP1 SWAP2 DIV MUL PUSH1 0x20 ADD PUSH1 0x40 MLOAD SWAP1 DUP2 ADD PUSH1 0x40 MSTORE DUP1 SWAP3 SWAP2 SWAP1 DUP2 DUP2 MSTORE PUSH1 0x20 ADD DUP3 DUP1 SLOAD PUSH2 0x79E SWAP1 PUSH2 0xD8B JUMP JUMPDEST DUP1 ISZERO PUSH2 0x7E9 JUMPI DUP1 PUSH1 0x1F LT PUSH2 0x7C0 JUMPI PUSH2 0x100 DUP1 DUP4 SLOAD DIV MUL DUP4 MSTORE SWAP2 PUSH1 0x20 ADD SWAP2 PUSH2 0x7E9 JUMP JUMPDEST DUP3 ADD SWAP2 SWAP1 PUSH0 MSTORE PUSH1 0x20 PUSH0 KECCAK256 SWAP1 JUMPDEST DUP2 SLOAD DUP2 MSTORE SWAP1 PUSH1 0x1 ADD SWAP1 PUSH1 0x20 ADD DUP1 DUP4 GT PUSH2 0x7CC JUMPI DUP3 SWAP1 SUB PUSH1 0x1F AND DUP3 ADD SWAP2 JUMPDEST POP POP POP POP POP SWAP2 POP POP SWAP1 JUMP JUMPDEST PUSH0 PUSH1 0x40 MLOAD SWAP1 POP SWAP1 JUMP JUMPDEST PUSH0 DUP1 REVERT JUMPDEST PUSH0 DUP1 REVERT JUMPDEST PUSH0 DUP2 SWAP1 POP SWAP2 SWAP1 POP JUMP JUMPDEST PUSH2 0x817 DUP2 PUSH2 0x805 JUMP JUMPDEST DUP2 EQ PUSH2 0x821 JUMPI PUSH0 DUP1 REVERT JUMPDEST POP JUMP JUMPDEST PUSH0 DUP2 CALLDATALOAD SWAP1 POP PUSH2 0x832 DUP2 PUSH2 0x80E JUMP JUMPDEST SWAP3 SWAP2 POP POP JUMP JUMPDEST PUSH0 PUSH1 0x20 DUP3 DUP5 SUB SLT ISZERO PUSH2 0x84D JUMPI PUSH2 0x84C PUSH2 0x7FD JUMP JUMPDEST JUMPDEST PUSH0 PUSH2 0x85A DUP5 DUP3 DUP6 ADD PUSH2 0x824 JUMP JUMPDEST SWAP2 POP POP SWAP3 SWAP2 POP POP JUMP JUMPDEST PUSH2 0x86C DUP2 PUSH2 0x805 JUMP JUMPDEST DUP3 MSTORE POP POP JUMP JUMPDEST PUSH0 PUSH1 0x20 DUP3 ADD SWAP1 POP PUSH2 0x885 PUSH0 DUP4 ADD DUP5 PUSH2 0x863 JUMP JUMPDEST SWAP3 SWAP2 POP POP JUMP JUMPDEST PUSH0 DUP2 MLOAD SWAP1 POP SWAP2 SWAP1 POP JUMP JUMPDEST PUSH0 DUP3 DUP3 MSTORE PUSH1 0x20 DUP3 ADD SWAP1 POP SWAP3 SWAP2 POP POP JUMP JUMPDEST DUP3 DUP2 DUP4 MCOPY PUSH0 DUP4 DUP4 ADD MSTORE POP POP POP JUMP JUMPDEST PUSH0 PUSH1 0x1F NOT PUSH1 0x1F DUP4 ADD AND SWAP1 POP SWAP2 SWAP1 POP JUMP JUMPDEST PUSH0 PUSH2 0x8CD DUP3 PUSH2 0x88B JUMP JUMPDEST PUSH2 0x8D7 DUP2 DUP6 PUSH2 0x895 JUMP JUMPDEST SWAP4 POP PUSH2 0x8E7 DUP2 DUP6 PUSH1 0x20 DUP7 ADD PUSH2 0x8A5 JUMP JUMPDEST PUSH2 0x8F0 DUP2 PUSH2 0x8B3 JUMP JUMPDEST DUP5 ADD SWAP2 POP POP SWAP3 SWAP2 POP POP JUMP JUMPDEST PUSH0 PUSH1 0x60 DUP3 ADD SWAP1 POP PUSH2 0x90E PUSH0 DUP4 ADD DUP7 PUSH2 0x863 JUMP JUMPDEST DUP2 DUP2 SUB PUSH1 0x20 DUP4 ADD MSTORE PUSH2 0x920 DUP2 DUP6 PUSH2 0x8C3 JUMP JUMPDEST SWAP1 POP PUSH2 0x92F PUSH1 0x40 DUP4 ADD DUP5 PUSH2 0x863 JUMP JUMPDEST SWAP5 SWAP4 POP POP POP POP JUMP JUMPDEST PUSH0 PUSH20 0xFFFFFFFFFFFFFFFFFFFFFFFFFFFFFFFFFFFFFFFF DUP3 AND SWAP1 POP SWAP2 SWAP1 POP JUMP JUMPDEST PUSH0 PUSH2 0x960 DUP3 PUSH2 0x937 JUMP JUMPDEST SWAP1 POP SWAP2 SWAP1 POP JUMP JUMPDEST PUSH2 0x970 DUP2 PUSH2 0x956 JUMP JUMPDEST DUP2 EQ PUSH2 0x97A JUMPI PUSH0 DUP1 REVERT JUMPDEST POP JUMP JUMPDEST PUSH0 DUP2 CALLDATALOAD SWAP1 POP PUSH2 0x98B DUP2 PUSH2 0x967 JUMP JUMPDEST SWAP3 SWAP2 POP POP JUMP JUMPDEST PUSH0 PUSH1 0x20 DUP3 DUP5 SUB SLT ISZERO PUSH2 0x9A6 JUMPI PUSH2 0x9A5 PUSH2 0x7FD JUMP JUMPDEST JUMPDEST PUSH0 PUSH2 0x9B3 DUP5 DUP3 DUP6 ADD PUSH2 0x97D JUMP JUMPDEST SWAP2 POP POP SWAP3 SWAP2 POP POP JUMP JUMPDEST PUSH0 DUP1 REVERT JUMPDEST PUSH0 DUP1 REVERT JUMPDEST PUSH32 0x4E487B7100000000000000000000000000000000000000000000000000000000 PUSH0 MSTORE PUSH1 0x41 PUSH1 0x4 MSTORE PUSH1 0x24 PUSH0 REVERT JUMPDEST PUSH2 0x9FA DUP3 PUSH2 0x8B3 JUMP JUMPDEST DUP2 ADD DUP2 DUP2 LT PUSH8 0xFFFFFFFFFFFFFFFF DUP3 GT OR ISZERO PUSH2 0xA19 JUMPI PUSH2 0xA18 PUSH2 0x9C4 JUMP JUMPDEST JUMPDEST DUP1 PUSH1 0x40 MSTORE POP POP POP JUMP JUMPDEST PUSH0 PUSH2 0xA2B PUSH2 0x7F4 JUMP JUMPDEST SWAP1 POP PUSH2 0xA37 DUP3 DUP3 PUSH2 0x9F1 JUMP JUMPDEST SWAP2 SWAP1 POP JUMP JUMPDEST PUSH0 PUSH8 0xFFFFFFFFFFFFFFFF DUP3 GT ISZERO PUSH2 0xA56 JUMPI PUSH2 0xA55 PUSH2 0x9C4 JUMP JUMPDEST JUMPDEST PUSH2 0xA5F DUP3 PUSH2 0x8B3 JUMP JUMPDEST SWAP1 POP PUSH1 0x20 DUP2 ADD SWAP1 POP SWAP2 SWAP1 POP JUMP JUMPDEST DUP3 DUP2 DUP4 CALLDATACOPY PUSH0 DUP4 DUP4 ADD MSTORE POP POP POP JUMP JUMPDEST PUSH0 PUSH2 0xA8C PUSH2 0xA87 DUP5 PUSH2 0xA3C JUMP JUMPDEST PUSH2 0xA22 JUMP JUMPDEST SWAP1 POP DUP3 DUP2 MSTORE PUSH1 0x20 DUP2 ADD DUP5 DUP5 DUP5 ADD GT ISZERO PUSH2 0xAA8 JUMPI PUSH2 0xAA7 PUSH2 0x9C0 JUMP JUMPDEST JUMPDEST PUSH2 0xAB3 DUP5 DUP3 DUP6 PUSH2 0xA6C JUMP JUMPDEST POP SWAP4 SWAP3 POP POP POP JUMP JUMPDEST PUSH0 DUP3 PUSH1 0x1F DUP4 ADD SLT PUSH2 0xACF JUMPI PUSH2 0xACE PUSH2 0x9BC JUMP JUMPDEST JUMPDEST DUP2 CALLDATALOAD PUSH2 0xADF DUP5 DUP3 PUSH1 0x20 DUP7 ADD PUSH2 0xA7A JUMP JUMPDEST SWAP2 POP POP SWAP3 SWAP2 POP POP JUMP JUMPDEST PUSH0 PUSH1 0x20 DUP3 DUP5 SUB SLT ISZERO PUSH2 0xAFD JUMPI PUSH2 0xAFC PUSH2 0x7FD JUMP JUMPDEST JUMPDEST PUSH0 DUP3 ADD CALLDATALOAD PUSH8 0xFFFFFFFFFFFFFFFF DUP2 GT ISZERO PUSH2 0xB1A JUMPI PUSH2 0xB19 PUSH2 0x801 JUMP JUMPDEST JUMPDEST PUSH2 0xB26 DUP5 DUP3 DUP6 ADD PUSH2 0xABB JUMP JUMPDEST SWAP2 POP POP SWAP3 SWAP2 POP POP JUMP JUMPDEST PUSH0 DUP2 ISZERO ISZERO SWAP1 POP SWAP2 SWAP1 POP JUMP JUMPDEST PUSH2 0xB43 DUP2 PUSH2 0xB2F JUMP JUMPDEST DUP3 MSTORE POP POP JUMP JUMPDEST PUSH0 PUSH1 0x60 DUP3 ADD SWAP1 POP PUSH2 0xB5C PUSH0 DUP4 ADD DUP7 PUSH2 0xB3A JUMP JUMPDEST PUSH2 0xB69 PUSH1 0x20 DUP4 ADD DUP6 PUSH2 0xB3A JUMP JUMPDEST PUSH2 0xB76 PUSH1 0x40 DUP4 ADD DUP5 PUSH2 0x863 JUMP JUMPDEST SWAP5 SWAP4 POP POP POP POP JUMP JUMPDEST PUSH2 0xB87 DUP2 PUSH2 0x956 JUMP JUMPDEST DUP3 MSTORE POP POP JUMP JUMPDEST PUSH0 PUSH1 0x20 DUP3 ADD SWAP1 POP PUSH2 0xBA0 PUSH0 DUP4 ADD DUP5 PUSH2 0xB7E JUMP JUMPDEST SWAP3 SWAP2 POP POP JUMP JUMPDEST PUSH0 PUSH1 0x20 DUP3 ADD SWAP1 POP DUP2 DUP2 SUB PUSH0 DUP4 ADD MSTORE PUSH2 0xBBE DUP2 DUP5 PUSH2 0x8C3 JUMP JUMPDEST SWAP1 POP SWAP3 SWAP2 POP POP JUMP JUMPDEST PUSH32 0x596F75206D7573742062652061207265676973746572656420766F7465722E00 PUSH0 DUP3 ADD MSTORE POP JUMP JUMPDEST PUSH0 PUSH2 0xBFA PUSH1 0x1F DUP4 PUSH2 0x895 JUMP JUMPDEST SWAP2 POP PUSH2 0xC05 DUP3 PUSH2 0xBC6 JUMP JUMPDEST PUSH1 0x20 DUP3 ADD SWAP1 POP SWAP2 SWAP1 POP JUMP JUMPDEST PUSH0 PUSH1 0x20 DUP3 ADD SWAP1 POP DUP2 DUP2 SUB PUSH0 DUP4 ADD MSTORE PUSH2 0xC27 DUP2 PUSH2 0xBEE JUMP JUMPDEST SWAP1 POP SWAP2 SWAP1 POP JUMP JUMPDEST PUSH32 0x596F75206861766520616C726561647920766F7465642E000000000000000000 PUSH0 DUP3 ADD MSTORE POP JUMP JUMPDEST PUSH0 PUSH2 0xC62 PUSH1 0x17 DUP4 PUSH2 0x895 JUMP JUMPDEST SWAP2 POP PUSH2 0xC6D DUP3 PUSH2 0xC2E JUMP JUMPDEST PUSH1 0x20 DUP3 ADD SWAP1 POP SWAP2 SWAP1 POP JUMP JUMPDEST PUSH0 PUSH1 0x20 DUP3 ADD SWAP1 POP DUP2 DUP2 SUB PUSH0 DUP4 ADD MSTORE PUSH2 0xC8F DUP2 PUSH2 0xC56 JUMP JUMPDEST SWAP1 POP SWAP2 SWAP1 POP JUMP JUMPDEST PUSH32 0x496E76616C69642063616E6469646174652049442E0000000000000000000000 PUSH0 DUP3 ADD MSTORE POP JUMP JUMPDEST PUSH0 PUSH2 0xCCA PUSH1 0x15 DUP4 PUSH2 0x895 JUMP JUMPDEST SWAP2 POP PUSH2 0xCD5 DUP3 PUSH2 0xC96 JUMP JUMPDEST PUSH1 0x20 DUP3 ADD SWAP1 POP SWAP2 SWAP1 POP JUMP JUMPDEST PUSH0 PUSH1 0x20 DUP3 ADD SWAP1 POP DUP2 DUP2 SUB PUSH0 DUP4 ADD MSTORE PUSH2 0xCF7 DUP2 PUSH2 0xCBE JUMP JUMPDEST SWAP1 POP SWAP2 SWAP1 POP JUMP JUMPDEST PUSH32 0x4E487B7100000000000000000000000000000000000000000000000000000000 PUSH0 MSTORE PUSH1 0x11 PUSH1 0x4 MSTORE PUSH1 0x24 PUSH0 REVERT JUMPDEST PUSH0 PUSH2 0xD35 DUP3 PUSH2 0x805 JUMP JUMPDEST SWAP2 POP PUSH2 0xD40 DUP4 PUSH2 0x805 JUMP JUMPDEST SWAP3 POP DUP3 DUP3 ADD SWAP1 POP DUP1 DUP3 GT ISZERO PUSH2 0xD58 JUMPI PUSH2 0xD57 PUSH2 0xCFE JUMP JUMPDEST JUMPDEST SWAP3 SWAP2 POP POP JUMP JUMPDEST PUSH32 0x4E487B7100000000000000000000000000000000000000000000000000000000 PUSH0 MSTORE PUSH1 0x22 PUSH1 0x4 MSTORE PUSH1 0x24 PUSH0 REVERT JUMPDEST PUSH0 PUSH1 0x2 DUP3 DIV SWAP1 POP PUSH1 0x1 DUP3 AND DUP1 PUSH2 0xDA2 JUMPI PUSH1 0x7F DUP3 AND SWAP2 POP JUMPDEST PUSH1 0x20 DUP3 LT DUP2 SUB PUSH2 0xDB5 JUMPI PUSH2 0xDB4 PUSH2 0xD5E JUMP JUMPDEST JUMPDEST POP SWAP2 SWAP1 POP JUMP JUMPDEST PUSH32 0x4F6E6C792074686520656C656374696F6E20636F6D6D697373696F6E2063616E PUSH0 DUP3 ADD MSTORE PUSH32 0x20726567697374657220766F746572732E000000000000000000000000000000 PUSH1 0x20 DUP3 ADD MSTORE POP JUMP JUMPDEST PUSH0 PUSH2 0xE15 PUSH1 0x31 DUP4 PUSH2 0x895 JUMP JUMPDEST SWAP2 POP PUSH2 0xE20 DUP3 PUSH2 0xDBB JUMP JUMPDEST PUSH1 0x40 DUP3 ADD SWAP1 POP SWAP2 SWAP1 POP JUMP JUMPDEST PUSH0 PUSH1 0x20 DUP3 ADD SWAP1 POP DUP2 DUP2 SUB PUSH0 DUP4 ADD MSTORE PUSH2 0xE42 DUP2 PUSH2 0xE09 JUMP JUMPDEST SWAP1 POP SWAP2 SWAP1 POP JUMP JUMPDEST PUSH32 0x566F74657220697320616C726561647920726567697374657265642E00000000 PUSH0 DUP3 ADD MSTORE POP JUMP JUMPDEST PUSH0 PUSH2 0xE7D PUSH1 0x1C DUP4 PUSH2 0x895 JUMP JUMPDEST SWAP2 POP PUSH2 0xE88 DUP3 PUSH2 0xE49 JUMP JUMPDEST PUSH1 0x20 DUP3 ADD SWAP1 POP SWAP2 SWAP1 POP JUMP JUMPDEST PUSH0 PUSH1 0x20 DUP3 ADD SWAP1 POP DUP2 DUP2 SUB PUSH0 DUP4 ADD MSTORE PUSH2 0xEAA DUP2 PUSH2 0xE71 JUMP JUMPDEST SWAP1 POP SWAP2 SWAP1 POP JUMP JUMPDEST PUSH32 0x4F6E6C792074686520656C656374696F6E20636F6D6D697373696F6E2063616E PUSH0 DUP3 ADD MSTORE PUSH32 0x206164642063616E646964617465732E00000000000000000000000000000000 PUSH1 0x20 DUP3 ADD MSTORE POP JUMP JUMPDEST PUSH0 PUSH2 0xF0B PUSH1 0x30 DUP4 PUSH2 0x895 JUMP JUMPDEST SWAP2 POP PUSH2 0xF16 DUP3 PUSH2 0xEB1 JUMP JUMPDEST PUSH1 0x40 DUP3 ADD SWAP1 POP SWAP2 SWAP1 POP JUMP JUMPDEST PUSH0 PUSH1 0x20 DUP3 ADD SWAP1 POP DUP2 DUP2 SUB PUSH0 DUP4 ADD MSTORE PUSH2 0xF38 DUP2 PUSH2 0xEFF JUMP JUMPDEST SWAP1 POP SWAP2 SWAP1 POP JUMP JUMPDEST PUSH0 PUSH2 0xF49 DUP3 PUSH2 0x805 JUMP JUMPDEST SWAP2 POP PUSH32 0xFFFFFFFFFFFFFFFFFFFFFFFFFFFFFFFFFFFFFFFFFFFFFFFFFFFFFFFFFFFFFFFF DUP3 SUB PUSH2 0xF7B JUMPI PUSH2 0xF7A PUSH2 0xCFE JUMP JUMPDEST JUMPDEST PUSH1 0x1 DUP3 ADD SWAP1 POP SWAP2 SWAP1 POP JUMP JUMPDEST PUSH0 DUP2 SWAP1 POP DUP2 PUSH0 MSTORE PUSH1 0x20 PUSH0 KECCAK256 SWAP1 POP SWAP2 SWAP1 POP JUMP JUMPDEST PUSH0 PUSH1 0x20 PUSH1 0x1F DUP4 ADD DIV SWAP1 POP SWAP2 SWAP1 POP JUMP JUMPDEST PUSH0 DUP3 DUP3 SHL SWAP1 POP SWAP3 SWAP2 POP POP JUMP JUMPDEST PUSH0 PUSH1 0x8 DUP4 MUL PUSH2 0xFE2 PUSH32 0xFFFFFFFFFFFFFFFFFFFFFFFFFFFFFFFFFFFFFFFFFFFFFFFFFFFFFFFFFFFFFFFF DUP3 PUSH2 0xFA7 JUMP JUMPDEST PUSH2 0xFEC DUP7 DUP4 PUSH2 0xFA7 JUMP JUMPDEST SWAP6 POP DUP1 NOT DUP5 AND SWAP4 POP DUP1 DUP7 AND DUP5 OR SWAP3 POP POP POP SWAP4 SWAP3 POP POP POP JUMP JUMPDEST PUSH0 DUP2 SWAP1 POP SWAP2 SWAP1 POP JUMP JUMPDEST PUSH0 PUSH2 0x1027 PUSH2 0x1022 PUSH2 0x101D DUP5 PUSH2 0x805 JUMP JUMPDEST PUSH2 0x1004 JUMP JUMPDEST PUSH2 0x805 JUMP JUMPDEST SWAP1 POP SWAP2 SWAP1 POP JUMP JUMPDEST PUSH0 DUP2 SWAP1 POP SWAP2 SWAP1 POP JUMP JUMPDEST PUSH2 0x1040 DUP4 PUSH2 0x100D JUMP JUMPDEST PUSH2 0x1054 PUSH2 0x104C DUP3 PUSH2 0x102E JUMP JUMPDEST DUP5 DUP5 SLOAD PUSH2 0xFB3 JUMP JUMPDEST DUP3 SSTORE POP POP POP POP JUMP JUMPDEST PUSH0 SWAP1 JUMP JUMPDEST PUSH2 0x1068 PUSH2 0x105C JUMP JUMPDEST PUSH2 0x1073 DUP2 DUP5 DUP5 PUSH2 0x1037 JUMP JUMPDEST POP POP POP JUMP JUMPDEST JUMPDEST DUP2 DUP2 LT ISZERO PUSH2 0x1096 JUMPI PUSH2 0x108B PUSH0 DUP3 PUSH2 0x1060 JUMP JUMPDEST PUSH1 0x1 DUP2 ADD SWAP1 POP PUSH2 0x1079 JUMP JUMPDEST POP POP JUMP JUMPDEST PUSH1 0x1F DUP3 GT ISZERO PUSH2 0x10DB JUMPI PUSH2 0x10AC DUP2 PUSH2 0xF86 JUMP JUMPDEST PUSH2 0x10B5 DUP5 PUSH2 0xF98 JUMP JUMPDEST DUP2 ADD PUSH1 0x20 DUP6 LT ISZERO PUSH2 0x10C4 JUMPI DUP2 SWAP1 POP JUMPDEST PUSH2 0x10D8 PUSH2 0x10D0 DUP6 PUSH2 0xF98 JUMP JUMPDEST DUP4 ADD DUP3 PUSH2 0x1078 JUMP JUMPDEST POP POP JUMPDEST POP POP POP JUMP JUMPDEST PUSH0 DUP3 DUP3 SHR SWAP1 POP SWAP3 SWAP2 POP POP JUMP JUMPDEST PUSH0 PUSH2 0x10FB PUSH0 NOT DUP5 PUSH1 0x8 MUL PUSH2 0x10E0 JUMP JUMPDEST NOT DUP1 DUP4 AND SWAP2 POP POP SWAP3 SWAP2 POP POP JUMP JUMPDEST PUSH0 PUSH2 0x1113 DUP4 DUP4 PUSH2 0x10EC JUMP JUMPDEST SWAP2 POP DUP3 PUSH1 0x2 MUL DUP3 OR SWAP1 POP SWAP3 SWAP2 POP POP JUMP JUMPDEST PUSH2 0x112C DUP3 PUSH2 0x88B JUMP JUMPDEST PUSH8 0xFFFFFFFFFFFFFFFF DUP2 GT ISZERO PUSH2 0x1145 JUMPI PUSH2 0x1144 PUSH2 0x9C4 JUMP JUMPDEST JUMPDEST PUSH2 0x114F DUP3 SLOAD PUSH2 0xD8B JUMP JUMPDEST PUSH2 0x115A DUP3 DUP3 DUP6 PUSH2 0x109A JUMP JUMPDEST PUSH0 PUSH1 0x20 SWAP1 POP PUSH1 0x1F DUP4 GT PUSH1 0x1 DUP2 EQ PUSH2 0x118B JUMPI PUSH0 DUP5 ISZERO PUSH2 0x1179 JUMPI DUP3 DUP8 ADD MLOAD SWAP1 POP JUMPDEST PUSH2 0x1183 DUP6 DUP3 PUSH2 0x1108 JUMP JUMPDEST DUP7 SSTORE POP PUSH2 0x11EA JUMP JUMPDEST PUSH1 0x1F NOT DUP5 AND PUSH2 0x1199 DUP7 PUSH2 0xF86 JUMP JUMPDEST PUSH0 JUMPDEST DUP3 DUP2 LT ISZERO PUSH2 0x11C0 JUMPI DUP5 DUP10 ADD MLOAD DUP3 SSTORE PUSH1 0x1 DUP3 ADD SWAP2 POP PUSH1 0x20 DUP6 ADD SWAP5 POP PUSH1 0x20 DUP2 ADD SWAP1 POP PUSH2 0x119B JUMP JUMPDEST DUP7 DUP4 LT ISZERO PUSH2 0x11DD JUMPI DUP5 DUP10 ADD MLOAD PUSH2 0x11D9 PUSH1 0x1F DUP10 AND DUP3 PUSH2 0x10EC JUMP JUMPDEST DUP4 SSTORE POP JUMPDEST PUSH1 0x1 PUSH1 0x2 DUP9 MUL ADD DUP9 SSTORE POP POP POP JUMPDEST POP POP POP POP POP POP JUMP INVALID LOG2 PUSH5 0x6970667358 0x22 SLT KECCAK256 CALLER 0xC4 OR SWAP15 GASLIMIT CODECOPY 0x29 0xC0 CALLER 0xD9 DUP7 COINBASE MULMOD RETURNDATASIZE 0xE9 STATICCALL MOD DUP7 0xC8 0xB6 OR 0xE0 0x2B 0xB4 INVALID 0x2A REVERT SLOAD GAS 0x2E PUSH8 0x2064736F6C634300 ADDMOD BYTE STOP CALLER "
				},
				"gasEstimates": {
					"creation": {
						"codeDepositCost": "929600",
						"executionCost": "51725",
						"totalCost": "981325"
					},
					"external": {
						"addCandidate(string)": "infinite",
						"candidates(uint256)": "infinite",
						"candidatesCount()": "2448",
						"electionCommission()": "2549",
						"registerVoter(address)": "29289",
						"vote(uint256)": "infinite",
						"voters(address)": "infinite",
						"winnerName()": "infinite",
						"winningCandidate()": "infinite"
					}
				},
				"methodIdentifiers": {
					"addCandidate(string)": "462e91ec",
					"candidates(uint256)": "3477ee2e",
					"candidatesCount()": "2d35a8a2",
					"electionCommission()": "aab46b7f",
					"registerVoter(address)": "38db6dd3",
					"vote(uint256)": "0121b93f",
					"voters(address)": "a3ec138d",
					"winnerName()": "e2ba53f0",
					"winningCandidate()": "d28178d7"
				}
			},
			"storageLayout": {
				"storage": [
					{
						"astId": 17,
						"contract": "contracts/Election.sol:VotingSystem",
						"label": "electionCommission",
						"offset": 0,
						"slot": "0",
						"type": "t_address"
					},
					{
						"astId": 22,
						"contract": "contracts/Election.sol:VotingSystem",
						"label": "voters",
						"offset": 0,
						"slot": "1",
						"type": "t_mapping(t_address,t_struct(Voter)8_storage)"
					},
					{
						"astId": 27,
						"contract": "contracts/Election.sol:VotingSystem",
						"label": "candidates",
						"offset": 0,
						"slot": "2",
						"type": "t_mapping(t_uint256,t_struct(Candidate)15_storage)"
					},
					{
						"astId": 29,
						"contract": "contracts/Election.sol:VotingSystem",
						"label": "candidatesCount",
						"offset": 0,
						"slot": "3",
						"type": "t_uint256"
					}
				],
				"types": {
					"t_address": {
						"encoding": "inplace",
						"label": "address",
						"numberOfBytes": "20"
					},
					"t_bool": {
						"encoding": "inplace",
						"label": "bool",
						"numberOfBytes": "1"
					},
					"t_mapping(t_address,t_struct(Voter)8_storage)": {
						"encoding": "mapping",
						"key": "t_address",
						"label": "mapping(address => struct VotingSystem.Voter)",
						"numberOfBytes": "32",
						"value": "t_struct(Voter)8_storage"
					},
					"t_mapping(t_uint256,t_struct(Candidate)15_storage)": {
						"encoding": "mapping",
						"key": "t_uint256",
						"label": "mapping(uint256 => struct VotingSystem.Candidate)",
						"numberOfBytes": "32",
						"value": "t_struct(Candidate)15_storage"
					},
					"t_string_storage": {
						"encoding": "bytes",
						"label": "string",
						"numberOfBytes": "32"
					},
					"t_struct(Candidate)15_storage": {
						"encoding": "inplace",
						"label": "struct VotingSystem.Candidate",
						"members": [
							{
								"astId": 10,
								"contract": "contracts/Election.sol:VotingSystem",
								"label": "id",
								"offset": 0,
								"slot": "0",
								"type": "t_uint256"
							},
							{
								"astId": 12,
								"contract": "contracts/Election.sol:VotingSystem",
								"label": "name",
								"offset": 0,
								"slot": "1",
								"type": "t_string_storage"
							},
							{
								"astId": 14,
								"contract": "contracts/Election.sol:VotingSystem",
								"label": "voteCount",
								"offset": 0,
								"slot": "2",
								"type": "t_uint256"
							}
						],
						"numberOfBytes": "96"
					},
					"t_struct(Voter)8_storage": {
						"encoding": "inplace",
						"label": "struct VotingSystem.Voter",
						"members": [
							{
								"astId": 3,
								"contract": "contracts/Election.sol:VotingSystem",
								"label": "isRegistered",
								"offset": 0,
								"slot": "0",
								"type": "t_bool"
							},
							{
								"astId": 5,
								"contract": "contracts/Election.sol:VotingSystem",
								"label": "hasVoted",
								"offset": 1,
								"slot": "0",
								"type": "t_bool"
							},
							{
								"astId": 7,
								"contract": "contracts/Election.sol:VotingSystem",
								"label": "votedCandidateId",
								"offset": 0,
								"slot": "1",
								"type": "t_uint256"
							}
						],
						"numberOfBytes": "64"
					},
					"t_uint256": {
						"encoding": "inplace",
						"label": "uint256",
						"numberOfBytes": "32"
					}
				}
			},
			"userdoc": {
				"kind": "user",
				"methods": {},
				"version": 1
			}
		}
	}
}