{
	"contracts/VotingSystem.sol": {
		"VotingSystem": {
			"abi": [
				{
					"inputs": [],
					"stateMutability": "nonpayable",
					"type": "constructor"
				},
				{
					"inputs": [
						{
							"internalType": "string",
							"name": "candidateName",
							"type": "string"
						}
					],
					"name": "addCandidate",
					"outputs": [],
					"stateMutability": "nonpayable",
					"type": "function"
				},
				{
					"inputs": [
						{
							"internalType": "uint256",
							"name": "",
							"type": "uint256"
						}
					],
					"name": "candidates",
					"outputs": [
						{
							"internalType": "uint256",
							"name": "id",
							"type": "uint256"
						},
						{
							"internalType": "string",
							"name": "name",
							"type": "string"
						},
						{
							"internalType": "uint256",
							"name": "voteCount",
							"type": "uint256"
						}
					],
					"stateMutability": "view",
					"type": "function"
				},
				{
					"inputs": [],
					"name": "candidatesCount",
					"outputs": [
						{
							"internalType": "uint256",
							"name": "",
							"type": "uint256"
						}
					],
					"stateMutability": "view",
					"type": "function"
				},
				{
					"inputs": [],
					"name": "electionCommission",
					"outputs": [
						{
							"internalType": "address",
							"name": "",
							"type": "address"
						}
					],
					"stateMutability": "view",
					"type": "function"
				},
				{
					"inputs": [
						{
							"internalType": "string",
							"name": "",
							"type": "string"
						}
					],
					"name": "isCandidateRegistered",
					"outputs": [
						{
							"internalType": "bool",
							"name": "",
							"type": "bool"
						}
					],
					"stateMutability": "view",
					"type": "function"
				},
				{
					"inputs": [
						{
							"internalType": "address",
							"name": "voterAddress",
							"type": "address"
						}
					],
					"name": "registerVoter",
					"outputs": [],
					"stateMutability": "nonpayable",
					"type": "function"
				},
				{
					"inputs": [
						{
							"internalType": "uint256",
							"name": "candidateId",
							"type": "uint256"
						}
					],
					"name": "vote",
					"outputs": [],
					"stateMutability": "nonpayable",
					"type": "function"
				},
				{
					"inputs": [
						{
							"internalType": "address",
							"name": "",
							"type": "address"
						}
					],
					"name": "voters",
					"outputs": [
						{
							"internalType": "bool",
							"name": "isRegistered",
							"type": "bool"
						},
						{
							"internalType": "bool",
							"name": "hasVoted",
							"type": "bool"
						},
						{
							"internalType": "uint256",
							"name": "votedCandidateId",
							"type": "uint256"
						}
					],
					"stateMutability": "view",
					"type": "function"
				},
				{
					"inputs": [],
					"name": "winnerName",
					"outputs": [
						{
							"internalType": "string",
							"name": "winnerCandidateName",
							"type": "string"
						}
					],
					"stateMutability": "view",
					"type": "function"
				},
				{
					"inputs": [],
					"name": "winningCandidate",
					"outputs": [
						{
							"internalType": "uint256",
							"name": "winningCandidateId",
							"type": "uint256"
						}
					],
					"stateMutability": "view",
					"type": "function"
				}
			],
			"devdoc": {
				"kind": "dev",
				"methods": {},
				"version": 1
			},
			"evm": {
				"assembly": "    /* \"contracts/VotingSystem.sol\":60:3508  contract VotingSystem {... */\n  mstore(0x40, 0x80)\n    /* \"contracts/VotingSystem.sol\":1149:1270  constructor() {... */\n  callvalue\n  dup1\n  iszero\n  tag_1\n  jumpi\n  0x00\n  dup1\n  revert\ntag_1:\n  pop\n    /* \"contracts/VotingSystem.sol\":1195:1205  msg.sender */\n  caller\n    /* \"contracts/VotingSystem.sol\":1174:1192  electionCommission */\n  0x00\n  dup1\n    /* \"contracts/VotingSystem.sol\":1174:1205  electionCommission = msg.sender */\n  0x0100\n  exp\n  dup2\n  sload\n  dup2\n  0xffffffffffffffffffffffffffffffffffffffff\n  mul\n  not\n  and\n  swap1\n  dup4\n  0xffffffffffffffffffffffffffffffffffffffff\n  and\n  mul\n  or\n  swap1\n  sstore\n  pop\n    /* \"contracts/VotingSystem.sol\":1258:1262  true */\n  0x01\n    /* \"contracts/VotingSystem.sol\":1216:1222  voters */\n  dup1\n    /* \"contracts/VotingSystem.sol\":1216:1242  voters[electionCommission] */\n  0x00\n    /* \"contracts/VotingSystem.sol\":1223:1241  electionCommission */\n  dup1\n  0x00\n  swap1\n  sload\n  swap1\n  0x0100\n  exp\n  swap1\n  div\n  0xffffffffffffffffffffffffffffffffffffffff\n  and\n    /* \"contracts/VotingSystem.sol\":1216:1242  voters[electionCommission] */\n  0xffffffffffffffffffffffffffffffffffffffff\n  and\n  0xffffffffffffffffffffffffffffffffffffffff\n  and\n  dup2\n  mstore\n  0x20\n  add\n  swap1\n  dup2\n  mstore\n  0x20\n  add\n  0x00\n  keccak256\n    /* \"contracts/VotingSystem.sol\":1216:1255  voters[electionCommission].isRegistered */\n  0x00\n  add\n  0x00\n    /* \"contracts/VotingSystem.sol\":1216:1262  voters[electionCommission].isRegistered = true */\n  0x0100\n  exp\n  dup2\n  sload\n  dup2\n  0xff\n  mul\n  not\n  and\n  swap1\n  dup4\n  iszero\n  iszero\n  mul\n  or\n  swap1\n  sstore\n  pop\n    /* \"contracts/VotingSystem.sol\":60:3508  contract VotingSystem {... */\n  dataSize(sub_0)\n  dup1\n  dataOffset(sub_0)\n  0x00\n  codecopy\n  0x00\n  return\nstop\n\nsub_0: assembly {\n        /* \"contracts/VotingSystem.sol\":60:3508  contract VotingSystem {... */\n      mstore(0x40, 0x80)\n      callvalue\n      dup1\n      iszero\n      tag_1\n      jumpi\n      0x00\n      dup1\n      revert\n    tag_1:\n      pop\n      jumpi(tag_2, lt(calldatasize, 0x04))\n      shr(0xe0, calldataload(0x00))\n      dup1\n      0x565e802a\n      gt\n      tag_13\n      jumpi\n      dup1\n      0x565e802a\n      eq\n      tag_8\n      jumpi\n      dup1\n      0xa3ec138d\n      eq\n      tag_9\n      jumpi\n      dup1\n      0xaab46b7f\n      eq\n      tag_10\n      jumpi\n      dup1\n      0xd28178d7\n      eq\n      tag_11\n      jumpi\n      dup1\n      0xe2ba53f0\n      eq\n      tag_12\n      jumpi\n      jump(tag_2)\n    tag_13:\n      dup1\n      0x0121b93f\n      eq\n      tag_3\n      jumpi\n      dup1\n      0x2d35a8a2\n      eq\n      tag_4\n      jumpi\n      dup1\n      0x3477ee2e\n      eq\n      tag_5\n      jumpi\n      dup1\n      0x38db6dd3\n      eq\n      tag_6\n      jumpi\n      dup1\n      0x462e91ec\n      eq\n      tag_7\n      jumpi\n    tag_2:\n      0x00\n      dup1\n      revert\n        /* \"contracts/VotingSystem.sol\":2280:2808  function vote(uint candidateId) public {... */\n    tag_3:\n      tag_14\n      0x04\n      dup1\n      calldatasize\n      sub\n      dup2\n      add\n      swap1\n      tag_15\n      swap2\n      swap1\n      tag_16\n      jump\t// in\n    tag_15:\n      tag_17\n      jump\t// in\n    tag_14:\n      stop\n        /* \"contracts/VotingSystem.sol\":997:1024  uint public candidatesCount */\n    tag_4:\n      tag_18\n      tag_19\n      jump\t// in\n    tag_18:\n      mload(0x40)\n      tag_20\n      swap2\n      swap1\n      tag_21\n      jump\t// in\n    tag_20:\n      mload(0x40)\n      dup1\n      swap2\n      sub\n      swap1\n      return\n        /* \"contracts/VotingSystem.sol\":793:837  mapping(uint => Candidate) public candidates */\n    tag_5:\n      tag_22\n      0x04\n      dup1\n      calldatasize\n      sub\n      dup2\n      add\n      swap1\n      tag_23\n      swap2\n      swap1\n      tag_16\n      jump\t// in\n    tag_23:\n      tag_24\n      jump\t// in\n    tag_22:\n      mload(0x40)\n      tag_25\n      swap4\n      swap3\n      swap2\n      swap1\n      tag_26\n      jump\t// in\n    tag_25:\n      mload(0x40)\n      dup1\n      swap2\n      sub\n      swap1\n      return\n        /* \"contracts/VotingSystem.sol\":1910:2212  function registerVoter(address voterAddress) public {... */\n    tag_6:\n      tag_27\n      0x04\n      dup1\n      calldatasize\n      sub\n      dup2\n      add\n      swap1\n      tag_28\n      swap2\n      swap1\n      tag_29\n      jump\t// in\n    tag_28:\n      tag_30\n      jump\t// in\n    tag_27:\n      stop\n        /* \"contracts/VotingSystem.sol\":1357:1821  function addCandidate(string memory candidateName) public {... */\n    tag_7:\n      tag_31\n      0x04\n      dup1\n      calldatasize\n      sub\n      dup2\n      add\n      swap1\n      tag_32\n      swap2\n      swap1\n      tag_33\n      jump\t// in\n    tag_32:\n      tag_34\n      jump\t// in\n    tag_31:\n      stop\n        /* \"contracts/VotingSystem.sol\":881:933  mapping(string => bool) public isCandidateRegistered */\n    tag_8:\n      tag_35\n      0x04\n      dup1\n      calldatasize\n      sub\n      dup2\n      add\n      swap1\n      tag_36\n      swap2\n      swap1\n      tag_33\n      jump\t// in\n    tag_36:\n      tag_37\n      jump\t// in\n    tag_35:\n      mload(0x40)\n      tag_38\n      swap2\n      swap1\n      tag_39\n      jump\t// in\n    tag_38:\n      mload(0x40)\n      dup1\n      swap2\n      sub\n      swap1\n      return\n        /* \"contracts/VotingSystem.sol\":700:739  mapping(address => Voter) public voters */\n    tag_9:\n      tag_40\n      0x04\n      dup1\n      calldatasize\n      sub\n      dup2\n      add\n      swap1\n      tag_41\n      swap2\n      swap1\n      tag_29\n      jump\t// in\n    tag_41:\n      tag_42\n      jump\t// in\n    tag_40:\n      mload(0x40)\n      tag_43\n      swap4\n      swap3\n      swap2\n      swap1\n      tag_44\n      jump\t// in\n    tag_43:\n      mload(0x40)\n      dup1\n      swap2\n      sub\n      swap1\n      return\n        /* \"contracts/VotingSystem.sol\":602:635  address public electionCommission */\n    tag_10:\n      tag_45\n      tag_46\n      jump\t// in\n    tag_45:\n      mload(0x40)\n      tag_47\n      swap2\n      swap1\n      tag_48\n      jump\t// in\n    tag_47:\n      mload(0x40)\n      dup1\n      swap2\n      sub\n      swap1\n      return\n        /* \"contracts/VotingSystem.sol\":2881:3250  function winningCandidate() public view returns (uint winningCandidateId) {... */\n    tag_11:\n      tag_49\n      tag_50\n      jump\t// in\n    tag_49:\n      mload(0x40)\n      tag_51\n      swap2\n      swap1\n      tag_21\n      jump\t// in\n    tag_51:\n      mload(0x40)\n      dup1\n      swap2\n      sub\n      swap1\n      return\n        /* \"contracts/VotingSystem.sol\":3316:3505  function winnerName() public view returns (string memory winnerCandidateName) {... */\n    tag_12:\n      tag_52\n      tag_53\n      jump\t// in\n    tag_52:\n      mload(0x40)\n      tag_54\n      swap2\n      swap1\n      tag_55\n      jump\t// in\n    tag_54:\n      mload(0x40)\n      dup1\n      swap2\n      sub\n      swap1\n      return\n        /* \"contracts/VotingSystem.sol\":2280:2808  function vote(uint candidateId) public {... */\n    tag_17:\n        /* \"contracts/VotingSystem.sol\":2330:2350  Voter storage sender */\n      0x00\n        /* \"contracts/VotingSystem.sol\":2353:2359  voters */\n      0x01\n        /* \"contracts/VotingSystem.sol\":2353:2371  voters[msg.sender] */\n      0x00\n        /* \"contracts/VotingSystem.sol\":2360:2370  msg.sender */\n      caller\n        /* \"contracts/VotingSystem.sol\":2353:2371  voters[msg.sender] */\n      0xffffffffffffffffffffffffffffffffffffffff\n      and\n      0xffffffffffffffffffffffffffffffffffffffff\n      and\n      dup2\n      mstore\n      0x20\n      add\n      swap1\n      dup2\n      mstore\n      0x20\n      add\n      0x00\n      keccak256\n        /* \"contracts/VotingSystem.sol\":2330:2371  Voter storage sender = voters[msg.sender] */\n      swap1\n      pop\n        /* \"contracts/VotingSystem.sol\":2390:2396  sender */\n      dup1\n        /* \"contracts/VotingSystem.sol\":2390:2409  sender.isRegistered */\n      0x00\n      add\n      0x00\n      swap1\n      sload\n      swap1\n      0x0100\n      exp\n      swap1\n      div\n      0xff\n      and\n        /* \"contracts/VotingSystem.sol\":2382:2445  require(sender.isRegistered, \"You must be a registered voter.\") */\n      tag_57\n      jumpi\n      mload(0x40)\n      0x08c379a000000000000000000000000000000000000000000000000000000000\n      dup2\n      mstore\n      0x04\n      add\n      tag_58\n      swap1\n      tag_59\n      jump\t// in\n    tag_58:\n      mload(0x40)\n      dup1\n      swap2\n      sub\n      swap1\n      revert\n    tag_57:\n        /* \"contracts/VotingSystem.sol\":2465:2471  sender */\n      dup1\n        /* \"contracts/VotingSystem.sol\":2465:2480  sender.hasVoted */\n      0x00\n      add\n      0x01\n      swap1\n      sload\n      swap1\n      0x0100\n      exp\n      swap1\n      div\n      0xff\n      and\n        /* \"contracts/VotingSystem.sol\":2464:2480  !sender.hasVoted */\n      iszero\n        /* \"contracts/VotingSystem.sol\":2456:2508  require(!sender.hasVoted, \"You have already voted.\") */\n      tag_60\n      jumpi\n      mload(0x40)\n      0x08c379a000000000000000000000000000000000000000000000000000000000\n      dup2\n      mstore\n      0x04\n      add\n      tag_61\n      swap1\n      tag_62\n      jump\t// in\n    tag_61:\n      mload(0x40)\n      dup1\n      swap2\n      sub\n      swap1\n      revert\n    tag_60:\n        /* \"contracts/VotingSystem.sol\":2541:2542  0 */\n      0x00\n        /* \"contracts/VotingSystem.sol\":2527:2538  candidateId */\n      dup3\n        /* \"contracts/VotingSystem.sol\":2527:2542  candidateId > 0 */\n      gt\n        /* \"contracts/VotingSystem.sol\":2527:2576  candidateId > 0 && candidateId <= candidatesCount */\n      dup1\n      iszero\n      tag_63\n      jumpi\n      pop\n        /* \"contracts/VotingSystem.sol\":2561:2576  candidatesCount */\n      sload(0x04)\n        /* \"contracts/VotingSystem.sol\":2546:2557  candidateId */\n      dup3\n        /* \"contracts/VotingSystem.sol\":2546:2576  candidateId <= candidatesCount */\n      gt\n      iszero\n        /* \"contracts/VotingSystem.sol\":2527:2576  candidateId > 0 && candidateId <= candidatesCount */\n    tag_63:\n        /* \"contracts/VotingSystem.sol\":2519:2602  require(candidateId > 0 && candidateId <= candidatesCount, \"Invalid candidate ID.\") */\n      tag_64\n      jumpi\n      mload(0x40)\n      0x08c379a000000000000000000000000000000000000000000000000000000000\n      dup2\n      mstore\n      0x04\n      add\n      tag_65\n      swap1\n      tag_66\n      jump\t// in\n    tag_65:\n      mload(0x40)\n      dup1\n      swap2\n      sub\n      swap1\n      revert\n    tag_64:\n        /* \"contracts/VotingSystem.sol\":2633:2637  true */\n      0x01\n        /* \"contracts/VotingSystem.sol\":2615:2621  sender */\n      dup2\n        /* \"contracts/VotingSystem.sol\":2615:2630  sender.hasVoted */\n      0x00\n      add\n      0x01\n        /* \"contracts/VotingSystem.sol\":2615:2637  sender.hasVoted = true */\n      0x0100\n      exp\n      dup2\n      sload\n      dup2\n      0xff\n      mul\n      not\n      and\n      swap1\n      dup4\n      iszero\n      iszero\n      mul\n      or\n      swap1\n      sstore\n      pop\n        /* \"contracts/VotingSystem.sol\":2674:2685  candidateId */\n      dup2\n        /* \"contracts/VotingSystem.sol\":2648:2654  sender */\n      dup2\n        /* \"contracts/VotingSystem.sol\":2648:2671  sender.votedCandidateId */\n      0x01\n      add\n        /* \"contracts/VotingSystem.sol\":2648:2685  sender.votedCandidateId = candidateId */\n      dup2\n      swap1\n      sstore\n      pop\n        /* \"contracts/VotingSystem.sol\":2799:2800  1 */\n      0x01\n        /* \"contracts/VotingSystem.sol\":2762:2772  candidates */\n      0x02\n        /* \"contracts/VotingSystem.sol\":2762:2785  candidates[candidateId] */\n      0x00\n        /* \"contracts/VotingSystem.sol\":2773:2784  candidateId */\n      dup5\n        /* \"contracts/VotingSystem.sol\":2762:2785  candidates[candidateId] */\n      dup2\n      mstore\n      0x20\n      add\n      swap1\n      dup2\n      mstore\n      0x20\n      add\n      0x00\n      keccak256\n        /* \"contracts/VotingSystem.sol\":2762:2795  candidates[candidateId].voteCount */\n      0x02\n      add\n      0x00\n        /* \"contracts/VotingSystem.sol\":2762:2800  candidates[candidateId].voteCount += 1 */\n      dup3\n      dup3\n      sload\n      tag_67\n      swap2\n      swap1\n      tag_68\n      jump\t// in\n    tag_67:\n      swap3\n      pop\n      pop\n      dup2\n      swap1\n      sstore\n      pop\n        /* \"contracts/VotingSystem.sol\":2319:2808  {... */\n      pop\n        /* \"contracts/VotingSystem.sol\":2280:2808  function vote(uint candidateId) public {... */\n      pop\n      jump\t// out\n        /* \"contracts/VotingSystem.sol\":997:1024  uint public candidatesCount */\n    tag_19:\n      sload(0x04)\n      dup2\n      jump\t// out\n        /* \"contracts/VotingSystem.sol\":793:837  mapping(uint => Candidate) public candidates */\n    tag_24:\n      mstore(0x20, 0x02)\n      dup1\n      0x00\n      mstore\n      keccak256(0x00, 0x40)\n      0x00\n      swap2\n      pop\n      swap1\n      pop\n      dup1\n      0x00\n      add\n      sload\n      swap1\n      dup1\n      0x01\n      add\n      dup1\n      sload\n      tag_69\n      swap1\n      tag_70\n      jump\t// in\n    tag_69:\n      dup1\n      0x1f\n      add\n      0x20\n      dup1\n      swap2\n      div\n      mul\n      0x20\n      add\n      mload(0x40)\n      swap1\n      dup2\n      add\n      0x40\n      mstore\n      dup1\n      swap3\n      swap2\n      swap1\n      dup2\n      dup2\n      mstore\n      0x20\n      add\n      dup3\n      dup1\n      sload\n      tag_71\n      swap1\n      tag_70\n      jump\t// in\n    tag_71:\n      dup1\n      iszero\n      tag_72\n      jumpi\n      dup1\n      0x1f\n      lt\n      tag_73\n      jumpi\n      0x0100\n      dup1\n      dup4\n      sload\n      div\n      mul\n      dup4\n      mstore\n      swap2\n      0x20\n      add\n      swap2\n      jump(tag_72)\n    tag_73:\n      dup3\n      add\n      swap2\n      swap1\n      0x00\n      mstore\n      keccak256(0x00, 0x20)\n      swap1\n    tag_74:\n      dup2\n      sload\n      dup2\n      mstore\n      swap1\n      0x01\n      add\n      swap1\n      0x20\n      add\n      dup1\n      dup4\n      gt\n      tag_74\n      jumpi\n      dup3\n      swap1\n      sub\n      0x1f\n      and\n      dup3\n      add\n      swap2\n    tag_72:\n      pop\n      pop\n      pop\n      pop\n      pop\n      swap1\n      dup1\n      0x02\n      add\n      sload\n      swap1\n      pop\n      dup4\n      jump\t// out\n        /* \"contracts/VotingSystem.sol\":1910:2212  function registerVoter(address voterAddress) public {... */\n    tag_30:\n        /* \"contracts/VotingSystem.sol\":1995:2013  electionCommission */\n      0x00\n      dup1\n      sload\n      swap1\n      0x0100\n      exp\n      swap1\n      div\n      0xffffffffffffffffffffffffffffffffffffffff\n      and\n        /* \"contracts/VotingSystem.sol\":1981:2013  msg.sender == electionCommission */\n      0xffffffffffffffffffffffffffffffffffffffff\n      and\n        /* \"contracts/VotingSystem.sol\":1981:1991  msg.sender */\n      caller\n        /* \"contracts/VotingSystem.sol\":1981:2013  msg.sender == electionCommission */\n      0xffffffffffffffffffffffffffffffffffffffff\n      and\n      eq\n        /* \"contracts/VotingSystem.sol\":1973:2067  require(msg.sender == electionCommission, \"Only the election commission can register voters.\") */\n      tag_76\n      jumpi\n      mload(0x40)\n      0x08c379a000000000000000000000000000000000000000000000000000000000\n      dup2\n      mstore\n      0x04\n      add\n      tag_77\n      swap1\n      tag_78\n      jump\t// in\n    tag_77:\n      mload(0x40)\n      dup1\n      swap2\n      sub\n      swap1\n      revert\n    tag_76:\n        /* \"contracts/VotingSystem.sol\":2087:2093  voters */\n      0x01\n        /* \"contracts/VotingSystem.sol\":2087:2107  voters[voterAddress] */\n      0x00\n        /* \"contracts/VotingSystem.sol\":2094:2106  voterAddress */\n      dup3\n        /* \"contracts/VotingSystem.sol\":2087:2107  voters[voterAddress] */\n      0xffffffffffffffffffffffffffffffffffffffff\n      and\n      0xffffffffffffffffffffffffffffffffffffffff\n      and\n      dup2\n      mstore\n      0x20\n      add\n      swap1\n      dup2\n      mstore\n      0x20\n      add\n      0x00\n      keccak256\n        /* \"contracts/VotingSystem.sol\":2087:2120  voters[voterAddress].isRegistered */\n      0x00\n      add\n      0x00\n      swap1\n      sload\n      swap1\n      0x0100\n      exp\n      swap1\n      div\n      0xff\n      and\n        /* \"contracts/VotingSystem.sol\":2086:2120  !voters[voterAddress].isRegistered */\n      iszero\n        /* \"contracts/VotingSystem.sol\":2078:2153  require(!voters[voterAddress].isRegistered, \"Voter is already registered.\") */\n      tag_79\n      jumpi\n      mload(0x40)\n      0x08c379a000000000000000000000000000000000000000000000000000000000\n      dup2\n      mstore\n      0x04\n      add\n      tag_80\n      swap1\n      tag_81\n      jump\t// in\n    tag_80:\n      mload(0x40)\n      dup1\n      swap2\n      sub\n      swap1\n      revert\n    tag_79:\n        /* \"contracts/VotingSystem.sol\":2200:2204  true */\n      0x01\n        /* \"contracts/VotingSystem.sol\":2164:2170  voters */\n      dup1\n        /* \"contracts/VotingSystem.sol\":2164:2184  voters[voterAddress] */\n      0x00\n        /* \"contracts/VotingSystem.sol\":2171:2183  voterAddress */\n      dup4\n        /* \"contracts/VotingSystem.sol\":2164:2184  voters[voterAddress] */\n      0xffffffffffffffffffffffffffffffffffffffff\n      and\n      0xffffffffffffffffffffffffffffffffffffffff\n      and\n      dup2\n      mstore\n      0x20\n      add\n      swap1\n      dup2\n      mstore\n      0x20\n      add\n      0x00\n      keccak256\n        /* \"contracts/VotingSystem.sol\":2164:2197  voters[voterAddress].isRegistered */\n      0x00\n      add\n      0x00\n        /* \"contracts/VotingSystem.sol\":2164:2204  voters[voterAddress].isRegistered = true */\n      0x0100\n      exp\n      dup2\n      sload\n      dup2\n      0xff\n      mul\n      not\n      and\n      swap1\n      dup4\n      iszero\n      iszero\n      mul\n      or\n      swap1\n      sstore\n      pop\n        /* \"contracts/VotingSystem.sol\":1910:2212  function registerVoter(address voterAddress) public {... */\n      pop\n      jump\t// out\n        /* \"contracts/VotingSystem.sol\":1357:1821  function addCandidate(string memory candidateName) public {... */\n    tag_34:\n        /* \"contracts/VotingSystem.sol\":1448:1466  electionCommission */\n      0x00\n      dup1\n      sload\n      swap1\n      0x0100\n      exp\n      swap1\n      div\n      0xffffffffffffffffffffffffffffffffffffffff\n      and\n        /* \"contracts/VotingSystem.sol\":1434:1466  msg.sender == electionCommission */\n      0xffffffffffffffffffffffffffffffffffffffff\n      and\n        /* \"contracts/VotingSystem.sol\":1434:1444  msg.sender */\n      caller\n        /* \"contracts/VotingSystem.sol\":1434:1466  msg.sender == electionCommission */\n      0xffffffffffffffffffffffffffffffffffffffff\n      and\n      eq\n        /* \"contracts/VotingSystem.sol\":1426:1519  require(msg.sender == electionCommission, \"Only the election commission can add candidates.\") */\n      tag_83\n      jumpi\n      mload(0x40)\n      0x08c379a000000000000000000000000000000000000000000000000000000000\n      dup2\n      mstore\n      0x04\n      add\n      tag_84\n      swap1\n      tag_85\n      jump\t// in\n    tag_84:\n      mload(0x40)\n      dup1\n      swap2\n      sub\n      swap1\n      revert\n    tag_83:\n        /* \"contracts/VotingSystem.sol\":1539:1560  isCandidateRegistered */\n      0x03\n        /* \"contracts/VotingSystem.sol\":1561:1574  candidateName */\n      dup2\n        /* \"contracts/VotingSystem.sol\":1539:1575  isCandidateRegistered[candidateName] */\n      mload(0x40)\n      tag_86\n      swap2\n      swap1\n      tag_87\n      jump\t// in\n    tag_86:\n      swap1\n      dup2\n      mstore\n      0x20\n      add\n      mload(0x40)\n      dup1\n      swap2\n      sub\n      swap1\n      keccak256\n      0x00\n      swap1\n      sload\n      swap1\n      0x0100\n      exp\n      swap1\n      div\n      0xff\n      and\n        /* \"contracts/VotingSystem.sol\":1538:1575  !isCandidateRegistered[candidateName] */\n      iszero\n        /* \"contracts/VotingSystem.sol\":1530:1612  require(!isCandidateRegistered[candidateName], \"Candidate is already registered.\") */\n      tag_88\n      jumpi\n      mload(0x40)\n      0x08c379a000000000000000000000000000000000000000000000000000000000\n      dup2\n      mstore\n      0x04\n      add\n      tag_89\n      swap1\n      tag_90\n      jump\t// in\n    tag_89:\n      mload(0x40)\n      dup1\n      swap2\n      sub\n      swap1\n      revert\n    tag_88:\n        /* \"contracts/VotingSystem.sol\":1625:1640  candidatesCount */\n      0x04\n      0x00\n        /* \"contracts/VotingSystem.sol\":1625:1642  candidatesCount++ */\n      dup2\n      sload\n      dup1\n      swap3\n      swap2\n      swap1\n      tag_91\n      swap1\n      tag_92\n      jump\t// in\n    tag_91:\n      swap2\n      swap1\n      pop\n      sstore\n      pop\n        /* \"contracts/VotingSystem.sol\":1683:1727  Candidate(candidatesCount, candidateName, 0) */\n      mload(0x40)\n      dup1\n      0x60\n      add\n      0x40\n      mstore\n      dup1\n        /* \"contracts/VotingSystem.sol\":1693:1708  candidatesCount */\n      sload(0x04)\n        /* \"contracts/VotingSystem.sol\":1683:1727  Candidate(candidatesCount, candidateName, 0) */\n      dup2\n      mstore\n      0x20\n      add\n        /* \"contracts/VotingSystem.sol\":1710:1723  candidateName */\n      dup3\n        /* \"contracts/VotingSystem.sol\":1683:1727  Candidate(candidatesCount, candidateName, 0) */\n      dup2\n      mstore\n      0x20\n      add\n        /* \"contracts/VotingSystem.sol\":1725:1726  0 */\n      0x00\n        /* \"contracts/VotingSystem.sol\":1683:1727  Candidate(candidatesCount, candidateName, 0) */\n      dup2\n      mstore\n      pop\n        /* \"contracts/VotingSystem.sol\":1653:1663  candidates */\n      0x02\n        /* \"contracts/VotingSystem.sol\":1653:1680  candidates[candidatesCount] */\n      0x00\n        /* \"contracts/VotingSystem.sol\":1664:1679  candidatesCount */\n      sload(0x04)\n        /* \"contracts/VotingSystem.sol\":1653:1680  candidates[candidatesCount] */\n      dup2\n      mstore\n      0x20\n      add\n      swap1\n      dup2\n      mstore\n      0x20\n      add\n      0x00\n      keccak256\n        /* \"contracts/VotingSystem.sol\":1653:1727  candidates[candidatesCount] = Candidate(candidatesCount, candidateName, 0) */\n      0x00\n      dup3\n      add\n      mload\n      dup2\n      0x00\n      add\n      sstore\n      0x20\n      dup3\n      add\n      mload\n      dup2\n      0x01\n      add\n      swap1\n      dup2\n      tag_93\n      swap2\n      swap1\n      tag_94\n      jump\t// in\n    tag_93:\n      pop\n      0x40\n      dup3\n      add\n      mload\n      dup2\n      0x02\n      add\n      sstore\n      swap1\n      pop\n      pop\n        /* \"contracts/VotingSystem.sol\":1777:1781  true */\n      0x01\n        /* \"contracts/VotingSystem.sol\":1738:1759  isCandidateRegistered */\n      0x03\n        /* \"contracts/VotingSystem.sol\":1760:1773  candidateName */\n      dup3\n        /* \"contracts/VotingSystem.sol\":1738:1774  isCandidateRegistered[candidateName] */\n      mload(0x40)\n      tag_95\n      swap2\n      swap1\n      tag_87\n      jump\t// in\n    tag_95:\n      swap1\n      dup2\n      mstore\n      0x20\n      add\n      mload(0x40)\n      dup1\n      swap2\n      sub\n      swap1\n      keccak256\n      0x00\n        /* \"contracts/VotingSystem.sol\":1738:1781  isCandidateRegistered[candidateName] = true */\n      0x0100\n      exp\n      dup2\n      sload\n      dup2\n      0xff\n      mul\n      not\n      and\n      swap1\n      dup4\n      iszero\n      iszero\n      mul\n      or\n      swap1\n      sstore\n      pop\n        /* \"contracts/VotingSystem.sol\":1357:1821  function addCandidate(string memory candidateName) public {... */\n      pop\n      jump\t// out\n        /* \"contracts/VotingSystem.sol\":881:933  mapping(string => bool) public isCandidateRegistered */\n    tag_37:\n      0x03\n      dup2\n      dup1\n      mload\n      0x20\n      dup2\n      add\n      dup3\n      add\n      dup1\n      mload\n      dup5\n      dup3\n      mstore\n      0x20\n      dup4\n      add\n      0x20\n      dup6\n      add\n      keccak256\n      dup2\n      dup4\n      mstore\n      dup1\n      swap6\n      pop\n      pop\n      pop\n      pop\n      pop\n      pop\n      0x00\n      swap2\n      pop\n      sload\n      swap1\n      0x0100\n      exp\n      swap1\n      div\n      0xff\n      and\n      dup2\n      jump\t// out\n        /* \"contracts/VotingSystem.sol\":700:739  mapping(address => Voter) public voters */\n    tag_42:\n      mstore(0x20, 0x01)\n      dup1\n      0x00\n      mstore\n      keccak256(0x00, 0x40)\n      0x00\n      swap2\n      pop\n      swap1\n      pop\n      dup1\n      0x00\n      add\n      0x00\n      swap1\n      sload\n      swap1\n      0x0100\n      exp\n      swap1\n      div\n      0xff\n      and\n      swap1\n      dup1\n      0x00\n      add\n      0x01\n      swap1\n      sload\n      swap1\n      0x0100\n      exp\n      swap1\n      div\n      0xff\n      and\n      swap1\n      dup1\n      0x01\n      add\n      sload\n      swap1\n      pop\n      dup4\n      jump\t// out\n        /* \"contracts/VotingSystem.sol\":602:635  address public electionCommission */\n    tag_46:\n      0x00\n      dup1\n      sload\n      swap1\n      0x0100\n      exp\n      swap1\n      div\n      0xffffffffffffffffffffffffffffffffffffffff\n      and\n      dup2\n      jump\t// out\n        /* \"contracts/VotingSystem.sol\":2881:3250  function winningCandidate() public view returns (uint winningCandidateId) {... */\n    tag_50:\n        /* \"contracts/VotingSystem.sol\":2930:2953  uint winningCandidateId */\n      0x00\n        /* \"contracts/VotingSystem.sol\":2966:2983  uint maxVoteCount */\n      dup1\n        /* \"contracts/VotingSystem.sol\":2986:2987  0 */\n      0x00\n        /* \"contracts/VotingSystem.sol\":2966:2987  uint maxVoteCount = 0 */\n      swap1\n      pop\n        /* \"contracts/VotingSystem.sol\":3005:3011  uint i */\n      0x00\n        /* \"contracts/VotingSystem.sol\":3014:3015  1 */\n      0x01\n        /* \"contracts/VotingSystem.sol\":3005:3015  uint i = 1 */\n      swap1\n      pop\n        /* \"contracts/VotingSystem.sol\":3000:3243  for (uint i = 1; i <= candidatesCount; i++) {... */\n    tag_97:\n        /* \"contracts/VotingSystem.sol\":3022:3037  candidatesCount */\n      sload(0x04)\n        /* \"contracts/VotingSystem.sol\":3017:3018  i */\n      dup2\n        /* \"contracts/VotingSystem.sol\":3017:3037  i <= candidatesCount */\n      gt\n        /* \"contracts/VotingSystem.sol\":3000:3243  for (uint i = 1; i <= candidatesCount; i++) {... */\n      tag_98\n      jumpi\n        /* \"contracts/VotingSystem.sol\":3089:3101  maxVoteCount */\n      dup2\n        /* \"contracts/VotingSystem.sol\":3063:3073  candidates */\n      0x02\n        /* \"contracts/VotingSystem.sol\":3063:3076  candidates[i] */\n      0x00\n        /* \"contracts/VotingSystem.sol\":3074:3075  i */\n      dup4\n        /* \"contracts/VotingSystem.sol\":3063:3076  candidates[i] */\n      dup2\n      mstore\n      0x20\n      add\n      swap1\n      dup2\n      mstore\n      0x20\n      add\n      0x00\n      keccak256\n        /* \"contracts/VotingSystem.sol\":3063:3086  candidates[i].voteCount */\n      0x02\n      add\n      sload\n        /* \"contracts/VotingSystem.sol\":3063:3101  candidates[i].voteCount > maxVoteCount */\n      gt\n        /* \"contracts/VotingSystem.sol\":3059:3232  if (candidates[i].voteCount > maxVoteCount) {... */\n      iszero\n      tag_100\n      jumpi\n        /* \"contracts/VotingSystem.sol\":3137:3147  candidates */\n      0x02\n        /* \"contracts/VotingSystem.sol\":3137:3150  candidates[i] */\n      0x00\n        /* \"contracts/VotingSystem.sol\":3148:3149  i */\n      dup3\n        /* \"contracts/VotingSystem.sol\":3137:3150  candidates[i] */\n      dup2\n      mstore\n      0x20\n      add\n      swap1\n      dup2\n      mstore\n      0x20\n      add\n      0x00\n      keccak256\n        /* \"contracts/VotingSystem.sol\":3137:3160  candidates[i].voteCount */\n      0x02\n      add\n      sload\n        /* \"contracts/VotingSystem.sol\":3122:3160  maxVoteCount = candidates[i].voteCount */\n      swap2\n      pop\n        /* \"contracts/VotingSystem.sol\":3200:3210  candidates */\n      0x02\n        /* \"contracts/VotingSystem.sol\":3200:3213  candidates[i] */\n      0x00\n        /* \"contracts/VotingSystem.sol\":3211:3212  i */\n      dup3\n        /* \"contracts/VotingSystem.sol\":3200:3213  candidates[i] */\n      dup2\n      mstore\n      0x20\n      add\n      swap1\n      dup2\n      mstore\n      0x20\n      add\n      0x00\n      keccak256\n        /* \"contracts/VotingSystem.sol\":3200:3216  candidates[i].id */\n      0x00\n      add\n      sload\n        /* \"contracts/VotingSystem.sol\":3179:3216  winningCandidateId = candidates[i].id */\n      swap3\n      pop\n        /* \"contracts/VotingSystem.sol\":3059:3232  if (candidates[i].voteCount > maxVoteCount) {... */\n    tag_100:\n        /* \"contracts/VotingSystem.sol\":3039:3042  i++ */\n      dup1\n      dup1\n      tag_101\n      swap1\n      tag_92\n      jump\t// in\n    tag_101:\n      swap2\n      pop\n      pop\n        /* \"contracts/VotingSystem.sol\":3000:3243  for (uint i = 1; i <= candidatesCount; i++) {... */\n      jump(tag_97)\n    tag_98:\n      pop\n        /* \"contracts/VotingSystem.sol\":2955:3250  {... */\n      pop\n        /* \"contracts/VotingSystem.sol\":2881:3250  function winningCandidate() public view returns (uint winningCandidateId) {... */\n      swap1\n      jump\t// out\n        /* \"contracts/VotingSystem.sol\":3316:3505  function winnerName() public view returns (string memory winnerCandidateName) {... */\n    tag_53:\n        /* \"contracts/VotingSystem.sol\":3359:3392  string memory winnerCandidateName */\n      0x60\n        /* \"contracts/VotingSystem.sol\":3405:3418  uint winnerId */\n      0x00\n        /* \"contracts/VotingSystem.sol\":3421:3439  winningCandidate() */\n      tag_103\n        /* \"contracts/VotingSystem.sol\":3421:3437  winningCandidate */\n      tag_50\n        /* \"contracts/VotingSystem.sol\":3421:3439  winningCandidate() */\n      jump\t// in\n    tag_103:\n        /* \"contracts/VotingSystem.sol\":3405:3439  uint winnerId = winningCandidate() */\n      swap1\n      pop\n        /* \"contracts/VotingSystem.sol\":3472:3482  candidates */\n      0x02\n        /* \"contracts/VotingSystem.sol\":3472:3492  candidates[winnerId] */\n      0x00\n        /* \"contracts/VotingSystem.sol\":3483:3491  winnerId */\n      dup3\n        /* \"contracts/VotingSystem.sol\":3472:3492  candidates[winnerId] */\n      dup2\n      mstore\n      0x20\n      add\n      swap1\n      dup2\n      mstore\n      0x20\n      add\n      0x00\n      keccak256\n        /* \"contracts/VotingSystem.sol\":3472:3497  candidates[winnerId].name */\n      0x01\n      add\n        /* \"contracts/VotingSystem.sol\":3450:3497  winnerCandidateName = candidates[winnerId].name */\n      dup1\n      sload\n      tag_104\n      swap1\n      tag_70\n      jump\t// in\n    tag_104:\n      dup1\n      0x1f\n      add\n      0x20\n      dup1\n      swap2\n      div\n      mul\n      0x20\n      add\n      mload(0x40)\n      swap1\n      dup2\n      add\n      0x40\n      mstore\n      dup1\n      swap3\n      swap2\n      swap1\n      dup2\n      dup2\n      mstore\n      0x20\n      add\n      dup3\n      dup1\n      sload\n      tag_105\n      swap1\n      tag_70\n      jump\t// in\n    tag_105:\n      dup1\n      iszero\n      tag_106\n      jumpi\n      dup1\n      0x1f\n      lt\n      tag_107\n      jumpi\n      0x0100\n      dup1\n      dup4\n      sload\n      div\n      mul\n      dup4\n      mstore\n      swap2\n      0x20\n      add\n      swap2\n      jump(tag_106)\n    tag_107:\n      dup3\n      add\n      swap2\n      swap1\n      0x00\n      mstore\n      keccak256(0x00, 0x20)\n      swap1\n    tag_108:\n      dup2\n      sload\n      dup2\n      mstore\n      swap1\n      0x01\n      add\n      swap1\n      0x20\n      add\n      dup1\n      dup4\n      gt\n      tag_108\n      jumpi\n      dup3\n      swap1\n      sub\n      0x1f\n      and\n      dup3\n      add\n      swap2\n    tag_106:\n      pop\n      pop\n      pop\n      pop\n      pop\n      swap2\n      pop\n        /* \"contracts/VotingSystem.sol\":3394:3505  {... */\n      pop\n        /* \"contracts/VotingSystem.sol\":3316:3505  function winnerName() public view returns (string memory winnerCandidateName) {... */\n      swap1\n      jump\t// out\n        /* \"#utility.yul\":7:82   */\n    tag_109:\n        /* \"#utility.yul\":40:46   */\n      0x00\n        /* \"#utility.yul\":73:75   */\n      0x40\n        /* \"#utility.yul\":67:76   */\n      mload\n        /* \"#utility.yul\":57:76   */\n      swap1\n      pop\n        /* \"#utility.yul\":7:82   */\n      swap1\n      jump\t// out\n        /* \"#utility.yul\":88:205   */\n    tag_110:\n        /* \"#utility.yul\":197:198   */\n      0x00\n        /* \"#utility.yul\":194:195   */\n      dup1\n        /* \"#utility.yul\":187:199   */\n      revert\n        /* \"#utility.yul\":211:328   */\n    tag_111:\n        /* \"#utility.yul\":320:321   */\n      0x00\n        /* \"#utility.yul\":317:318   */\n      dup1\n        /* \"#utility.yul\":310:322   */\n      revert\n        /* \"#utility.yul\":334:411   */\n    tag_112:\n        /* \"#utility.yul\":371:378   */\n      0x00\n        /* \"#utility.yul\":400:405   */\n      dup2\n        /* \"#utility.yul\":389:405   */\n      swap1\n      pop\n        /* \"#utility.yul\":334:411   */\n      swap2\n      swap1\n      pop\n      jump\t// out\n        /* \"#utility.yul\":417:539   */\n    tag_113:\n        /* \"#utility.yul\":490:514   */\n      tag_176\n        /* \"#utility.yul\":508:513   */\n      dup2\n        /* \"#utility.yul\":490:514   */\n      tag_112\n      jump\t// in\n    tag_176:\n        /* \"#utility.yul\":483:488   */\n      dup2\n        /* \"#utility.yul\":480:515   */\n      eq\n        /* \"#utility.yul\":470:533   */\n      tag_177\n      jumpi\n        /* \"#utility.yul\":529:530   */\n      0x00\n        /* \"#utility.yul\":526:527   */\n      dup1\n        /* \"#utility.yul\":519:531   */\n      revert\n        /* \"#utility.yul\":470:533   */\n    tag_177:\n        /* \"#utility.yul\":417:539   */\n      pop\n      jump\t// out\n        /* \"#utility.yul\":545:684   */\n    tag_114:\n        /* \"#utility.yul\":591:596   */\n      0x00\n        /* \"#utility.yul\":629:635   */\n      dup2\n        /* \"#utility.yul\":616:636   */\n      calldataload\n        /* \"#utility.yul\":607:636   */\n      swap1\n      pop\n        /* \"#utility.yul\":645:678   */\n      tag_179\n        /* \"#utility.yul\":672:677   */\n      dup2\n        /* \"#utility.yul\":645:678   */\n      tag_113\n      jump\t// in\n    tag_179:\n        /* \"#utility.yul\":545:684   */\n      swap3\n      swap2\n      pop\n      pop\n      jump\t// out\n        /* \"#utility.yul\":690:1019   */\n    tag_16:\n        /* \"#utility.yul\":749:755   */\n      0x00\n        /* \"#utility.yul\":798:800   */\n      0x20\n        /* \"#utility.yul\":786:795   */\n      dup3\n        /* \"#utility.yul\":777:784   */\n      dup5\n        /* \"#utility.yul\":773:796   */\n      sub\n        /* \"#utility.yul\":769:801   */\n      slt\n        /* \"#utility.yul\":766:885   */\n      iszero\n      tag_181\n      jumpi\n        /* \"#utility.yul\":804:883   */\n      tag_182\n      tag_110\n      jump\t// in\n    tag_182:\n        /* \"#utility.yul\":766:885   */\n    tag_181:\n        /* \"#utility.yul\":924:925   */\n      0x00\n        /* \"#utility.yul\":949:1002   */\n      tag_183\n        /* \"#utility.yul\":994:1001   */\n      dup5\n        /* \"#utility.yul\":985:991   */\n      dup3\n        /* \"#utility.yul\":974:983   */\n      dup6\n        /* \"#utility.yul\":970:992   */\n      add\n        /* \"#utility.yul\":949:1002   */\n      tag_114\n      jump\t// in\n    tag_183:\n        /* \"#utility.yul\":939:1002   */\n      swap2\n      pop\n        /* \"#utility.yul\":895:1012   */\n      pop\n        /* \"#utility.yul\":690:1019   */\n      swap3\n      swap2\n      pop\n      pop\n      jump\t// out\n        /* \"#utility.yul\":1025:1143   */\n    tag_115:\n        /* \"#utility.yul\":1112:1136   */\n      tag_185\n        /* \"#utility.yul\":1130:1135   */\n      dup2\n        /* \"#utility.yul\":1112:1136   */\n      tag_112\n      jump\t// in\n    tag_185:\n        /* \"#utility.yul\":1107:1110   */\n      dup3\n        /* \"#utility.yul\":1100:1137   */\n      mstore\n        /* \"#utility.yul\":1025:1143   */\n      pop\n      pop\n      jump\t// out\n        /* \"#utility.yul\":1149:1371   */\n    tag_21:\n        /* \"#utility.yul\":1242:1246   */\n      0x00\n        /* \"#utility.yul\":1280:1282   */\n      0x20\n        /* \"#utility.yul\":1269:1278   */\n      dup3\n        /* \"#utility.yul\":1265:1283   */\n      add\n        /* \"#utility.yul\":1257:1283   */\n      swap1\n      pop\n        /* \"#utility.yul\":1293:1364   */\n      tag_187\n        /* \"#utility.yul\":1361:1362   */\n      0x00\n        /* \"#utility.yul\":1350:1359   */\n      dup4\n        /* \"#utility.yul\":1346:1363   */\n      add\n        /* \"#utility.yul\":1337:1343   */\n      dup5\n        /* \"#utility.yul\":1293:1364   */\n      tag_115\n      jump\t// in\n    tag_187:\n        /* \"#utility.yul\":1149:1371   */\n      swap3\n      swap2\n      pop\n      pop\n      jump\t// out\n        /* \"#utility.yul\":1377:1476   */\n    tag_116:\n        /* \"#utility.yul\":1429:1435   */\n      0x00\n        /* \"#utility.yul\":1463:1468   */\n      dup2\n        /* \"#utility.yul\":1457:1469   */\n      mload\n        /* \"#utility.yul\":1447:1469   */\n      swap1\n      pop\n        /* \"#utility.yul\":1377:1476   */\n      swap2\n      swap1\n      pop\n      jump\t// out\n        /* \"#utility.yul\":1482:1651   */\n    tag_117:\n        /* \"#utility.yul\":1566:1577   */\n      0x00\n        /* \"#utility.yul\":1600:1606   */\n      dup3\n        /* \"#utility.yul\":1595:1598   */\n      dup3\n        /* \"#utility.yul\":1588:1607   */\n      mstore\n        /* \"#utility.yul\":1640:1644   */\n      0x20\n        /* \"#utility.yul\":1635:1638   */\n      dup3\n        /* \"#utility.yul\":1631:1645   */\n      add\n        /* \"#utility.yul\":1616:1645   */\n      swap1\n      pop\n        /* \"#utility.yul\":1482:1651   */\n      swap3\n      swap2\n      pop\n      pop\n      jump\t// out\n        /* \"#utility.yul\":1657:1796   */\n    tag_118:\n        /* \"#utility.yul\":1746:1752   */\n      dup3\n        /* \"#utility.yul\":1741:1744   */\n      dup2\n        /* \"#utility.yul\":1736:1739   */\n      dup4\n        /* \"#utility.yul\":1730:1753   */\n      mcopy\n        /* \"#utility.yul\":1787:1788   */\n      0x00\n        /* \"#utility.yul\":1778:1784   */\n      dup4\n        /* \"#utility.yul\":1773:1776   */\n      dup4\n        /* \"#utility.yul\":1769:1785   */\n      add\n        /* \"#utility.yul\":1762:1789   */\n      mstore\n        /* \"#utility.yul\":1657:1796   */\n      pop\n      pop\n      pop\n      jump\t// out\n        /* \"#utility.yul\":1802:1904   */\n    tag_119:\n        /* \"#utility.yul\":1843:1849   */\n      0x00\n        /* \"#utility.yul\":1894:1896   */\n      0x1f\n        /* \"#utility.yul\":1890:1897   */\n      not\n        /* \"#utility.yul\":1885:1887   */\n      0x1f\n        /* \"#utility.yul\":1878:1883   */\n      dup4\n        /* \"#utility.yul\":1874:1888   */\n      add\n        /* \"#utility.yul\":1870:1898   */\n      and\n        /* \"#utility.yul\":1860:1898   */\n      swap1\n      pop\n        /* \"#utility.yul\":1802:1904   */\n      swap2\n      swap1\n      pop\n      jump\t// out\n        /* \"#utility.yul\":1910:2287   */\n    tag_120:\n        /* \"#utility.yul\":1998:2001   */\n      0x00\n        /* \"#utility.yul\":2026:2065   */\n      tag_193\n        /* \"#utility.yul\":2059:2064   */\n      dup3\n        /* \"#utility.yul\":2026:2065   */\n      tag_116\n      jump\t// in\n    tag_193:\n        /* \"#utility.yul\":2081:2152   */\n      tag_194\n        /* \"#utility.yul\":2145:2151   */\n      dup2\n        /* \"#utility.yul\":2140:2143   */\n      dup6\n        /* \"#utility.yul\":2081:2152   */\n      tag_117\n      jump\t// in\n    tag_194:\n        /* \"#utility.yul\":2074:2152   */\n      swap4\n      pop\n        /* \"#utility.yul\":2161:2226   */\n      tag_195\n        /* \"#utility.yul\":2219:2225   */\n      dup2\n        /* \"#utility.yul\":2214:2217   */\n      dup6\n        /* \"#utility.yul\":2207:2211   */\n      0x20\n        /* \"#utility.yul\":2200:2205   */\n      dup7\n        /* \"#utility.yul\":2196:2212   */\n      add\n        /* \"#utility.yul\":2161:2226   */\n      tag_118\n      jump\t// in\n    tag_195:\n        /* \"#utility.yul\":2251:2280   */\n      tag_196\n        /* \"#utility.yul\":2273:2279   */\n      dup2\n        /* \"#utility.yul\":2251:2280   */\n      tag_119\n      jump\t// in\n    tag_196:\n        /* \"#utility.yul\":2246:2249   */\n      dup5\n        /* \"#utility.yul\":2242:2281   */\n      add\n        /* \"#utility.yul\":2235:2281   */\n      swap2\n      pop\n        /* \"#utility.yul\":2002:2287   */\n      pop\n        /* \"#utility.yul\":1910:2287   */\n      swap3\n      swap2\n      pop\n      pop\n      jump\t// out\n        /* \"#utility.yul\":2293:2826   */\n    tag_26:\n        /* \"#utility.yul\":2462:2466   */\n      0x00\n        /* \"#utility.yul\":2500:2502   */\n      0x60\n        /* \"#utility.yul\":2489:2498   */\n      dup3\n        /* \"#utility.yul\":2485:2503   */\n      add\n        /* \"#utility.yul\":2477:2503   */\n      swap1\n      pop\n        /* \"#utility.yul\":2513:2584   */\n      tag_198\n        /* \"#utility.yul\":2581:2582   */\n      0x00\n        /* \"#utility.yul\":2570:2579   */\n      dup4\n        /* \"#utility.yul\":2566:2583   */\n      add\n        /* \"#utility.yul\":2557:2563   */\n      dup7\n        /* \"#utility.yul\":2513:2584   */\n      tag_115\n      jump\t// in\n    tag_198:\n        /* \"#utility.yul\":2631:2640   */\n      dup2\n        /* \"#utility.yul\":2625:2629   */\n      dup2\n        /* \"#utility.yul\":2621:2641   */\n      sub\n        /* \"#utility.yul\":2616:2618   */\n      0x20\n        /* \"#utility.yul\":2605:2614   */\n      dup4\n        /* \"#utility.yul\":2601:2619   */\n      add\n        /* \"#utility.yul\":2594:2642   */\n      mstore\n        /* \"#utility.yul\":2659:2737   */\n      tag_199\n        /* \"#utility.yul\":2732:2736   */\n      dup2\n        /* \"#utility.yul\":2723:2729   */\n      dup6\n        /* \"#utility.yul\":2659:2737   */\n      tag_120\n      jump\t// in\n    tag_199:\n        /* \"#utility.yul\":2651:2737   */\n      swap1\n      pop\n        /* \"#utility.yul\":2747:2819   */\n      tag_200\n        /* \"#utility.yul\":2815:2817   */\n      0x40\n        /* \"#utility.yul\":2804:2813   */\n      dup4\n        /* \"#utility.yul\":2800:2818   */\n      add\n        /* \"#utility.yul\":2791:2797   */\n      dup5\n        /* \"#utility.yul\":2747:2819   */\n      tag_115\n      jump\t// in\n    tag_200:\n        /* \"#utility.yul\":2293:2826   */\n      swap5\n      swap4\n      pop\n      pop\n      pop\n      pop\n      jump\t// out\n        /* \"#utility.yul\":2832:2958   */\n    tag_121:\n        /* \"#utility.yul\":2869:2876   */\n      0x00\n        /* \"#utility.yul\":2909:2951   */\n      0xffffffffffffffffffffffffffffffffffffffff\n        /* \"#utility.yul\":2902:2907   */\n      dup3\n        /* \"#utility.yul\":2898:2952   */\n      and\n        /* \"#utility.yul\":2887:2952   */\n      swap1\n      pop\n        /* \"#utility.yul\":2832:2958   */\n      swap2\n      swap1\n      pop\n      jump\t// out\n        /* \"#utility.yul\":2964:3060   */\n    tag_122:\n        /* \"#utility.yul\":3001:3008   */\n      0x00\n        /* \"#utility.yul\":3030:3054   */\n      tag_203\n        /* \"#utility.yul\":3048:3053   */\n      dup3\n        /* \"#utility.yul\":3030:3054   */\n      tag_121\n      jump\t// in\n    tag_203:\n        /* \"#utility.yul\":3019:3054   */\n      swap1\n      pop\n        /* \"#utility.yul\":2964:3060   */\n      swap2\n      swap1\n      pop\n      jump\t// out\n        /* \"#utility.yul\":3066:3188   */\n    tag_123:\n        /* \"#utility.yul\":3139:3163   */\n      tag_205\n        /* \"#utility.yul\":3157:3162   */\n      dup2\n        /* \"#utility.yul\":3139:3163   */\n      tag_122\n      jump\t// in\n    tag_205:\n        /* \"#utility.yul\":3132:3137   */\n      dup2\n        /* \"#utility.yul\":3129:3164   */\n      eq\n        /* \"#utility.yul\":3119:3182   */\n      tag_206\n      jumpi\n        /* \"#utility.yul\":3178:3179   */\n      0x00\n        /* \"#utility.yul\":3175:3176   */\n      dup1\n        /* \"#utility.yul\":3168:3180   */\n      revert\n        /* \"#utility.yul\":3119:3182   */\n    tag_206:\n        /* \"#utility.yul\":3066:3188   */\n      pop\n      jump\t// out\n        /* \"#utility.yul\":3194:3333   */\n    tag_124:\n        /* \"#utility.yul\":3240:3245   */\n      0x00\n        /* \"#utility.yul\":3278:3284   */\n      dup2\n        /* \"#utility.yul\":3265:3285   */\n      calldataload\n        /* \"#utility.yul\":3256:3285   */\n      swap1\n      pop\n        /* \"#utility.yul\":3294:3327   */\n      tag_208\n        /* \"#utility.yul\":3321:3326   */\n      dup2\n        /* \"#utility.yul\":3294:3327   */\n      tag_123\n      jump\t// in\n    tag_208:\n        /* \"#utility.yul\":3194:3333   */\n      swap3\n      swap2\n      pop\n      pop\n      jump\t// out\n        /* \"#utility.yul\":3339:3668   */\n    tag_29:\n        /* \"#utility.yul\":3398:3404   */\n      0x00\n        /* \"#utility.yul\":3447:3449   */\n      0x20\n        /* \"#utility.yul\":3435:3444   */\n      dup3\n        /* \"#utility.yul\":3426:3433   */\n      dup5\n        /* \"#utility.yul\":3422:3445   */\n      sub\n        /* \"#utility.yul\":3418:3450   */\n      slt\n        /* \"#utility.yul\":3415:3534   */\n      iszero\n      tag_210\n      jumpi\n        /* \"#utility.yul\":3453:3532   */\n      tag_211\n      tag_110\n      jump\t// in\n    tag_211:\n        /* \"#utility.yul\":3415:3534   */\n    tag_210:\n        /* \"#utility.yul\":3573:3574   */\n      0x00\n        /* \"#utility.yul\":3598:3651   */\n      tag_212\n        /* \"#utility.yul\":3643:3650   */\n      dup5\n        /* \"#utility.yul\":3634:3640   */\n      dup3\n        /* \"#utility.yul\":3623:3632   */\n      dup6\n        /* \"#utility.yul\":3619:3641   */\n      add\n        /* \"#utility.yul\":3598:3651   */\n      tag_124\n      jump\t// in\n    tag_212:\n        /* \"#utility.yul\":3588:3651   */\n      swap2\n      pop\n        /* \"#utility.yul\":3544:3661   */\n      pop\n        /* \"#utility.yul\":3339:3668   */\n      swap3\n      swap2\n      pop\n      pop\n      jump\t// out\n        /* \"#utility.yul\":3674:3791   */\n    tag_125:\n        /* \"#utility.yul\":3783:3784   */\n      0x00\n        /* \"#utility.yul\":3780:3781   */\n      dup1\n        /* \"#utility.yul\":3773:3785   */\n      revert\n        /* \"#utility.yul\":3797:3914   */\n    tag_126:\n        /* \"#utility.yul\":3906:3907   */\n      0x00\n        /* \"#utility.yul\":3903:3904   */\n      dup1\n        /* \"#utility.yul\":3896:3908   */\n      revert\n        /* \"#utility.yul\":3920:4100   */\n    tag_127:\n        /* \"#utility.yul\":3968:4045   */\n      0x4e487b7100000000000000000000000000000000000000000000000000000000\n        /* \"#utility.yul\":3965:3966   */\n      0x00\n        /* \"#utility.yul\":3958:4046   */\n      mstore\n        /* \"#utility.yul\":4065:4069   */\n      0x41\n        /* \"#utility.yul\":4062:4063   */\n      0x04\n        /* \"#utility.yul\":4055:4070   */\n      mstore\n        /* \"#utility.yul\":4089:4093   */\n      0x24\n        /* \"#utility.yul\":4086:4087   */\n      0x00\n        /* \"#utility.yul\":4079:4094   */\n      revert\n        /* \"#utility.yul\":4106:4387   */\n    tag_128:\n        /* \"#utility.yul\":4189:4216   */\n      tag_217\n        /* \"#utility.yul\":4211:4215   */\n      dup3\n        /* \"#utility.yul\":4189:4216   */\n      tag_119\n      jump\t// in\n    tag_217:\n        /* \"#utility.yul\":4181:4187   */\n      dup2\n        /* \"#utility.yul\":4177:4217   */\n      add\n        /* \"#utility.yul\":4319:4325   */\n      dup2\n        /* \"#utility.yul\":4307:4317   */\n      dup2\n        /* \"#utility.yul\":4304:4326   */\n      lt\n        /* \"#utility.yul\":4283:4301   */\n      0xffffffffffffffff\n        /* \"#utility.yul\":4271:4281   */\n      dup3\n        /* \"#utility.yul\":4268:4302   */\n      gt\n        /* \"#utility.yul\":4265:4327   */\n      or\n        /* \"#utility.yul\":4262:4350   */\n      iszero\n      tag_218\n      jumpi\n        /* \"#utility.yul\":4330:4348   */\n      tag_219\n      tag_127\n      jump\t// in\n    tag_219:\n        /* \"#utility.yul\":4262:4350   */\n    tag_218:\n        /* \"#utility.yul\":4370:4380   */\n      dup1\n        /* \"#utility.yul\":4366:4368   */\n      0x40\n        /* \"#utility.yul\":4359:4381   */\n      mstore\n        /* \"#utility.yul\":4149:4387   */\n      pop\n        /* \"#utility.yul\":4106:4387   */\n      pop\n      pop\n      jump\t// out\n        /* \"#utility.yul\":4393:4522   */\n    tag_129:\n        /* \"#utility.yul\":4427:4433   */\n      0x00\n        /* \"#utility.yul\":4454:4474   */\n      tag_221\n      tag_109\n      jump\t// in\n    tag_221:\n        /* \"#utility.yul\":4444:4474   */\n      swap1\n      pop\n        /* \"#utility.yul\":4483:4516   */\n      tag_222\n        /* \"#utility.yul\":4511:4515   */\n      dup3\n        /* \"#utility.yul\":4503:4509   */\n      dup3\n        /* \"#utility.yul\":4483:4516   */\n      tag_128\n      jump\t// in\n    tag_222:\n        /* \"#utility.yul\":4393:4522   */\n      swap2\n      swap1\n      pop\n      jump\t// out\n        /* \"#utility.yul\":4528:4836   */\n    tag_130:\n        /* \"#utility.yul\":4590:4594   */\n      0x00\n        /* \"#utility.yul\":4680:4698   */\n      0xffffffffffffffff\n        /* \"#utility.yul\":4672:4678   */\n      dup3\n        /* \"#utility.yul\":4669:4699   */\n      gt\n        /* \"#utility.yul\":4666:4722   */\n      iszero\n      tag_224\n      jumpi\n        /* \"#utility.yul\":4702:4720   */\n      tag_225\n      tag_127\n      jump\t// in\n    tag_225:\n        /* \"#utility.yul\":4666:4722   */\n    tag_224:\n        /* \"#utility.yul\":4740:4769   */\n      tag_226\n        /* \"#utility.yul\":4762:4768   */\n      dup3\n        /* \"#utility.yul\":4740:4769   */\n      tag_119\n      jump\t// in\n    tag_226:\n        /* \"#utility.yul\":4732:4769   */\n      swap1\n      pop\n        /* \"#utility.yul\":4824:4828   */\n      0x20\n        /* \"#utility.yul\":4818:4822   */\n      dup2\n        /* \"#utility.yul\":4814:4829   */\n      add\n        /* \"#utility.yul\":4806:4829   */\n      swap1\n      pop\n        /* \"#utility.yul\":4528:4836   */\n      swap2\n      swap1\n      pop\n      jump\t// out\n        /* \"#utility.yul\":4842:4990   */\n    tag_131:\n        /* \"#utility.yul\":4940:4946   */\n      dup3\n        /* \"#utility.yul\":4935:4938   */\n      dup2\n        /* \"#utility.yul\":4930:4933   */\n      dup4\n        /* \"#utility.yul\":4917:4947   */\n      calldatacopy\n        /* \"#utility.yul\":4981:4982   */\n      0x00\n        /* \"#utility.yul\":4972:4978   */\n      dup4\n        /* \"#utility.yul\":4967:4970   */\n      dup4\n        /* \"#utility.yul\":4963:4979   */\n      add\n        /* \"#utility.yul\":4956:4983   */\n      mstore\n        /* \"#utility.yul\":4842:4990   */\n      pop\n      pop\n      pop\n      jump\t// out\n        /* \"#utility.yul\":4996:5421   */\n    tag_132:\n        /* \"#utility.yul\":5074:5079   */\n      0x00\n        /* \"#utility.yul\":5099:5165   */\n      tag_229\n        /* \"#utility.yul\":5115:5164   */\n      tag_230\n        /* \"#utility.yul\":5157:5163   */\n      dup5\n        /* \"#utility.yul\":5115:5164   */\n      tag_130\n      jump\t// in\n    tag_230:\n        /* \"#utility.yul\":5099:5165   */\n      tag_129\n      jump\t// in\n    tag_229:\n        /* \"#utility.yul\":5090:5165   */\n      swap1\n      pop\n        /* \"#utility.yul\":5188:5194   */\n      dup3\n        /* \"#utility.yul\":5181:5186   */\n      dup2\n        /* \"#utility.yul\":5174:5195   */\n      mstore\n        /* \"#utility.yul\":5226:5230   */\n      0x20\n        /* \"#utility.yul\":5219:5224   */\n      dup2\n        /* \"#utility.yul\":5215:5231   */\n      add\n        /* \"#utility.yul\":5264:5267   */\n      dup5\n        /* \"#utility.yul\":5255:5261   */\n      dup5\n        /* \"#utility.yul\":5250:5253   */\n      dup5\n        /* \"#utility.yul\":5246:5262   */\n      add\n        /* \"#utility.yul\":5243:5268   */\n      gt\n        /* \"#utility.yul\":5240:5352   */\n      iszero\n      tag_231\n      jumpi\n        /* \"#utility.yul\":5271:5350   */\n      tag_232\n      tag_126\n      jump\t// in\n    tag_232:\n        /* \"#utility.yul\":5240:5352   */\n    tag_231:\n        /* \"#utility.yul\":5361:5415   */\n      tag_233\n        /* \"#utility.yul\":5408:5414   */\n      dup5\n        /* \"#utility.yul\":5403:5406   */\n      dup3\n        /* \"#utility.yul\":5398:5401   */\n      dup6\n        /* \"#utility.yul\":5361:5415   */\n      tag_131\n      jump\t// in\n    tag_233:\n        /* \"#utility.yul\":5080:5421   */\n      pop\n        /* \"#utility.yul\":4996:5421   */\n      swap4\n      swap3\n      pop\n      pop\n      pop\n      jump\t// out\n        /* \"#utility.yul\":5441:5781   */\n    tag_133:\n        /* \"#utility.yul\":5497:5502   */\n      0x00\n        /* \"#utility.yul\":5546:5549   */\n      dup3\n        /* \"#utility.yul\":5539:5543   */\n      0x1f\n        /* \"#utility.yul\":5531:5537   */\n      dup4\n        /* \"#utility.yul\":5527:5544   */\n      add\n        /* \"#utility.yul\":5523:5550   */\n      slt\n        /* \"#utility.yul\":5513:5635   */\n      tag_235\n      jumpi\n        /* \"#utility.yul\":5554:5633   */\n      tag_236\n      tag_125\n      jump\t// in\n    tag_236:\n        /* \"#utility.yul\":5513:5635   */\n    tag_235:\n        /* \"#utility.yul\":5671:5677   */\n      dup2\n        /* \"#utility.yul\":5658:5678   */\n      calldataload\n        /* \"#utility.yul\":5696:5775   */\n      tag_237\n        /* \"#utility.yul\":5771:5774   */\n      dup5\n        /* \"#utility.yul\":5763:5769   */\n      dup3\n        /* \"#utility.yul\":5756:5760   */\n      0x20\n        /* \"#utility.yul\":5748:5754   */\n      dup7\n        /* \"#utility.yul\":5744:5761   */\n      add\n        /* \"#utility.yul\":5696:5775   */\n      tag_132\n      jump\t// in\n    tag_237:\n        /* \"#utility.yul\":5687:5775   */\n      swap2\n      pop\n        /* \"#utility.yul\":5503:5781   */\n      pop\n        /* \"#utility.yul\":5441:5781   */\n      swap3\n      swap2\n      pop\n      pop\n      jump\t// out\n        /* \"#utility.yul\":5787:6296   */\n    tag_33:\n        /* \"#utility.yul\":5856:5862   */\n      0x00\n        /* \"#utility.yul\":5905:5907   */\n      0x20\n        /* \"#utility.yul\":5893:5902   */\n      dup3\n        /* \"#utility.yul\":5884:5891   */\n      dup5\n        /* \"#utility.yul\":5880:5903   */\n      sub\n        /* \"#utility.yul\":5876:5908   */\n      slt\n        /* \"#utility.yul\":5873:5992   */\n      iszero\n      tag_239\n      jumpi\n        /* \"#utility.yul\":5911:5990   */\n      tag_240\n      tag_110\n      jump\t// in\n    tag_240:\n        /* \"#utility.yul\":5873:5992   */\n    tag_239:\n        /* \"#utility.yul\":6059:6060   */\n      0x00\n        /* \"#utility.yul\":6048:6057   */\n      dup3\n        /* \"#utility.yul\":6044:6061   */\n      add\n        /* \"#utility.yul\":6031:6062   */\n      calldataload\n        /* \"#utility.yul\":6089:6107   */\n      0xffffffffffffffff\n        /* \"#utility.yul\":6081:6087   */\n      dup2\n        /* \"#utility.yul\":6078:6108   */\n      gt\n        /* \"#utility.yul\":6075:6192   */\n      iszero\n      tag_241\n      jumpi\n        /* \"#utility.yul\":6111:6190   */\n      tag_242\n      tag_111\n      jump\t// in\n    tag_242:\n        /* \"#utility.yul\":6075:6192   */\n    tag_241:\n        /* \"#utility.yul\":6216:6279   */\n      tag_243\n        /* \"#utility.yul\":6271:6278   */\n      dup5\n        /* \"#utility.yul\":6262:6268   */\n      dup3\n        /* \"#utility.yul\":6251:6260   */\n      dup6\n        /* \"#utility.yul\":6247:6269   */\n      add\n        /* \"#utility.yul\":6216:6279   */\n      tag_133\n      jump\t// in\n    tag_243:\n        /* \"#utility.yul\":6206:6279   */\n      swap2\n      pop\n        /* \"#utility.yul\":6002:6289   */\n      pop\n        /* \"#utility.yul\":5787:6296   */\n      swap3\n      swap2\n      pop\n      pop\n      jump\t// out\n        /* \"#utility.yul\":6302:6392   */\n    tag_134:\n        /* \"#utility.yul\":6336:6343   */\n      0x00\n        /* \"#utility.yul\":6379:6384   */\n      dup2\n        /* \"#utility.yul\":6372:6385   */\n      iszero\n        /* \"#utility.yul\":6365:6386   */\n      iszero\n        /* \"#utility.yul\":6354:6386   */\n      swap1\n      pop\n        /* \"#utility.yul\":6302:6392   */\n      swap2\n      swap1\n      pop\n      jump\t// out\n        /* \"#utility.yul\":6398:6507   */\n    tag_135:\n        /* \"#utility.yul\":6479:6500   */\n      tag_246\n        /* \"#utility.yul\":6494:6499   */\n      dup2\n        /* \"#utility.yul\":6479:6500   */\n      tag_134\n      jump\t// in\n    tag_246:\n        /* \"#utility.yul\":6474:6477   */\n      dup3\n        /* \"#utility.yul\":6467:6501   */\n      mstore\n        /* \"#utility.yul\":6398:6507   */\n      pop\n      pop\n      jump\t// out\n        /* \"#utility.yul\":6513:6723   */\n    tag_39:\n        /* \"#utility.yul\":6600:6604   */\n      0x00\n        /* \"#utility.yul\":6638:6640   */\n      0x20\n        /* \"#utility.yul\":6627:6636   */\n      dup3\n        /* \"#utility.yul\":6623:6641   */\n      add\n        /* \"#utility.yul\":6615:6641   */\n      swap1\n      pop\n        /* \"#utility.yul\":6651:6716   */\n      tag_248\n        /* \"#utility.yul\":6713:6714   */\n      0x00\n        /* \"#utility.yul\":6702:6711   */\n      dup4\n        /* \"#utility.yul\":6698:6715   */\n      add\n        /* \"#utility.yul\":6689:6695   */\n      dup5\n        /* \"#utility.yul\":6651:6716   */\n      tag_135\n      jump\t// in\n    tag_248:\n        /* \"#utility.yul\":6513:6723   */\n      swap3\n      swap2\n      pop\n      pop\n      jump\t// out\n        /* \"#utility.yul\":6729:7147   */\n    tag_44:\n        /* \"#utility.yul\":6866:6870   */\n      0x00\n        /* \"#utility.yul\":6904:6906   */\n      0x60\n        /* \"#utility.yul\":6893:6902   */\n      dup3\n        /* \"#utility.yul\":6889:6907   */\n      add\n        /* \"#utility.yul\":6881:6907   */\n      swap1\n      pop\n        /* \"#utility.yul\":6917:6982   */\n      tag_250\n        /* \"#utility.yul\":6979:6980   */\n      0x00\n        /* \"#utility.yul\":6968:6977   */\n      dup4\n        /* \"#utility.yul\":6964:6981   */\n      add\n        /* \"#utility.yul\":6955:6961   */\n      dup7\n        /* \"#utility.yul\":6917:6982   */\n      tag_135\n      jump\t// in\n    tag_250:\n        /* \"#utility.yul\":6992:7058   */\n      tag_251\n        /* \"#utility.yul\":7054:7056   */\n      0x20\n        /* \"#utility.yul\":7043:7052   */\n      dup4\n        /* \"#utility.yul\":7039:7057   */\n      add\n        /* \"#utility.yul\":7030:7036   */\n      dup6\n        /* \"#utility.yul\":6992:7058   */\n      tag_135\n      jump\t// in\n    tag_251:\n        /* \"#utility.yul\":7068:7140   */\n      tag_252\n        /* \"#utility.yul\":7136:7138   */\n      0x40\n        /* \"#utility.yul\":7125:7134   */\n      dup4\n        /* \"#utility.yul\":7121:7139   */\n      add\n        /* \"#utility.yul\":7112:7118   */\n      dup5\n        /* \"#utility.yul\":7068:7140   */\n      tag_115\n      jump\t// in\n    tag_252:\n        /* \"#utility.yul\":6729:7147   */\n      swap5\n      swap4\n      pop\n      pop\n      pop\n      pop\n      jump\t// out\n        /* \"#utility.yul\":7153:7271   */\n    tag_136:\n        /* \"#utility.yul\":7240:7264   */\n      tag_254\n        /* \"#utility.yul\":7258:7263   */\n      dup2\n        /* \"#utility.yul\":7240:7264   */\n      tag_122\n      jump\t// in\n    tag_254:\n        /* \"#utility.yul\":7235:7238   */\n      dup3\n        /* \"#utility.yul\":7228:7265   */\n      mstore\n        /* \"#utility.yul\":7153:7271   */\n      pop\n      pop\n      jump\t// out\n        /* \"#utility.yul\":7277:7499   */\n    tag_48:\n        /* \"#utility.yul\":7370:7374   */\n      0x00\n        /* \"#utility.yul\":7408:7410   */\n      0x20\n        /* \"#utility.yul\":7397:7406   */\n      dup3\n        /* \"#utility.yul\":7393:7411   */\n      add\n        /* \"#utility.yul\":7385:7411   */\n      swap1\n      pop\n        /* \"#utility.yul\":7421:7492   */\n      tag_256\n        /* \"#utility.yul\":7489:7490   */\n      0x00\n        /* \"#utility.yul\":7478:7487   */\n      dup4\n        /* \"#utility.yul\":7474:7491   */\n      add\n        /* \"#utility.yul\":7465:7471   */\n      dup5\n        /* \"#utility.yul\":7421:7492   */\n      tag_136\n      jump\t// in\n    tag_256:\n        /* \"#utility.yul\":7277:7499   */\n      swap3\n      swap2\n      pop\n      pop\n      jump\t// out\n        /* \"#utility.yul\":7505:7818   */\n    tag_55:\n        /* \"#utility.yul\":7618:7622   */\n      0x00\n        /* \"#utility.yul\":7656:7658   */\n      0x20\n        /* \"#utility.yul\":7645:7654   */\n      dup3\n        /* \"#utility.yul\":7641:7659   */\n      add\n        /* \"#utility.yul\":7633:7659   */\n      swap1\n      pop\n        /* \"#utility.yul\":7705:7714   */\n      dup2\n        /* \"#utility.yul\":7699:7703   */\n      dup2\n        /* \"#utility.yul\":7695:7715   */\n      sub\n        /* \"#utility.yul\":7691:7692   */\n      0x00\n        /* \"#utility.yul\":7680:7689   */\n      dup4\n        /* \"#utility.yul\":7676:7693   */\n      add\n        /* \"#utility.yul\":7669:7716   */\n      mstore\n        /* \"#utility.yul\":7733:7811   */\n      tag_258\n        /* \"#utility.yul\":7806:7810   */\n      dup2\n        /* \"#utility.yul\":7797:7803   */\n      dup5\n        /* \"#utility.yul\":7733:7811   */\n      tag_120\n      jump\t// in\n    tag_258:\n        /* \"#utility.yul\":7725:7811   */\n      swap1\n      pop\n        /* \"#utility.yul\":7505:7818   */\n      swap3\n      swap2\n      pop\n      pop\n      jump\t// out\n        /* \"#utility.yul\":7824:8005   */\n    tag_137:\n        /* \"#utility.yul\":7964:7997   */\n      0x596f75206d7573742062652061207265676973746572656420766f7465722e00\n        /* \"#utility.yul\":7960:7961   */\n      0x00\n        /* \"#utility.yul\":7952:7958   */\n      dup3\n        /* \"#utility.yul\":7948:7962   */\n      add\n        /* \"#utility.yul\":7941:7998   */\n      mstore\n        /* \"#utility.yul\":7824:8005   */\n      pop\n      jump\t// out\n        /* \"#utility.yul\":8011:8377   */\n    tag_138:\n        /* \"#utility.yul\":8153:8156   */\n      0x00\n        /* \"#utility.yul\":8174:8241   */\n      tag_261\n        /* \"#utility.yul\":8238:8240   */\n      0x1f\n        /* \"#utility.yul\":8233:8236   */\n      dup4\n        /* \"#utility.yul\":8174:8241   */\n      tag_117\n      jump\t// in\n    tag_261:\n        /* \"#utility.yul\":8167:8241   */\n      swap2\n      pop\n        /* \"#utility.yul\":8250:8343   */\n      tag_262\n        /* \"#utility.yul\":8339:8342   */\n      dup3\n        /* \"#utility.yul\":8250:8343   */\n      tag_137\n      jump\t// in\n    tag_262:\n        /* \"#utility.yul\":8368:8370   */\n      0x20\n        /* \"#utility.yul\":8363:8366   */\n      dup3\n        /* \"#utility.yul\":8359:8371   */\n      add\n        /* \"#utility.yul\":8352:8371   */\n      swap1\n      pop\n        /* \"#utility.yul\":8011:8377   */\n      swap2\n      swap1\n      pop\n      jump\t// out\n        /* \"#utility.yul\":8383:8802   */\n    tag_59:\n        /* \"#utility.yul\":8549:8553   */\n      0x00\n        /* \"#utility.yul\":8587:8589   */\n      0x20\n        /* \"#utility.yul\":8576:8585   */\n      dup3\n        /* \"#utility.yul\":8572:8590   */\n      add\n        /* \"#utility.yul\":8564:8590   */\n      swap1\n      pop\n        /* \"#utility.yul\":8636:8645   */\n      dup2\n        /* \"#utility.yul\":8630:8634   */\n      dup2\n        /* \"#utility.yul\":8626:8646   */\n      sub\n        /* \"#utility.yul\":8622:8623   */\n      0x00\n        /* \"#utility.yul\":8611:8620   */\n      dup4\n        /* \"#utility.yul\":8607:8624   */\n      add\n        /* \"#utility.yul\":8600:8647   */\n      mstore\n        /* \"#utility.yul\":8664:8795   */\n      tag_264\n        /* \"#utility.yul\":8790:8794   */\n      dup2\n        /* \"#utility.yul\":8664:8795   */\n      tag_138\n      jump\t// in\n    tag_264:\n        /* \"#utility.yul\":8656:8795   */\n      swap1\n      pop\n        /* \"#utility.yul\":8383:8802   */\n      swap2\n      swap1\n      pop\n      jump\t// out\n        /* \"#utility.yul\":8808:8981   */\n    tag_139:\n        /* \"#utility.yul\":8948:8973   */\n      0x596f75206861766520616c726561647920766f7465642e000000000000000000\n        /* \"#utility.yul\":8944:8945   */\n      0x00\n        /* \"#utility.yul\":8936:8942   */\n      dup3\n        /* \"#utility.yul\":8932:8946   */\n      add\n        /* \"#utility.yul\":8925:8974   */\n      mstore\n        /* \"#utility.yul\":8808:8981   */\n      pop\n      jump\t// out\n        /* \"#utility.yul\":8987:9353   */\n    tag_140:\n        /* \"#utility.yul\":9129:9132   */\n      0x00\n        /* \"#utility.yul\":9150:9217   */\n      tag_267\n        /* \"#utility.yul\":9214:9216   */\n      0x17\n        /* \"#utility.yul\":9209:9212   */\n      dup4\n        /* \"#utility.yul\":9150:9217   */\n      tag_117\n      jump\t// in\n    tag_267:\n        /* \"#utility.yul\":9143:9217   */\n      swap2\n      pop\n        /* \"#utility.yul\":9226:9319   */\n      tag_268\n        /* \"#utility.yul\":9315:9318   */\n      dup3\n        /* \"#utility.yul\":9226:9319   */\n      tag_139\n      jump\t// in\n    tag_268:\n        /* \"#utility.yul\":9344:9346   */\n      0x20\n        /* \"#utility.yul\":9339:9342   */\n      dup3\n        /* \"#utility.yul\":9335:9347   */\n      add\n        /* \"#utility.yul\":9328:9347   */\n      swap1\n      pop\n        /* \"#utility.yul\":8987:9353   */\n      swap2\n      swap1\n      pop\n      jump\t// out\n        /* \"#utility.yul\":9359:9778   */\n    tag_62:\n        /* \"#utility.yul\":9525:9529   */\n      0x00\n        /* \"#utility.yul\":9563:9565   */\n      0x20\n        /* \"#utility.yul\":9552:9561   */\n      dup3\n        /* \"#utility.yul\":9548:9566   */\n      add\n        /* \"#utility.yul\":9540:9566   */\n      swap1\n      pop\n        /* \"#utility.yul\":9612:9621   */\n      dup2\n        /* \"#utility.yul\":9606:9610   */\n      dup2\n        /* \"#utility.yul\":9602:9622   */\n      sub\n        /* \"#utility.yul\":9598:9599   */\n      0x00\n        /* \"#utility.yul\":9587:9596   */\n      dup4\n        /* \"#utility.yul\":9583:9600   */\n      add\n        /* \"#utility.yul\":9576:9623   */\n      mstore\n        /* \"#utility.yul\":9640:9771   */\n      tag_270\n        /* \"#utility.yul\":9766:9770   */\n      dup2\n        /* \"#utility.yul\":9640:9771   */\n      tag_140\n      jump\t// in\n    tag_270:\n        /* \"#utility.yul\":9632:9771   */\n      swap1\n      pop\n        /* \"#utility.yul\":9359:9778   */\n      swap2\n      swap1\n      pop\n      jump\t// out\n        /* \"#utility.yul\":9784:9955   */\n    tag_141:\n        /* \"#utility.yul\":9924:9947   */\n      0x496e76616c69642063616e6469646174652049442e0000000000000000000000\n        /* \"#utility.yul\":9920:9921   */\n      0x00\n        /* \"#utility.yul\":9912:9918   */\n      dup3\n        /* \"#utility.yul\":9908:9922   */\n      add\n        /* \"#utility.yul\":9901:9948   */\n      mstore\n        /* \"#utility.yul\":9784:9955   */\n      pop\n      jump\t// out\n        /* \"#utility.yul\":9961:10327   */\n    tag_142:\n        /* \"#utility.yul\":10103:10106   */\n      0x00\n        /* \"#utility.yul\":10124:10191   */\n      tag_273\n        /* \"#utility.yul\":10188:10190   */\n      0x15\n        /* \"#utility.yul\":10183:10186   */\n      dup4\n        /* \"#utility.yul\":10124:10191   */\n      tag_117\n      jump\t// in\n    tag_273:\n        /* \"#utility.yul\":10117:10191   */\n      swap2\n      pop\n        /* \"#utility.yul\":10200:10293   */\n      tag_274\n        /* \"#utility.yul\":10289:10292   */\n      dup3\n        /* \"#utility.yul\":10200:10293   */\n      tag_141\n      jump\t// in\n    tag_274:\n        /* \"#utility.yul\":10318:10320   */\n      0x20\n        /* \"#utility.yul\":10313:10316   */\n      dup3\n        /* \"#utility.yul\":10309:10321   */\n      add\n        /* \"#utility.yul\":10302:10321   */\n      swap1\n      pop\n        /* \"#utility.yul\":9961:10327   */\n      swap2\n      swap1\n      pop\n      jump\t// out\n        /* \"#utility.yul\":10333:10752   */\n    tag_66:\n        /* \"#utility.yul\":10499:10503   */\n      0x00\n        /* \"#utility.yul\":10537:10539   */\n      0x20\n        /* \"#utility.yul\":10526:10535   */\n      dup3\n        /* \"#utility.yul\":10522:10540   */\n      add\n        /* \"#utility.yul\":10514:10540   */\n      swap1\n      pop\n        /* \"#utility.yul\":10586:10595   */\n      dup2\n        /* \"#utility.yul\":10580:10584   */\n      dup2\n        /* \"#utility.yul\":10576:10596   */\n      sub\n        /* \"#utility.yul\":10572:10573   */\n      0x00\n        /* \"#utility.yul\":10561:10570   */\n      dup4\n        /* \"#utility.yul\":10557:10574   */\n      add\n        /* \"#utility.yul\":10550:10597   */\n      mstore\n        /* \"#utility.yul\":10614:10745   */\n      tag_276\n        /* \"#utility.yul\":10740:10744   */\n      dup2\n        /* \"#utility.yul\":10614:10745   */\n      tag_142\n      jump\t// in\n    tag_276:\n        /* \"#utility.yul\":10606:10745   */\n      swap1\n      pop\n        /* \"#utility.yul\":10333:10752   */\n      swap2\n      swap1\n      pop\n      jump\t// out\n        /* \"#utility.yul\":10758:10938   */\n    tag_143:\n        /* \"#utility.yul\":10806:10883   */\n      0x4e487b7100000000000000000000000000000000000000000000000000000000\n        /* \"#utility.yul\":10803:10804   */\n      0x00\n        /* \"#utility.yul\":10796:10884   */\n      mstore\n        /* \"#utility.yul\":10903:10907   */\n      0x11\n        /* \"#utility.yul\":10900:10901   */\n      0x04\n        /* \"#utility.yul\":10893:10908   */\n      mstore\n        /* \"#utility.yul\":10927:10931   */\n      0x24\n        /* \"#utility.yul\":10924:10925   */\n      0x00\n        /* \"#utility.yul\":10917:10932   */\n      revert\n        /* \"#utility.yul\":10944:11135   */\n    tag_68:\n        /* \"#utility.yul\":10984:10987   */\n      0x00\n        /* \"#utility.yul\":11003:11023   */\n      tag_279\n        /* \"#utility.yul\":11021:11022   */\n      dup3\n        /* \"#utility.yul\":11003:11023   */\n      tag_112\n      jump\t// in\n    tag_279:\n        /* \"#utility.yul\":10998:11023   */\n      swap2\n      pop\n        /* \"#utility.yul\":11037:11057   */\n      tag_280\n        /* \"#utility.yul\":11055:11056   */\n      dup4\n        /* \"#utility.yul\":11037:11057   */\n      tag_112\n      jump\t// in\n    tag_280:\n        /* \"#utility.yul\":11032:11057   */\n      swap3\n      pop\n        /* \"#utility.yul\":11080:11081   */\n      dup3\n        /* \"#utility.yul\":11077:11078   */\n      dup3\n        /* \"#utility.yul\":11073:11082   */\n      add\n        /* \"#utility.yul\":11066:11082   */\n      swap1\n      pop\n        /* \"#utility.yul\":11101:11104   */\n      dup1\n        /* \"#utility.yul\":11098:11099   */\n      dup3\n        /* \"#utility.yul\":11095:11105   */\n      gt\n        /* \"#utility.yul\":11092:11128   */\n      iszero\n      tag_281\n      jumpi\n        /* \"#utility.yul\":11108:11126   */\n      tag_282\n      tag_143\n      jump\t// in\n    tag_282:\n        /* \"#utility.yul\":11092:11128   */\n    tag_281:\n        /* \"#utility.yul\":10944:11135   */\n      swap3\n      swap2\n      pop\n      pop\n      jump\t// out\n        /* \"#utility.yul\":11141:11321   */\n    tag_144:\n        /* \"#utility.yul\":11189:11266   */\n      0x4e487b7100000000000000000000000000000000000000000000000000000000\n        /* \"#utility.yul\":11186:11187   */\n      0x00\n        /* \"#utility.yul\":11179:11267   */\n      mstore\n        /* \"#utility.yul\":11286:11290   */\n      0x22\n        /* \"#utility.yul\":11283:11284   */\n      0x04\n        /* \"#utility.yul\":11276:11291   */\n      mstore\n        /* \"#utility.yul\":11310:11314   */\n      0x24\n        /* \"#utility.yul\":11307:11308   */\n      0x00\n        /* \"#utility.yul\":11300:11315   */\n      revert\n        /* \"#utility.yul\":11327:11647   */\n    tag_70:\n        /* \"#utility.yul\":11371:11377   */\n      0x00\n        /* \"#utility.yul\":11408:11409   */\n      0x02\n        /* \"#utility.yul\":11402:11406   */\n      dup3\n        /* \"#utility.yul\":11398:11410   */\n      div\n        /* \"#utility.yul\":11388:11410   */\n      swap1\n      pop\n        /* \"#utility.yul\":11455:11456   */\n      0x01\n        /* \"#utility.yul\":11449:11453   */\n      dup3\n        /* \"#utility.yul\":11445:11457   */\n      and\n        /* \"#utility.yul\":11476:11494   */\n      dup1\n        /* \"#utility.yul\":11466:11547   */\n      tag_285\n      jumpi\n        /* \"#utility.yul\":11532:11536   */\n      0x7f\n        /* \"#utility.yul\":11524:11530   */\n      dup3\n        /* \"#utility.yul\":11520:11537   */\n      and\n        /* \"#utility.yul\":11510:11537   */\n      swap2\n      pop\n        /* \"#utility.yul\":11466:11547   */\n    tag_285:\n        /* \"#utility.yul\":11594:11596   */\n      0x20\n        /* \"#utility.yul\":11586:11592   */\n      dup3\n        /* \"#utility.yul\":11583:11597   */\n      lt\n        /* \"#utility.yul\":11563:11581   */\n      dup2\n        /* \"#utility.yul\":11560:11598   */\n      sub\n        /* \"#utility.yul\":11557:11641   */\n      tag_286\n      jumpi\n        /* \"#utility.yul\":11613:11631   */\n      tag_287\n      tag_144\n      jump\t// in\n    tag_287:\n        /* \"#utility.yul\":11557:11641   */\n    tag_286:\n        /* \"#utility.yul\":11378:11647   */\n      pop\n        /* \"#utility.yul\":11327:11647   */\n      swap2\n      swap1\n      pop\n      jump\t// out\n        /* \"#utility.yul\":11653:11889   */\n    tag_145:\n        /* \"#utility.yul\":11793:11827   */\n      0x4f6e6c792074686520656c656374696f6e20636f6d6d697373696f6e2063616e\n        /* \"#utility.yul\":11789:11790   */\n      0x00\n        /* \"#utility.yul\":11781:11787   */\n      dup3\n        /* \"#utility.yul\":11777:11791   */\n      add\n        /* \"#utility.yul\":11770:11828   */\n      mstore\n        /* \"#utility.yul\":11862:11881   */\n      0x20726567697374657220766f746572732e000000000000000000000000000000\n        /* \"#utility.yul\":11857:11859   */\n      0x20\n        /* \"#utility.yul\":11849:11855   */\n      dup3\n        /* \"#utility.yul\":11845:11860   */\n      add\n        /* \"#utility.yul\":11838:11882   */\n      mstore\n        /* \"#utility.yul\":11653:11889   */\n      pop\n      jump\t// out\n        /* \"#utility.yul\":11895:12261   */\n    tag_146:\n        /* \"#utility.yul\":12037:12040   */\n      0x00\n        /* \"#utility.yul\":12058:12125   */\n      tag_290\n        /* \"#utility.yul\":12122:12124   */\n      0x31\n        /* \"#utility.yul\":12117:12120   */\n      dup4\n        /* \"#utility.yul\":12058:12125   */\n      tag_117\n      jump\t// in\n    tag_290:\n        /* \"#utility.yul\":12051:12125   */\n      swap2\n      pop\n        /* \"#utility.yul\":12134:12227   */\n      tag_291\n        /* \"#utility.yul\":12223:12226   */\n      dup3\n        /* \"#utility.yul\":12134:12227   */\n      tag_145\n      jump\t// in\n    tag_291:\n        /* \"#utility.yul\":12252:12254   */\n      0x40\n        /* \"#utility.yul\":12247:12250   */\n      dup3\n        /* \"#utility.yul\":12243:12255   */\n      add\n        /* \"#utility.yul\":12236:12255   */\n      swap1\n      pop\n        /* \"#utility.yul\":11895:12261   */\n      swap2\n      swap1\n      pop\n      jump\t// out\n        /* \"#utility.yul\":12267:12686   */\n    tag_78:\n        /* \"#utility.yul\":12433:12437   */\n      0x00\n        /* \"#utility.yul\":12471:12473   */\n      0x20\n        /* \"#utility.yul\":12460:12469   */\n      dup3\n        /* \"#utility.yul\":12456:12474   */\n      add\n        /* \"#utility.yul\":12448:12474   */\n      swap1\n      pop\n        /* \"#utility.yul\":12520:12529   */\n      dup2\n        /* \"#utility.yul\":12514:12518   */\n      dup2\n        /* \"#utility.yul\":12510:12530   */\n      sub\n        /* \"#utility.yul\":12506:12507   */\n      0x00\n        /* \"#utility.yul\":12495:12504   */\n      dup4\n        /* \"#utility.yul\":12491:12508   */\n      add\n        /* \"#utility.yul\":12484:12531   */\n      mstore\n        /* \"#utility.yul\":12548:12679   */\n      tag_293\n        /* \"#utility.yul\":12674:12678   */\n      dup2\n        /* \"#utility.yul\":12548:12679   */\n      tag_146\n      jump\t// in\n    tag_293:\n        /* \"#utility.yul\":12540:12679   */\n      swap1\n      pop\n        /* \"#utility.yul\":12267:12686   */\n      swap2\n      swap1\n      pop\n      jump\t// out\n        /* \"#utility.yul\":12692:12870   */\n    tag_147:\n        /* \"#utility.yul\":12832:12862   */\n      0x566f74657220697320616c726561647920726567697374657265642e00000000\n        /* \"#utility.yul\":12828:12829   */\n      0x00\n        /* \"#utility.yul\":12820:12826   */\n      dup3\n        /* \"#utility.yul\":12816:12830   */\n      add\n        /* \"#utility.yul\":12809:12863   */\n      mstore\n        /* \"#utility.yul\":12692:12870   */\n      pop\n      jump\t// out\n        /* \"#utility.yul\":12876:13242   */\n    tag_148:\n        /* \"#utility.yul\":13018:13021   */\n      0x00\n        /* \"#utility.yul\":13039:13106   */\n      tag_296\n        /* \"#utility.yul\":13103:13105   */\n      0x1c\n        /* \"#utility.yul\":13098:13101   */\n      dup4\n        /* \"#utility.yul\":13039:13106   */\n      tag_117\n      jump\t// in\n    tag_296:\n        /* \"#utility.yul\":13032:13106   */\n      swap2\n      pop\n        /* \"#utility.yul\":13115:13208   */\n      tag_297\n        /* \"#utility.yul\":13204:13207   */\n      dup3\n        /* \"#utility.yul\":13115:13208   */\n      tag_147\n      jump\t// in\n    tag_297:\n        /* \"#utility.yul\":13233:13235   */\n      0x20\n        /* \"#utility.yul\":13228:13231   */\n      dup3\n        /* \"#utility.yul\":13224:13236   */\n      add\n        /* \"#utility.yul\":13217:13236   */\n      swap1\n      pop\n        /* \"#utility.yul\":12876:13242   */\n      swap2\n      swap1\n      pop\n      jump\t// out\n        /* \"#utility.yul\":13248:13667   */\n    tag_81:\n        /* \"#utility.yul\":13414:13418   */\n      0x00\n        /* \"#utility.yul\":13452:13454   */\n      0x20\n        /* \"#utility.yul\":13441:13450   */\n      dup3\n        /* \"#utility.yul\":13437:13455   */\n      add\n        /* \"#utility.yul\":13429:13455   */\n      swap1\n      pop\n        /* \"#utility.yul\":13501:13510   */\n      dup2\n        /* \"#utility.yul\":13495:13499   */\n      dup2\n        /* \"#utility.yul\":13491:13511   */\n      sub\n        /* \"#utility.yul\":13487:13488   */\n      0x00\n        /* \"#utility.yul\":13476:13485   */\n      dup4\n        /* \"#utility.yul\":13472:13489   */\n      add\n        /* \"#utility.yul\":13465:13512   */\n      mstore\n        /* \"#utility.yul\":13529:13660   */\n      tag_299\n        /* \"#utility.yul\":13655:13659   */\n      dup2\n        /* \"#utility.yul\":13529:13660   */\n      tag_148\n      jump\t// in\n    tag_299:\n        /* \"#utility.yul\":13521:13660   */\n      swap1\n      pop\n        /* \"#utility.yul\":13248:13667   */\n      swap2\n      swap1\n      pop\n      jump\t// out\n        /* \"#utility.yul\":13673:13908   */\n    tag_149:\n        /* \"#utility.yul\":13813:13847   */\n      0x4f6e6c792074686520656c656374696f6e20636f6d6d697373696f6e2063616e\n        /* \"#utility.yul\":13809:13810   */\n      0x00\n        /* \"#utility.yul\":13801:13807   */\n      dup3\n        /* \"#utility.yul\":13797:13811   */\n      add\n        /* \"#utility.yul\":13790:13848   */\n      mstore\n        /* \"#utility.yul\":13882:13900   */\n      0x206164642063616e646964617465732e00000000000000000000000000000000\n        /* \"#utility.yul\":13877:13879   */\n      0x20\n        /* \"#utility.yul\":13869:13875   */\n      dup3\n        /* \"#utility.yul\":13865:13880   */\n      add\n        /* \"#utility.yul\":13858:13901   */\n      mstore\n        /* \"#utility.yul\":13673:13908   */\n      pop\n      jump\t// out\n        /* \"#utility.yul\":13914:14280   */\n    tag_150:\n        /* \"#utility.yul\":14056:14059   */\n      0x00\n        /* \"#utility.yul\":14077:14144   */\n      tag_302\n        /* \"#utility.yul\":14141:14143   */\n      0x30\n        /* \"#utility.yul\":14136:14139   */\n      dup4\n        /* \"#utility.yul\":14077:14144   */\n      tag_117\n      jump\t// in\n    tag_302:\n        /* \"#utility.yul\":14070:14144   */\n      swap2\n      pop\n        /* \"#utility.yul\":14153:14246   */\n      tag_303\n        /* \"#utility.yul\":14242:14245   */\n      dup3\n        /* \"#utility.yul\":14153:14246   */\n      tag_149\n      jump\t// in\n    tag_303:\n        /* \"#utility.yul\":14271:14273   */\n      0x40\n        /* \"#utility.yul\":14266:14269   */\n      dup3\n        /* \"#utility.yul\":14262:14274   */\n      add\n        /* \"#utility.yul\":14255:14274   */\n      swap1\n      pop\n        /* \"#utility.yul\":13914:14280   */\n      swap2\n      swap1\n      pop\n      jump\t// out\n        /* \"#utility.yul\":14286:14705   */\n    tag_85:\n        /* \"#utility.yul\":14452:14456   */\n      0x00\n        /* \"#utility.yul\":14490:14492   */\n      0x20\n        /* \"#utility.yul\":14479:14488   */\n      dup3\n        /* \"#utility.yul\":14475:14493   */\n      add\n        /* \"#utility.yul\":14467:14493   */\n      swap1\n      pop\n        /* \"#utility.yul\":14539:14548   */\n      dup2\n        /* \"#utility.yul\":14533:14537   */\n      dup2\n        /* \"#utility.yul\":14529:14549   */\n      sub\n        /* \"#utility.yul\":14525:14526   */\n      0x00\n        /* \"#utility.yul\":14514:14523   */\n      dup4\n        /* \"#utility.yul\":14510:14527   */\n      add\n        /* \"#utility.yul\":14503:14550   */\n      mstore\n        /* \"#utility.yul\":14567:14698   */\n      tag_305\n        /* \"#utility.yul\":14693:14697   */\n      dup2\n        /* \"#utility.yul\":14567:14698   */\n      tag_150\n      jump\t// in\n    tag_305:\n        /* \"#utility.yul\":14559:14698   */\n      swap1\n      pop\n        /* \"#utility.yul\":14286:14705   */\n      swap2\n      swap1\n      pop\n      jump\t// out\n        /* \"#utility.yul\":14711:14859   */\n    tag_151:\n        /* \"#utility.yul\":14813:14824   */\n      0x00\n        /* \"#utility.yul\":14850:14853   */\n      dup2\n        /* \"#utility.yul\":14835:14853   */\n      swap1\n      pop\n        /* \"#utility.yul\":14711:14859   */\n      swap3\n      swap2\n      pop\n      pop\n      jump\t// out\n        /* \"#utility.yul\":14865:15255   */\n    tag_152:\n        /* \"#utility.yul\":14971:14974   */\n      0x00\n        /* \"#utility.yul\":14999:15038   */\n      tag_308\n        /* \"#utility.yul\":15032:15037   */\n      dup3\n        /* \"#utility.yul\":14999:15038   */\n      tag_116\n      jump\t// in\n    tag_308:\n        /* \"#utility.yul\":15054:15143   */\n      tag_309\n        /* \"#utility.yul\":15136:15142   */\n      dup2\n        /* \"#utility.yul\":15131:15134   */\n      dup6\n        /* \"#utility.yul\":15054:15143   */\n      tag_151\n      jump\t// in\n    tag_309:\n        /* \"#utility.yul\":15047:15143   */\n      swap4\n      pop\n        /* \"#utility.yul\":15152:15217   */\n      tag_310\n        /* \"#utility.yul\":15210:15216   */\n      dup2\n        /* \"#utility.yul\":15205:15208   */\n      dup6\n        /* \"#utility.yul\":15198:15202   */\n      0x20\n        /* \"#utility.yul\":15191:15196   */\n      dup7\n        /* \"#utility.yul\":15187:15203   */\n      add\n        /* \"#utility.yul\":15152:15217   */\n      tag_118\n      jump\t// in\n    tag_310:\n        /* \"#utility.yul\":15242:15248   */\n      dup1\n        /* \"#utility.yul\":15237:15240   */\n      dup5\n        /* \"#utility.yul\":15233:15249   */\n      add\n        /* \"#utility.yul\":15226:15249   */\n      swap2\n      pop\n        /* \"#utility.yul\":14975:15255   */\n      pop\n        /* \"#utility.yul\":14865:15255   */\n      swap3\n      swap2\n      pop\n      pop\n      jump\t// out\n        /* \"#utility.yul\":15261:15536   */\n    tag_87:\n        /* \"#utility.yul\":15393:15396   */\n      0x00\n        /* \"#utility.yul\":15415:15510   */\n      tag_312\n        /* \"#utility.yul\":15506:15509   */\n      dup3\n        /* \"#utility.yul\":15497:15503   */\n      dup5\n        /* \"#utility.yul\":15415:15510   */\n      tag_152\n      jump\t// in\n    tag_312:\n        /* \"#utility.yul\":15408:15510   */\n      swap2\n      pop\n        /* \"#utility.yul\":15527:15530   */\n      dup2\n        /* \"#utility.yul\":15520:15530   */\n      swap1\n      pop\n        /* \"#utility.yul\":15261:15536   */\n      swap3\n      swap2\n      pop\n      pop\n      jump\t// out\n        /* \"#utility.yul\":15542:15724   */\n    tag_153:\n        /* \"#utility.yul\":15682:15716   */\n      0x43616e64696461746520697320616c726561647920726567697374657265642e\n        /* \"#utility.yul\":15678:15679   */\n      0x00\n        /* \"#utility.yul\":15670:15676   */\n      dup3\n        /* \"#utility.yul\":15666:15680   */\n      add\n        /* \"#utility.yul\":15659:15717   */\n      mstore\n        /* \"#utility.yul\":15542:15724   */\n      pop\n      jump\t// out\n        /* \"#utility.yul\":15730:16096   */\n    tag_154:\n        /* \"#utility.yul\":15872:15875   */\n      0x00\n        /* \"#utility.yul\":15893:15960   */\n      tag_315\n        /* \"#utility.yul\":15957:15959   */\n      0x20\n        /* \"#utility.yul\":15952:15955   */\n      dup4\n        /* \"#utility.yul\":15893:15960   */\n      tag_117\n      jump\t// in\n    tag_315:\n        /* \"#utility.yul\":15886:15960   */\n      swap2\n      pop\n        /* \"#utility.yul\":15969:16062   */\n      tag_316\n        /* \"#utility.yul\":16058:16061   */\n      dup3\n        /* \"#utility.yul\":15969:16062   */\n      tag_153\n      jump\t// in\n    tag_316:\n        /* \"#utility.yul\":16087:16089   */\n      0x20\n        /* \"#utility.yul\":16082:16085   */\n      dup3\n        /* \"#utility.yul\":16078:16090   */\n      add\n        /* \"#utility.yul\":16071:16090   */\n      swap1\n      pop\n        /* \"#utility.yul\":15730:16096   */\n      swap2\n      swap1\n      pop\n      jump\t// out\n        /* \"#utility.yul\":16102:16521   */\n    tag_90:\n        /* \"#utility.yul\":16268:16272   */\n      0x00\n        /* \"#utility.yul\":16306:16308   */\n      0x20\n        /* \"#utility.yul\":16295:16304   */\n      dup3\n        /* \"#utility.yul\":16291:16309   */\n      add\n        /* \"#utility.yul\":16283:16309   */\n      swap1\n      pop\n        /* \"#utility.yul\":16355:16364   */\n      dup2\n        /* \"#utility.yul\":16349:16353   */\n      dup2\n        /* \"#utility.yul\":16345:16365   */\n      sub\n        /* \"#utility.yul\":16341:16342   */\n      0x00\n        /* \"#utility.yul\":16330:16339   */\n      dup4\n        /* \"#utility.yul\":16326:16343   */\n      add\n        /* \"#utility.yul\":16319:16366   */\n      mstore\n        /* \"#utility.yul\":16383:16514   */\n      tag_318\n        /* \"#utility.yul\":16509:16513   */\n      dup2\n        /* \"#utility.yul\":16383:16514   */\n      tag_154\n      jump\t// in\n    tag_318:\n        /* \"#utility.yul\":16375:16514   */\n      swap1\n      pop\n        /* \"#utility.yul\":16102:16521   */\n      swap2\n      swap1\n      pop\n      jump\t// out\n        /* \"#utility.yul\":16527:16760   */\n    tag_92:\n        /* \"#utility.yul\":16566:16569   */\n      0x00\n        /* \"#utility.yul\":16589:16613   */\n      tag_320\n        /* \"#utility.yul\":16607:16612   */\n      dup3\n        /* \"#utility.yul\":16589:16613   */\n      tag_112\n      jump\t// in\n    tag_320:\n        /* \"#utility.yul\":16580:16613   */\n      swap2\n      pop\n        /* \"#utility.yul\":16635:16701   */\n      0xffffffffffffffffffffffffffffffffffffffffffffffffffffffffffffffff\n        /* \"#utility.yul\":16628:16633   */\n      dup3\n        /* \"#utility.yul\":16625:16702   */\n      sub\n        /* \"#utility.yul\":16622:16725   */\n      tag_321\n      jumpi\n        /* \"#utility.yul\":16705:16723   */\n      tag_322\n      tag_143\n      jump\t// in\n    tag_322:\n        /* \"#utility.yul\":16622:16725   */\n    tag_321:\n        /* \"#utility.yul\":16752:16753   */\n      0x01\n        /* \"#utility.yul\":16745:16750   */\n      dup3\n        /* \"#utility.yul\":16741:16754   */\n      add\n        /* \"#utility.yul\":16734:16754   */\n      swap1\n      pop\n        /* \"#utility.yul\":16527:16760   */\n      swap2\n      swap1\n      pop\n      jump\t// out\n        /* \"#utility.yul\":16766:16907   */\n    tag_155:\n        /* \"#utility.yul\":16815:16819   */\n      0x00\n        /* \"#utility.yul\":16838:16841   */\n      dup2\n        /* \"#utility.yul\":16830:16841   */\n      swap1\n      pop\n        /* \"#utility.yul\":16861:16864   */\n      dup2\n        /* \"#utility.yul\":16858:16859   */\n      0x00\n        /* \"#utility.yul\":16851:16865   */\n      mstore\n        /* \"#utility.yul\":16895:16899   */\n      0x20\n        /* \"#utility.yul\":16892:16893   */\n      0x00\n        /* \"#utility.yul\":16882:16900   */\n      keccak256\n        /* \"#utility.yul\":16874:16900   */\n      swap1\n      pop\n        /* \"#utility.yul\":16766:16907   */\n      swap2\n      swap1\n      pop\n      jump\t// out\n        /* \"#utility.yul\":16913:17006   */\n    tag_156:\n        /* \"#utility.yul\":16950:16956   */\n      0x00\n        /* \"#utility.yul\":16997:16999   */\n      0x20\n        /* \"#utility.yul\":16992:16994   */\n      0x1f\n        /* \"#utility.yul\":16985:16990   */\n      dup4\n        /* \"#utility.yul\":16981:16995   */\n      add\n        /* \"#utility.yul\":16977:17000   */\n      div\n        /* \"#utility.yul\":16967:17000   */\n      swap1\n      pop\n        /* \"#utility.yul\":16913:17006   */\n      swap2\n      swap1\n      pop\n      jump\t// out\n        /* \"#utility.yul\":17012:17119   */\n    tag_157:\n        /* \"#utility.yul\":17056:17064   */\n      0x00\n        /* \"#utility.yul\":17106:17111   */\n      dup3\n        /* \"#utility.yul\":17100:17104   */\n      dup3\n        /* \"#utility.yul\":17096:17112   */\n      shl\n        /* \"#utility.yul\":17075:17112   */\n      swap1\n      pop\n        /* \"#utility.yul\":17012:17119   */\n      swap3\n      swap2\n      pop\n      pop\n      jump\t// out\n        /* \"#utility.yul\":17125:17518   */\n    tag_158:\n        /* \"#utility.yul\":17194:17200   */\n      0x00\n        /* \"#utility.yul\":17244:17245   */\n      0x08\n        /* \"#utility.yul\":17232:17242   */\n      dup4\n        /* \"#utility.yul\":17228:17246   */\n      mul\n        /* \"#utility.yul\":17267:17364   */\n      tag_327\n        /* \"#utility.yul\":17297:17363   */\n      0xffffffffffffffffffffffffffffffffffffffffffffffffffffffffffffffff\n        /* \"#utility.yul\":17286:17295   */\n      dup3\n        /* \"#utility.yul\":17267:17364   */\n      tag_157\n      jump\t// in\n    tag_327:\n        /* \"#utility.yul\":17385:17424   */\n      tag_328\n        /* \"#utility.yul\":17415:17423   */\n      dup7\n        /* \"#utility.yul\":17404:17413   */\n      dup4\n        /* \"#utility.yul\":17385:17424   */\n      tag_157\n      jump\t// in\n    tag_328:\n        /* \"#utility.yul\":17373:17424   */\n      swap6\n      pop\n        /* \"#utility.yul\":17457:17461   */\n      dup1\n        /* \"#utility.yul\":17453:17462   */\n      not\n        /* \"#utility.yul\":17446:17451   */\n      dup5\n        /* \"#utility.yul\":17442:17463   */\n      and\n        /* \"#utility.yul\":17433:17463   */\n      swap4\n      pop\n        /* \"#utility.yul\":17506:17510   */\n      dup1\n        /* \"#utility.yul\":17496:17504   */\n      dup7\n        /* \"#utility.yul\":17492:17511   */\n      and\n        /* \"#utility.yul\":17485:17490   */\n      dup5\n        /* \"#utility.yul\":17482:17512   */\n      or\n        /* \"#utility.yul\":17472:17512   */\n      swap3\n      pop\n        /* \"#utility.yul\":17201:17518   */\n      pop\n      pop\n        /* \"#utility.yul\":17125:17518   */\n      swap4\n      swap3\n      pop\n      pop\n      pop\n      jump\t// out\n        /* \"#utility.yul\":17524:17584   */\n    tag_159:\n        /* \"#utility.yul\":17552:17555   */\n      0x00\n        /* \"#utility.yul\":17573:17578   */\n      dup2\n        /* \"#utility.yul\":17566:17578   */\n      swap1\n      pop\n        /* \"#utility.yul\":17524:17584   */\n      swap2\n      swap1\n      pop\n      jump\t// out\n        /* \"#utility.yul\":17590:17732   */\n    tag_160:\n        /* \"#utility.yul\":17640:17649   */\n      0x00\n        /* \"#utility.yul\":17673:17726   */\n      tag_331\n        /* \"#utility.yul\":17691:17725   */\n      tag_332\n        /* \"#utility.yul\":17700:17724   */\n      tag_333\n        /* \"#utility.yul\":17718:17723   */\n      dup5\n        /* \"#utility.yul\":17700:17724   */\n      tag_112\n      jump\t// in\n    tag_333:\n        /* \"#utility.yul\":17691:17725   */\n      tag_159\n      jump\t// in\n    tag_332:\n        /* \"#utility.yul\":17673:17726   */\n      tag_112\n      jump\t// in\n    tag_331:\n        /* \"#utility.yul\":17660:17726   */\n      swap1\n      pop\n        /* \"#utility.yul\":17590:17732   */\n      swap2\n      swap1\n      pop\n      jump\t// out\n        /* \"#utility.yul\":17738:17813   */\n    tag_161:\n        /* \"#utility.yul\":17781:17784   */\n      0x00\n        /* \"#utility.yul\":17802:17807   */\n      dup2\n        /* \"#utility.yul\":17795:17807   */\n      swap1\n      pop\n        /* \"#utility.yul\":17738:17813   */\n      swap2\n      swap1\n      pop\n      jump\t// out\n        /* \"#utility.yul\":17819:18088   */\n    tag_162:\n        /* \"#utility.yul\":17929:17968   */\n      tag_336\n        /* \"#utility.yul\":17960:17967   */\n      dup4\n        /* \"#utility.yul\":17929:17968   */\n      tag_160\n      jump\t// in\n    tag_336:\n        /* \"#utility.yul\":17990:18081   */\n      tag_337\n        /* \"#utility.yul\":18039:18080   */\n      tag_338\n        /* \"#utility.yul\":18063:18079   */\n      dup3\n        /* \"#utility.yul\":18039:18080   */\n      tag_161\n      jump\t// in\n    tag_338:\n        /* \"#utility.yul\":18031:18037   */\n      dup5\n        /* \"#utility.yul\":18024:18028   */\n      dup5\n        /* \"#utility.yul\":18018:18029   */\n      sload\n        /* \"#utility.yul\":17990:18081   */\n      tag_158\n      jump\t// in\n    tag_337:\n        /* \"#utility.yul\":17984:17988   */\n      dup3\n        /* \"#utility.yul\":17977:18082   */\n      sstore\n        /* \"#utility.yul\":17895:18088   */\n      pop\n        /* \"#utility.yul\":17819:18088   */\n      pop\n      pop\n      pop\n      jump\t// out\n        /* \"#utility.yul\":18094:18167   */\n    tag_163:\n        /* \"#utility.yul\":18139:18142   */\n      0x00\n        /* \"#utility.yul\":18094:18167   */\n      swap1\n      jump\t// out\n        /* \"#utility.yul\":18173:18362   */\n    tag_164:\n        /* \"#utility.yul\":18250:18282   */\n      tag_341\n      tag_163\n      jump\t// in\n    tag_341:\n        /* \"#utility.yul\":18291:18356   */\n      tag_342\n        /* \"#utility.yul\":18349:18355   */\n      dup2\n        /* \"#utility.yul\":18341:18347   */\n      dup5\n        /* \"#utility.yul\":18335:18339   */\n      dup5\n        /* \"#utility.yul\":18291:18356   */\n      tag_162\n      jump\t// in\n    tag_342:\n        /* \"#utility.yul\":18226:18362   */\n      pop\n        /* \"#utility.yul\":18173:18362   */\n      pop\n      pop\n      jump\t// out\n        /* \"#utility.yul\":18368:18554   */\n    tag_165:\n        /* \"#utility.yul\":18428:18548   */\n    tag_344:\n        /* \"#utility.yul\":18445:18448   */\n      dup2\n        /* \"#utility.yul\":18438:18443   */\n      dup2\n        /* \"#utility.yul\":18435:18449   */\n      lt\n        /* \"#utility.yul\":18428:18548   */\n      iszero\n      tag_346\n      jumpi\n        /* \"#utility.yul\":18499:18538   */\n      tag_347\n        /* \"#utility.yul\":18536:18537   */\n      0x00\n        /* \"#utility.yul\":18529:18534   */\n      dup3\n        /* \"#utility.yul\":18499:18538   */\n      tag_164\n      jump\t// in\n    tag_347:\n        /* \"#utility.yul\":18472:18473   */\n      0x01\n        /* \"#utility.yul\":18465:18470   */\n      dup2\n        /* \"#utility.yul\":18461:18474   */\n      add\n        /* \"#utility.yul\":18452:18474   */\n      swap1\n      pop\n        /* \"#utility.yul\":18428:18548   */\n      jump(tag_344)\n    tag_346:\n        /* \"#utility.yul\":18368:18554   */\n      pop\n      pop\n      jump\t// out\n        /* \"#utility.yul\":18560:19103   */\n    tag_166:\n        /* \"#utility.yul\":18661:18663   */\n      0x1f\n        /* \"#utility.yul\":18656:18659   */\n      dup3\n        /* \"#utility.yul\":18653:18664   */\n      gt\n        /* \"#utility.yul\":18650:19096   */\n      iszero\n      tag_349\n      jumpi\n        /* \"#utility.yul\":18695:18733   */\n      tag_350\n        /* \"#utility.yul\":18727:18732   */\n      dup2\n        /* \"#utility.yul\":18695:18733   */\n      tag_155\n      jump\t// in\n    tag_350:\n        /* \"#utility.yul\":18779:18808   */\n      tag_351\n        /* \"#utility.yul\":18797:18807   */\n      dup5\n        /* \"#utility.yul\":18779:18808   */\n      tag_156\n      jump\t// in\n    tag_351:\n        /* \"#utility.yul\":18769:18777   */\n      dup2\n        /* \"#utility.yul\":18765:18809   */\n      add\n        /* \"#utility.yul\":18962:18964   */\n      0x20\n        /* \"#utility.yul\":18950:18960   */\n      dup6\n        /* \"#utility.yul\":18947:18965   */\n      lt\n        /* \"#utility.yul\":18944:18993   */\n      iszero\n      tag_352\n      jumpi\n        /* \"#utility.yul\":18983:18991   */\n      dup2\n        /* \"#utility.yul\":18968:18991   */\n      swap1\n      pop\n        /* \"#utility.yul\":18944:18993   */\n    tag_352:\n        /* \"#utility.yul\":19006:19086   */\n      tag_353\n        /* \"#utility.yul\":19062:19084   */\n      tag_354\n        /* \"#utility.yul\":19080:19083   */\n      dup6\n        /* \"#utility.yul\":19062:19084   */\n      tag_156\n      jump\t// in\n    tag_354:\n        /* \"#utility.yul\":19052:19060   */\n      dup4\n        /* \"#utility.yul\":19048:19085   */\n      add\n        /* \"#utility.yul\":19035:19046   */\n      dup3\n        /* \"#utility.yul\":19006:19086   */\n      tag_165\n      jump\t// in\n    tag_353:\n        /* \"#utility.yul\":18665:19096   */\n      pop\n      pop\n        /* \"#utility.yul\":18650:19096   */\n    tag_349:\n        /* \"#utility.yul\":18560:19103   */\n      pop\n      pop\n      pop\n      jump\t// out\n        /* \"#utility.yul\":19109:19226   */\n    tag_167:\n        /* \"#utility.yul\":19163:19171   */\n      0x00\n        /* \"#utility.yul\":19213:19218   */\n      dup3\n        /* \"#utility.yul\":19207:19211   */\n      dup3\n        /* \"#utility.yul\":19203:19219   */\n      shr\n        /* \"#utility.yul\":19182:19219   */\n      swap1\n      pop\n        /* \"#utility.yul\":19109:19226   */\n      swap3\n      swap2\n      pop\n      pop\n      jump\t// out\n        /* \"#utility.yul\":19232:19401   */\n    tag_168:\n        /* \"#utility.yul\":19276:19282   */\n      0x00\n        /* \"#utility.yul\":19309:19360   */\n      tag_357\n        /* \"#utility.yul\":19357:19358   */\n      0x00\n        /* \"#utility.yul\":19353:19359   */\n      not\n        /* \"#utility.yul\":19345:19350   */\n      dup5\n        /* \"#utility.yul\":19342:19343   */\n      0x08\n        /* \"#utility.yul\":19338:19351   */\n      mul\n        /* \"#utility.yul\":19309:19360   */\n      tag_167\n      jump\t// in\n    tag_357:\n        /* \"#utility.yul\":19305:19361   */\n      not\n        /* \"#utility.yul\":19390:19394   */\n      dup1\n        /* \"#utility.yul\":19384:19388   */\n      dup4\n        /* \"#utility.yul\":19380:19395   */\n      and\n        /* \"#utility.yul\":19370:19395   */\n      swap2\n      pop\n        /* \"#utility.yul\":19283:19401   */\n      pop\n        /* \"#utility.yul\":19232:19401   */\n      swap3\n      swap2\n      pop\n      pop\n      jump\t// out\n        /* \"#utility.yul\":19406:19701   */\n    tag_169:\n        /* \"#utility.yul\":19482:19486   */\n      0x00\n        /* \"#utility.yul\":19628:19657   */\n      tag_359\n        /* \"#utility.yul\":19653:19656   */\n      dup4\n        /* \"#utility.yul\":19647:19651   */\n      dup4\n        /* \"#utility.yul\":19628:19657   */\n      tag_168\n      jump\t// in\n    tag_359:\n        /* \"#utility.yul\":19620:19657   */\n      swap2\n      pop\n        /* \"#utility.yul\":19690:19693   */\n      dup3\n        /* \"#utility.yul\":19687:19688   */\n      0x02\n        /* \"#utility.yul\":19683:19694   */\n      mul\n        /* \"#utility.yul\":19677:19681   */\n      dup3\n        /* \"#utility.yul\":19674:19695   */\n      or\n        /* \"#utility.yul\":19666:19695   */\n      swap1\n      pop\n        /* \"#utility.yul\":19406:19701   */\n      swap3\n      swap2\n      pop\n      pop\n      jump\t// out\n        /* \"#utility.yul\":19706:21101   */\n    tag_94:\n        /* \"#utility.yul\":19823:19860   */\n      tag_361\n        /* \"#utility.yul\":19856:19859   */\n      dup3\n        /* \"#utility.yul\":19823:19860   */\n      tag_116\n      jump\t// in\n    tag_361:\n        /* \"#utility.yul\":19925:19943   */\n      0xffffffffffffffff\n        /* \"#utility.yul\":19917:19923   */\n      dup2\n        /* \"#utility.yul\":19914:19944   */\n      gt\n        /* \"#utility.yul\":19911:19967   */\n      iszero\n      tag_362\n      jumpi\n        /* \"#utility.yul\":19947:19965   */\n      tag_363\n      tag_127\n      jump\t// in\n    tag_363:\n        /* \"#utility.yul\":19911:19967   */\n    tag_362:\n        /* \"#utility.yul\":19991:20029   */\n      tag_364\n        /* \"#utility.yul\":20023:20027   */\n      dup3\n        /* \"#utility.yul\":20017:20028   */\n      sload\n        /* \"#utility.yul\":19991:20029   */\n      tag_70\n      jump\t// in\n    tag_364:\n        /* \"#utility.yul\":20076:20143   */\n      tag_365\n        /* \"#utility.yul\":20136:20142   */\n      dup3\n        /* \"#utility.yul\":20128:20134   */\n      dup3\n        /* \"#utility.yul\":20122:20126   */\n      dup6\n        /* \"#utility.yul\":20076:20143   */\n      tag_166\n      jump\t// in\n    tag_365:\n        /* \"#utility.yul\":20170:20171   */\n      0x00\n        /* \"#utility.yul\":20194:20198   */\n      0x20\n        /* \"#utility.yul\":20181:20198   */\n      swap1\n      pop\n        /* \"#utility.yul\":20226:20228   */\n      0x1f\n        /* \"#utility.yul\":20218:20224   */\n      dup4\n        /* \"#utility.yul\":20215:20229   */\n      gt\n        /* \"#utility.yul\":20243:20244   */\n      0x01\n        /* \"#utility.yul\":20238:20856   */\n      dup2\n      eq\n      tag_367\n      jumpi\n        /* \"#utility.yul\":20900:20901   */\n      0x00\n        /* \"#utility.yul\":20917:20923   */\n      dup5\n        /* \"#utility.yul\":20914:20991   */\n      iszero\n      tag_368\n      jumpi\n        /* \"#utility.yul\":20966:20975   */\n      dup3\n        /* \"#utility.yul\":20961:20964   */\n      dup8\n        /* \"#utility.yul\":20957:20976   */\n      add\n        /* \"#utility.yul\":20951:20977   */\n      mload\n        /* \"#utility.yul\":20942:20977   */\n      swap1\n      pop\n        /* \"#utility.yul\":20914:20991   */\n    tag_368:\n        /* \"#utility.yul\":21017:21084   */\n      tag_369\n        /* \"#utility.yul\":21077:21083   */\n      dup6\n        /* \"#utility.yul\":21070:21075   */\n      dup3\n        /* \"#utility.yul\":21017:21084   */\n      tag_169\n      jump\t// in\n    tag_369:\n        /* \"#utility.yul\":21011:21015   */\n      dup7\n        /* \"#utility.yul\":21004:21085   */\n      sstore\n        /* \"#utility.yul\":20873:21095   */\n      pop\n        /* \"#utility.yul\":20208:21095   */\n      jump(tag_366)\n        /* \"#utility.yul\":20238:20856   */\n    tag_367:\n        /* \"#utility.yul\":20290:20294   */\n      0x1f\n        /* \"#utility.yul\":20286:20295   */\n      not\n        /* \"#utility.yul\":20278:20284   */\n      dup5\n        /* \"#utility.yul\":20274:20296   */\n      and\n        /* \"#utility.yul\":20324:20361   */\n      tag_370\n        /* \"#utility.yul\":20356:20360   */\n      dup7\n        /* \"#utility.yul\":20324:20361   */\n      tag_155\n      jump\t// in\n    tag_370:\n        /* \"#utility.yul\":20383:20384   */\n      0x00\n        /* \"#utility.yul\":20397:20605   */\n    tag_371:\n        /* \"#utility.yul\":20411:20418   */\n      dup3\n        /* \"#utility.yul\":20408:20409   */\n      dup2\n        /* \"#utility.yul\":20405:20419   */\n      lt\n        /* \"#utility.yul\":20397:20605   */\n      iszero\n      tag_373\n      jumpi\n        /* \"#utility.yul\":20490:20499   */\n      dup5\n        /* \"#utility.yul\":20485:20488   */\n      dup10\n        /* \"#utility.yul\":20481:20500   */\n      add\n        /* \"#utility.yul\":20475:20501   */\n      mload\n        /* \"#utility.yul\":20467:20473   */\n      dup3\n        /* \"#utility.yul\":20460:20502   */\n      sstore\n        /* \"#utility.yul\":20541:20542   */\n      0x01\n        /* \"#utility.yul\":20533:20539   */\n      dup3\n        /* \"#utility.yul\":20529:20543   */\n      add\n        /* \"#utility.yul\":20519:20543   */\n      swap2\n      pop\n        /* \"#utility.yul\":20588:20590   */\n      0x20\n        /* \"#utility.yul\":20577:20586   */\n      dup6\n        /* \"#utility.yul\":20573:20591   */\n      add\n        /* \"#utility.yul\":20560:20591   */\n      swap5\n      pop\n        /* \"#utility.yul\":20434:20438   */\n      0x20\n        /* \"#utility.yul\":20431:20432   */\n      dup2\n        /* \"#utility.yul\":20427:20439   */\n      add\n        /* \"#utility.yul\":20422:20439   */\n      swap1\n      pop\n        /* \"#utility.yul\":20397:20605   */\n      jump(tag_371)\n    tag_373:\n        /* \"#utility.yul\":20633:20639   */\n      dup7\n        /* \"#utility.yul\":20624:20631   */\n      dup4\n        /* \"#utility.yul\":20621:20640   */\n      lt\n        /* \"#utility.yul\":20618:20797   */\n      iszero\n      tag_374\n      jumpi\n        /* \"#utility.yul\":20691:20700   */\n      dup5\n        /* \"#utility.yul\":20686:20689   */\n      dup10\n        /* \"#utility.yul\":20682:20701   */\n      add\n        /* \"#utility.yul\":20676:20702   */\n      mload\n        /* \"#utility.yul\":20734:20782   */\n      tag_375\n        /* \"#utility.yul\":20776:20780   */\n      0x1f\n        /* \"#utility.yul\":20768:20774   */\n      dup10\n        /* \"#utility.yul\":20764:20781   */\n      and\n        /* \"#utility.yul\":20753:20762   */\n      dup3\n        /* \"#utility.yul\":20734:20782   */\n      tag_168\n      jump\t// in\n    tag_375:\n        /* \"#utility.yul\":20726:20732   */\n      dup4\n        /* \"#utility.yul\":20719:20783   */\n      sstore\n        /* \"#utility.yul\":20641:20797   */\n      pop\n        /* \"#utility.yul\":20618:20797   */\n    tag_374:\n        /* \"#utility.yul\":20843:20844   */\n      0x01\n        /* \"#utility.yul\":20839:20840   */\n      0x02\n        /* \"#utility.yul\":20831:20837   */\n      dup9\n        /* \"#utility.yul\":20827:20841   */\n      mul\n        /* \"#utility.yul\":20823:20845   */\n      add\n        /* \"#utility.yul\":20817:20821   */\n      dup9\n        /* \"#utility.yul\":20810:20846   */\n      sstore\n        /* \"#utility.yul\":20245:20856   */\n      pop\n      pop\n      pop\n        /* \"#utility.yul\":20208:21095   */\n    tag_366:\n      pop\n        /* \"#utility.yul\":19798:21101   */\n      pop\n      pop\n      pop\n        /* \"#utility.yul\":19706:21101   */\n      pop\n      pop\n      jump\t// out\n\n    auxdata: 0xa2646970667358221220ba82b22aa6d1d184f9af90ae2703ac5ad6fce6ed482e402cbae8e40738a0cf2564736f6c634300081a0033\n}\n",
				"bytecode": {
					"linkReferences": {},
					"object": "6080604052348015600e575f80fd5b50335f806101000a81548173ffffffffffffffffffffffffffffffffffffffff021916908373ffffffffffffffffffffffffffffffffffffffff1602179055506001805f805f9054906101000a900473ffffffffffffffffffffffffffffffffffffffff1673ffffffffffffffffffffffffffffffffffffffff1673ffffffffffffffffffffffffffffffffffffffff1681526020019081526020015f205f015f6101000a81548160ff02191690831515021790555061140a806100d15f395ff3fe608060405234801561000f575f80fd5b506004361061009c575f3560e01c8063565e802a11610064578063565e802a14610144578063a3ec138d14610174578063aab46b7f146101a6578063d28178d7146101c4578063e2ba53f0146101e25761009c565b80630121b93f146100a05780632d35a8a2146100bc5780633477ee2e146100da57806338db6dd31461010c578063462e91ec14610128575b5f80fd5b6100ba60048036038101906100b59190610949565b610200565b005b6100c4610384565b6040516100d19190610983565b60405180910390f35b6100f460048036038101906100ef9190610949565b61038a565b60405161010393929190610a0c565b60405180910390f35b61012660048036038101906101219190610aa2565b610436565b005b610142600480360381019061013d9190610bf9565b6105a8565b005b61015e60048036038101906101599190610bf9565b61074b565b60405161016b9190610c5a565b60405180910390f35b61018e60048036038101906101899190610aa2565b610780565b60405161019d93929190610c73565b60405180910390f35b6101ae6107be565b6040516101bb9190610cb7565b60405180910390f35b6101cc6107e1565b6040516101d99190610983565b60405180910390f35b6101ea610857565b6040516101f79190610cd0565b60405180910390f35b5f60015f3373ffffffffffffffffffffffffffffffffffffffff1673ffffffffffffffffffffffffffffffffffffffff1681526020019081526020015f209050805f015f9054906101000a900460ff1661028f576040517f08c379a000000000000000000000000000000000000000000000000000000000815260040161028690610d3a565b60405180910390fd5b805f0160019054906101000a900460ff16156102e0576040517f08c379a00000000000000000000000000000000000000000000000000000000081526004016102d790610da2565b60405180910390fd5b5f821180156102f157506004548211155b610330576040517f08c379a000000000000000000000000000000000000000000000000000000000815260040161032790610e0a565b60405180910390fd5b6001815f0160016101000a81548160ff021916908315150217905550818160010181905550600160025f8481526020019081526020015f206002015f8282546103799190610e55565b925050819055505050565b60045481565b6002602052805f5260405f205f91509050805f0154908060010180546103af90610eb5565b80601f01602080910402602001604051908101604052809291908181526020018280546103db90610eb5565b80156104265780601f106103fd57610100808354040283529160200191610426565b820191905f5260205f20905b81548152906001019060200180831161040957829003601f168201915b5050505050908060020154905083565b5f8054906101000a900473ffffffffffffffffffffffffffffffffffffffff1673ffffffffffffffffffffffffffffffffffffffff163373ffffffffffffffffffffffffffffffffffffffff16146104c3576040517f08c379a00000000000000000000000000000000000000000000000000000000081526004016104ba90610f55565b60405180910390fd5b60015f8273ffffffffffffffffffffffffffffffffffffffff1673ffffffffffffffffffffffffffffffffffffffff1681526020019081526020015f205f015f9054906101000a900460ff161561054f576040517f08c379a000000000000000000000000000000000000000000000000000000000815260040161054690610fbd565b60405180910390fd5b6001805f8373ffffffffffffffffffffffffffffffffffffffff1673ffffffffffffffffffffffffffffffffffffffff1681526020019081526020015f205f015f6101000a81548160ff02191690831515021790555050565b5f8054906101000a900473ffffffffffffffffffffffffffffffffffffffff1673ffffffffffffffffffffffffffffffffffffffff163373ffffffffffffffffffffffffffffffffffffffff1614610635576040517f08c379a000000000000000000000000000000000000000000000000000000000815260040161062c9061104b565b60405180910390fd5b60038160405161064591906110a3565b90815260200160405180910390205f9054906101000a900460ff16156106a0576040517f08c379a000000000000000000000000000000000000000000000000000000000815260040161069790611103565b60405180910390fd5b60045f8154809291906106b290611121565b9190505550604051806060016040528060045481526020018281526020015f81525060025f60045481526020019081526020015f205f820151815f015560208201518160010190816107049190611305565b5060408201518160020155905050600160038260405161072491906110a3565b90815260200160405180910390205f6101000a81548160ff02191690831515021790555050565b6003818051602081018201805184825260208301602085012081835280955050505050505f915054906101000a900460ff1681565b6001602052805f5260405f205f91509050805f015f9054906101000a900460ff1690805f0160019054906101000a900460ff16908060010154905083565b5f8054906101000a900473ffffffffffffffffffffffffffffffffffffffff1681565b5f805f90505f600190505b6004548111610852578160025f8381526020019081526020015f2060020154111561083f5760025f8281526020019081526020015f2060020154915060025f8281526020019081526020015f205f015492505b808061084a90611121565b9150506107ec565b505090565b60605f6108626107e1565b905060025f8281526020019081526020015f20600101805461088390610eb5565b80601f01602080910402602001604051908101604052809291908181526020018280546108af90610eb5565b80156108fa5780601f106108d1576101008083540402835291602001916108fa565b820191905f5260205f20905b8154815290600101906020018083116108dd57829003601f168201915b505050505091505090565b5f604051905090565b5f80fd5b5f80fd5b5f819050919050565b61092881610916565b8114610932575f80fd5b50565b5f813590506109438161091f565b92915050565b5f6020828403121561095e5761095d61090e565b5b5f61096b84828501610935565b91505092915050565b61097d81610916565b82525050565b5f6020820190506109965f830184610974565b92915050565b5f81519050919050565b5f82825260208201905092915050565b8281835e5f83830152505050565b5f601f19601f8301169050919050565b5f6109de8261099c565b6109e881856109a6565b93506109f88185602086016109b6565b610a01816109c4565b840191505092915050565b5f606082019050610a1f5f830186610974565b8181036020830152610a3181856109d4565b9050610a406040830184610974565b949350505050565b5f73ffffffffffffffffffffffffffffffffffffffff82169050919050565b5f610a7182610a48565b9050919050565b610a8181610a67565b8114610a8b575f80fd5b50565b5f81359050610a9c81610a78565b92915050565b5f60208284031215610ab757610ab661090e565b5b5f610ac484828501610a8e565b91505092915050565b5f80fd5b5f80fd5b7f4e487b71000000000000000000000000000000000000000000000000000000005f52604160045260245ffd5b610b0b826109c4565b810181811067ffffffffffffffff82111715610b2a57610b29610ad5565b5b80604052505050565b5f610b3c610905565b9050610b488282610b02565b919050565b5f67ffffffffffffffff821115610b6757610b66610ad5565b5b610b70826109c4565b9050602081019050919050565b828183375f83830152505050565b5f610b9d610b9884610b4d565b610b33565b905082815260208101848484011115610bb957610bb8610ad1565b5b610bc4848285610b7d565b509392505050565b5f82601f830112610be057610bdf610acd565b5b8135610bf0848260208601610b8b565b91505092915050565b5f60208284031215610c0e57610c0d61090e565b5b5f82013567ffffffffffffffff811115610c2b57610c2a610912565b5b610c3784828501610bcc565b91505092915050565b5f8115159050919050565b610c5481610c40565b82525050565b5f602082019050610c6d5f830184610c4b565b92915050565b5f606082019050610c865f830186610c4b565b610c936020830185610c4b565b610ca06040830184610974565b949350505050565b610cb181610a67565b82525050565b5f602082019050610cca5f830184610ca8565b92915050565b5f6020820190508181035f830152610ce881846109d4565b905092915050565b7f596f75206d7573742062652061207265676973746572656420766f7465722e005f82015250565b5f610d24601f836109a6565b9150610d2f82610cf0565b602082019050919050565b5f6020820190508181035f830152610d5181610d18565b9050919050565b7f596f75206861766520616c726561647920766f7465642e0000000000000000005f82015250565b5f610d8c6017836109a6565b9150610d9782610d58565b602082019050919050565b5f6020820190508181035f830152610db981610d80565b9050919050565b7f496e76616c69642063616e6469646174652049442e00000000000000000000005f82015250565b5f610df46015836109a6565b9150610dff82610dc0565b602082019050919050565b5f6020820190508181035f830152610e2181610de8565b9050919050565b7f4e487b71000000000000000000000000000000000000000000000000000000005f52601160045260245ffd5b5f610e5f82610916565b9150610e6a83610916565b9250828201905080821115610e8257610e81610e28565b5b92915050565b7f4e487b71000000000000000000000000000000000000000000000000000000005f52602260045260245ffd5b5f6002820490506001821680610ecc57607f821691505b602082108103610edf57610ede610e88565b5b50919050565b7f4f6e6c792074686520656c656374696f6e20636f6d6d697373696f6e2063616e5f8201527f20726567697374657220766f746572732e000000000000000000000000000000602082015250565b5f610f3f6031836109a6565b9150610f4a82610ee5565b604082019050919050565b5f6020820190508181035f830152610f6c81610f33565b9050919050565b7f566f74657220697320616c726561647920726567697374657265642e000000005f82015250565b5f610fa7601c836109a6565b9150610fb282610f73565b602082019050919050565b5f6020820190508181035f830152610fd481610f9b565b9050919050565b7f4f6e6c792074686520656c656374696f6e20636f6d6d697373696f6e2063616e5f8201527f206164642063616e646964617465732e00000000000000000000000000000000602082015250565b5f6110356030836109a6565b915061104082610fdb565b604082019050919050565b5f6020820190508181035f83015261106281611029565b9050919050565b5f81905092915050565b5f61107d8261099c565b6110878185611069565b93506110978185602086016109b6565b80840191505092915050565b5f6110ae8284611073565b915081905092915050565b7f43616e64696461746520697320616c726561647920726567697374657265642e5f82015250565b5f6110ed6020836109a6565b91506110f8826110b9565b602082019050919050565b5f6020820190508181035f83015261111a816110e1565b9050919050565b5f61112b82610916565b91507fffffffffffffffffffffffffffffffffffffffffffffffffffffffffffffffff820361115d5761115c610e28565b5b600182019050919050565b5f819050815f5260205f209050919050565b5f6020601f8301049050919050565b5f82821b905092915050565b5f600883026111c47fffffffffffffffffffffffffffffffffffffffffffffffffffffffffffffffff82611189565b6111ce8683611189565b95508019841693508086168417925050509392505050565b5f819050919050565b5f6112096112046111ff84610916565b6111e6565b610916565b9050919050565b5f819050919050565b611222836111ef565b61123661122e82611210565b848454611195565b825550505050565b5f90565b61124a61123e565b611255818484611219565b505050565b5b818110156112785761126d5f82611242565b60018101905061125b565b5050565b601f8211156112bd5761128e81611168565b6112978461117a565b810160208510156112a6578190505b6112ba6112b28561117a565b83018261125a565b50505b505050565b5f82821c905092915050565b5f6112dd5f19846008026112c2565b1980831691505092915050565b5f6112f583836112ce565b9150826002028217905092915050565b61130e8261099c565b67ffffffffffffffff81111561132757611326610ad5565b5b6113318254610eb5565b61133c82828561127c565b5f60209050601f83116001811461136d575f841561135b578287015190505b61136585826112ea565b8655506113cc565b601f19841661137b86611168565b5f5b828110156113a25784890151825560018201915060208501945060208101905061137d565b868310156113bf57848901516113bb601f8916826112ce565b8355505b6001600288020188555050505b50505050505056fea2646970667358221220ba82b22aa6d1d184f9af90ae2703ac5ad6fce6ed482e402cbae8e40738a0cf2564736f6c634300081a0033",
					"opcodes": "PUSH1 0x80 PUSH1 0x40 MSTORE CALLVALUE DUP1 ISZERO PUSH1 0xE JUMPI PUSH0 DUP1 REVERT JUMPDEST POP CALLER PUSH0 DUP1 PUSH2 0x100 EXP DUP2 SLOAD DUP2 PUSH20 0xFFFFFFFFFFFFFFFFFFFFFFFFFFFFFFFFFFFFFFFF MUL NOT AND SWAP1 DUP4 PUSH20 0xFFFFFFFFFFFFFFFFFFFFFFFFFFFFFFFFFFFFFFFF AND MUL OR SWAP1 SSTORE POP PUSH1 0x1 DUP1 PUSH0 DUP1 PUSH0 SWAP1 SLOAD SWAP1 PUSH2 0x100 EXP SWAP1 DIV PUSH20 0xFFFFFFFFFFFFFFFFFFFFFFFFFFFFFFFFFFFFFFFF AND PUSH20 0xFFFFFFFFFFFFFFFFFFFFFFFFFFFFFFFFFFFFFFFF AND PUSH20 0xFFFFFFFFFFFFFFFFFFFFFFFFFFFFFFFFFFFFFFFF AND DUP2 MSTORE PUSH1 0x20 ADD SWAP1 DUP2 MSTORE PUSH1 0x20 ADD PUSH0 KECCAK256 PUSH0 ADD PUSH0 PUSH2 0x100 EXP DUP2 SLOAD DUP2 PUSH1 0xFF MUL NOT AND SWAP1 DUP4 ISZERO ISZERO MUL OR SWAP1 SSTORE POP PUSH2 0x140A DUP1 PUSH2 0xD1 PUSH0 CODECOPY PUSH0 RETURN INVALID PUSH1 0x80 PUSH1 0x40 MSTORE CALLVALUE DUP1 ISZERO PUSH2 0xF JUMPI PUSH0 DUP1 REVERT JUMPDEST POP PUSH1 0x4 CALLDATASIZE LT PUSH2 0x9C JUMPI PUSH0 CALLDATALOAD PUSH1 0xE0 SHR DUP1 PUSH4 0x565E802A GT PUSH2 0x64 JUMPI DUP1 PUSH4 0x565E802A EQ PUSH2 0x144 JUMPI DUP1 PUSH4 0xA3EC138D EQ PUSH2 0x174 JUMPI DUP1 PUSH4 0xAAB46B7F EQ PUSH2 0x1A6 JUMPI DUP1 PUSH4 0xD28178D7 EQ PUSH2 0x1C4 JUMPI DUP1 PUSH4 0xE2BA53F0 EQ PUSH2 0x1E2 JUMPI PUSH2 0x9C JUMP JUMPDEST DUP1 PUSH4 0x121B93F EQ PUSH2 0xA0 JUMPI DUP1 PUSH4 0x2D35A8A2 EQ PUSH2 0xBC JUMPI DUP1 PUSH4 0x3477EE2E EQ PUSH2 0xDA JUMPI DUP1 PUSH4 0x38DB6DD3 EQ PUSH2 0x10C JUMPI DUP1 PUSH4 0x462E91EC EQ PUSH2 0x128 JUMPI JUMPDEST PUSH0 DUP1 REVERT JUMPDEST PUSH2 0xBA PUSH1 0x4 DUP1 CALLDATASIZE SUB DUP2 ADD SWAP1 PUSH2 0xB5 SWAP2 SWAP1 PUSH2 0x949 JUMP JUMPDEST PUSH2 0x200 JUMP JUMPDEST STOP JUMPDEST PUSH2 0xC4 PUSH2 0x384 JUMP JUMPDEST PUSH1 0x40 MLOAD PUSH2 0xD1 SWAP2 SWAP1 PUSH2 0x983 JUMP JUMPDEST PUSH1 0x40 MLOAD DUP1 SWAP2 SUB SWAP1 RETURN JUMPDEST PUSH2 0xF4 PUSH1 0x4 DUP1 CALLDATASIZE SUB DUP2 ADD SWAP1 PUSH2 0xEF SWAP2 SWAP1 PUSH2 0x949 JUMP JUMPDEST PUSH2 0x38A JUMP JUMPDEST PUSH1 0x40 MLOAD PUSH2 0x103 SWAP4 SWAP3 SWAP2 SWAP1 PUSH2 0xA0C JUMP JUMPDEST PUSH1 0x40 MLOAD DUP1 SWAP2 SUB SWAP1 RETURN JUMPDEST PUSH2 0x126 PUSH1 0x4 DUP1 CALLDATASIZE SUB DUP2 ADD SWAP1 PUSH2 0x121 SWAP2 SWAP1 PUSH2 0xAA2 JUMP JUMPDEST PUSH2 0x436 JUMP JUMPDEST STOP JUMPDEST PUSH2 0x142 PUSH1 0x4 DUP1 CALLDATASIZE SUB DUP2 ADD SWAP1 PUSH2 0x13D SWAP2 SWAP1 PUSH2 0xBF9 JUMP JUMPDEST PUSH2 0x5A8 JUMP JUMPDEST STOP JUMPDEST PUSH2 0x15E PUSH1 0x4 DUP1 CALLDATASIZE SUB DUP2 ADD SWAP1 PUSH2 0x159 SWAP2 SWAP1 PUSH2 0xBF9 JUMP JUMPDEST PUSH2 0x74B JUMP JUMPDEST PUSH1 0x40 MLOAD PUSH2 0x16B SWAP2 SWAP1 PUSH2 0xC5A JUMP JUMPDEST PUSH1 0x40 MLOAD DUP1 SWAP2 SUB SWAP1 RETURN JUMPDEST PUSH2 0x18E PUSH1 0x4 DUP1 CALLDATASIZE SUB DUP2 ADD SWAP1 PUSH2 0x189 SWAP2 SWAP1 PUSH2 0xAA2 JUMP JUMPDEST PUSH2 0x780 JUMP JUMPDEST PUSH1 0x40 MLOAD PUSH2 0x19D SWAP4 SWAP3 SWAP2 SWAP1 PUSH2 0xC73 JUMP JUMPDEST PUSH1 0x40 MLOAD DUP1 SWAP2 SUB SWAP1 RETURN JUMPDEST PUSH2 0x1AE PUSH2 0x7BE JUMP JUMPDEST PUSH1 0x40 MLOAD PUSH2 0x1BB SWAP2 SWAP1 PUSH2 0xCB7 JUMP JUMPDEST PUSH1 0x40 MLOAD DUP1 SWAP2 SUB SWAP1 RETURN JUMPDEST PUSH2 0x1CC PUSH2 0x7E1 JUMP JUMPDEST PUSH1 0x40 MLOAD PUSH2 0x1D9 SWAP2 SWAP1 PUSH2 0x983 JUMP JUMPDEST PUSH1 0x40 MLOAD DUP1 SWAP2 SUB SWAP1 RETURN JUMPDEST PUSH2 0x1EA PUSH2 0x857 JUMP JUMPDEST PUSH1 0x40 MLOAD PUSH2 0x1F7 SWAP2 SWAP1 PUSH2 0xCD0 JUMP JUMPDEST PUSH1 0x40 MLOAD DUP1 SWAP2 SUB SWAP1 RETURN JUMPDEST PUSH0 PUSH1 0x1 PUSH0 CALLER PUSH20 0xFFFFFFFFFFFFFFFFFFFFFFFFFFFFFFFFFFFFFFFF AND PUSH20 0xFFFFFFFFFFFFFFFFFFFFFFFFFFFFFFFFFFFFFFFF AND DUP2 MSTORE PUSH1 0x20 ADD SWAP1 DUP2 MSTORE PUSH1 0x20 ADD PUSH0 KECCAK256 SWAP1 POP DUP1 PUSH0 ADD PUSH0 SWAP1 SLOAD SWAP1 PUSH2 0x100 EXP SWAP1 DIV PUSH1 0xFF AND PUSH2 0x28F JUMPI PUSH1 0x40 MLOAD PUSH32 0x8C379A000000000000000000000000000000000000000000000000000000000 DUP2 MSTORE PUSH1 0x4 ADD PUSH2 0x286 SWAP1 PUSH2 0xD3A JUMP JUMPDEST PUSH1 0x40 MLOAD DUP1 SWAP2 SUB SWAP1 REVERT JUMPDEST DUP1 PUSH0 ADD PUSH1 0x1 SWAP1 SLOAD SWAP1 PUSH2 0x100 EXP SWAP1 DIV PUSH1 0xFF AND ISZERO PUSH2 0x2E0 JUMPI PUSH1 0x40 MLOAD PUSH32 0x8C379A000000000000000000000000000000000000000000000000000000000 DUP2 MSTORE PUSH1 0x4 ADD PUSH2 0x2D7 SWAP1 PUSH2 0xDA2 JUMP JUMPDEST PUSH1 0x40 MLOAD DUP1 SWAP2 SUB SWAP1 REVERT JUMPDEST PUSH0 DUP3 GT DUP1 ISZERO PUSH2 0x2F1 JUMPI POP PUSH1 0x4 SLOAD DUP3 GT ISZERO JUMPDEST PUSH2 0x330 JUMPI PUSH1 0x40 MLOAD PUSH32 0x8C379A000000000000000000000000000000000000000000000000000000000 DUP2 MSTORE PUSH1 0x4 ADD PUSH2 0x327 SWAP1 PUSH2 0xE0A JUMP JUMPDEST PUSH1 0x40 MLOAD DUP1 SWAP2 SUB SWAP1 REVERT JUMPDEST PUSH1 0x1 DUP2 PUSH0 ADD PUSH1 0x1 PUSH2 0x100 EXP DUP2 SLOAD DUP2 PUSH1 0xFF MUL NOT AND SWAP1 DUP4 ISZERO ISZERO MUL OR SWAP1 SSTORE POP DUP2 DUP2 PUSH1 0x1 ADD DUP2 SWAP1 SSTORE POP PUSH1 0x1 PUSH1 0x2 PUSH0 DUP5 DUP2 MSTORE PUSH1 0x20 ADD SWAP1 DUP2 MSTORE PUSH1 0x20 ADD PUSH0 KECCAK256 PUSH1 0x2 ADD PUSH0 DUP3 DUP3 SLOAD PUSH2 0x379 SWAP2 SWAP1 PUSH2 0xE55 JUMP JUMPDEST SWAP3 POP POP DUP2 SWAP1 SSTORE POP POP POP JUMP JUMPDEST PUSH1 0x4 SLOAD DUP2 JUMP JUMPDEST PUSH1 0x2 PUSH1 0x20 MSTORE DUP1 PUSH0 MSTORE PUSH1 0x40 PUSH0 KECCAK256 PUSH0 SWAP2 POP SWAP1 POP DUP1 PUSH0 ADD SLOAD SWAP1 DUP1 PUSH1 0x1 ADD DUP1 SLOAD PUSH2 0x3AF SWAP1 PUSH2 0xEB5 JUMP JUMPDEST DUP1 PUSH1 0x1F ADD PUSH1 0x20 DUP1 SWAP2 DIV MUL PUSH1 0x20 ADD PUSH1 0x40 MLOAD SWAP1 DUP2 ADD PUSH1 0x40 MSTORE DUP1 SWAP3 SWAP2 SWAP1 DUP2 DUP2 MSTORE PUSH1 0x20 ADD DUP3 DUP1 SLOAD PUSH2 0x3DB SWAP1 PUSH2 0xEB5 JUMP JUMPDEST DUP1 ISZERO PUSH2 0x426 JUMPI DUP1 PUSH1 0x1F LT PUSH2 0x3FD JUMPI PUSH2 0x100 DUP1 DUP4 SLOAD DIV MUL DUP4 MSTORE SWAP2 PUSH1 0x20 ADD SWAP2 PUSH2 0x426 JUMP JUMPDEST DUP3 ADD SWAP2 SWAP1 PUSH0 MSTORE PUSH1 0x20 PUSH0 KECCAK256 SWAP1 JUMPDEST DUP2 SLOAD DUP2 MSTORE SWAP1 PUSH1 0x1 ADD SWAP1 PUSH1 0x20 ADD DUP1 DUP4 GT PUSH2 0x409 JUMPI DUP3 SWAP1 SUB PUSH1 0x1F AND DUP3 ADD SWAP2 JUMPDEST POP POP POP POP POP SWAP1 DUP1 PUSH1 0x2 ADD SLOAD SWAP1 POP DUP4 JUMP JUMPDEST PUSH0 DUP1 SLOAD SWAP1 PUSH2 0x100 EXP SWAP1 DIV PUSH20 0xFFFFFFFFFFFFFFFFFFFFFFFFFFFFFFFFFFFFFFFF AND PUSH20 0xFFFFFFFFFFFFFFFFFFFFFFFFFFFFFFFFFFFFFFFF AND CALLER PUSH20 0xFFFFFFFFFFFFFFFFFFFFFFFFFFFFFFFFFFFFFFFF AND EQ PUSH2 0x4C3 JUMPI PUSH1 0x40 MLOAD PUSH32 0x8C379A000000000000000000000000000000000000000000000000000000000 DUP2 MSTORE PUSH1 0x4 ADD PUSH2 0x4BA SWAP1 PUSH2 0xF55 JUMP JUMPDEST PUSH1 0x40 MLOAD DUP1 SWAP2 SUB SWAP1 REVERT JUMPDEST PUSH1 0x1 PUSH0 DUP3 PUSH20 0xFFFFFFFFFFFFFFFFFFFFFFFFFFFFFFFFFFFFFFFF AND PUSH20 0xFFFFFFFFFFFFFFFFFFFFFFFFFFFFFFFFFFFFFFFF AND DUP2 MSTORE PUSH1 0x20 ADD SWAP1 DUP2 MSTORE PUSH1 0x20 ADD PUSH0 KECCAK256 PUSH0 ADD PUSH0 SWAP1 SLOAD SWAP1 PUSH2 0x100 EXP SWAP1 DIV PUSH1 0xFF AND ISZERO PUSH2 0x54F JUMPI PUSH1 0x40 MLOAD PUSH32 0x8C379A000000000000000000000000000000000000000000000000000000000 DUP2 MSTORE PUSH1 0x4 ADD PUSH2 0x546 SWAP1 PUSH2 0xFBD JUMP JUMPDEST PUSH1 0x40 MLOAD DUP1 SWAP2 SUB SWAP1 REVERT JUMPDEST PUSH1 0x1 DUP1 PUSH0 DUP4 PUSH20 0xFFFFFFFFFFFFFFFFFFFFFFFFFFFFFFFFFFFFFFFF AND PUSH20 0xFFFFFFFFFFFFFFFFFFFFFFFFFFFFFFFFFFFFFFFF AND DUP2 MSTORE PUSH1 0x20 ADD SWAP1 DUP2 MSTORE PUSH1 0x20 ADD PUSH0 KECCAK256 PUSH0 ADD PUSH0 PUSH2 0x100 EXP DUP2 SLOAD DUP2 PUSH1 0xFF MUL NOT AND SWAP1 DUP4 ISZERO ISZERO MUL OR SWAP1 SSTORE POP POP JUMP JUMPDEST PUSH0 DUP1 SLOAD SWAP1 PUSH2 0x100 EXP SWAP1 DIV PUSH20 0xFFFFFFFFFFFFFFFFFFFFFFFFFFFFFFFFFFFFFFFF AND PUSH20 0xFFFFFFFFFFFFFFFFFFFFFFFFFFFFFFFFFFFFFFFF AND CALLER PUSH20 0xFFFFFFFFFFFFFFFFFFFFFFFFFFFFFFFFFFFFFFFF AND EQ PUSH2 0x635 JUMPI PUSH1 0x40 MLOAD PUSH32 0x8C379A000000000000000000000000000000000000000000000000000000000 DUP2 MSTORE PUSH1 0x4 ADD PUSH2 0x62C SWAP1 PUSH2 0x104B JUMP JUMPDEST PUSH1 0x40 MLOAD DUP1 SWAP2 SUB SWAP1 REVERT JUMPDEST PUSH1 0x3 DUP2 PUSH1 0x40 MLOAD PUSH2 0x645 SWAP2 SWAP1 PUSH2 0x10A3 JUMP JUMPDEST SWAP1 DUP2 MSTORE PUSH1 0x20 ADD PUSH1 0x40 MLOAD DUP1 SWAP2 SUB SWAP1 KECCAK256 PUSH0 SWAP1 SLOAD SWAP1 PUSH2 0x100 EXP SWAP1 DIV PUSH1 0xFF AND ISZERO PUSH2 0x6A0 JUMPI PUSH1 0x40 MLOAD PUSH32 0x8C379A000000000000000000000000000000000000000000000000000000000 DUP2 MSTORE PUSH1 0x4 ADD PUSH2 0x697 SWAP1 PUSH2 0x1103 JUMP JUMPDEST PUSH1 0x40 MLOAD DUP1 SWAP2 SUB SWAP1 REVERT JUMPDEST PUSH1 0x4 PUSH0 DUP2 SLOAD DUP1 SWAP3 SWAP2 SWAP1 PUSH2 0x6B2 SWAP1 PUSH2 0x1121 JUMP JUMPDEST SWAP2 SWAP1 POP SSTORE POP PUSH1 0x40 MLOAD DUP1 PUSH1 0x60 ADD PUSH1 0x40 MSTORE DUP1 PUSH1 0x4 SLOAD DUP2 MSTORE PUSH1 0x20 ADD DUP3 DUP2 MSTORE PUSH1 0x20 ADD PUSH0 DUP2 MSTORE POP PUSH1 0x2 PUSH0 PUSH1 0x4 SLOAD DUP2 MSTORE PUSH1 0x20 ADD SWAP1 DUP2 MSTORE PUSH1 0x20 ADD PUSH0 KECCAK256 PUSH0 DUP3 ADD MLOAD DUP2 PUSH0 ADD SSTORE PUSH1 0x20 DUP3 ADD MLOAD DUP2 PUSH1 0x1 ADD SWAP1 DUP2 PUSH2 0x704 SWAP2 SWAP1 PUSH2 0x1305 JUMP JUMPDEST POP PUSH1 0x40 DUP3 ADD MLOAD DUP2 PUSH1 0x2 ADD SSTORE SWAP1 POP POP PUSH1 0x1 PUSH1 0x3 DUP3 PUSH1 0x40 MLOAD PUSH2 0x724 SWAP2 SWAP1 PUSH2 0x10A3 JUMP JUMPDEST SWAP1 DUP2 MSTORE PUSH1 0x20 ADD PUSH1 0x40 MLOAD DUP1 SWAP2 SUB SWAP1 KECCAK256 PUSH0 PUSH2 0x100 EXP DUP2 SLOAD DUP2 PUSH1 0xFF MUL NOT AND SWAP1 DUP4 ISZERO ISZERO MUL OR SWAP1 SSTORE POP POP JUMP JUMPDEST PUSH1 0x3 DUP2 DUP1 MLOAD PUSH1 0x20 DUP2 ADD DUP3 ADD DUP1 MLOAD DUP5 DUP3 MSTORE PUSH1 0x20 DUP4 ADD PUSH1 0x20 DUP6 ADD KECCAK256 DUP2 DUP4 MSTORE DUP1 SWAP6 POP POP POP POP POP POP PUSH0 SWAP2 POP SLOAD SWAP1 PUSH2 0x100 EXP SWAP1 DIV PUSH1 0xFF AND DUP2 JUMP JUMPDEST PUSH1 0x1 PUSH1 0x20 MSTORE DUP1 PUSH0 MSTORE PUSH1 0x40 PUSH0 KECCAK256 PUSH0 SWAP2 POP SWAP1 POP DUP1 PUSH0 ADD PUSH0 SWAP1 SLOAD SWAP1 PUSH2 0x100 EXP SWAP1 DIV PUSH1 0xFF AND SWAP1 DUP1 PUSH0 ADD PUSH1 0x1 SWAP1 SLOAD SWAP1 PUSH2 0x100 EXP SWAP1 DIV PUSH1 0xFF AND SWAP1 DUP1 PUSH1 0x1 ADD SLOAD SWAP1 POP DUP4 JUMP JUMPDEST PUSH0 DUP1 SLOAD SWAP1 PUSH2 0x100 EXP SWAP1 DIV PUSH20 0xFFFFFFFFFFFFFFFFFFFFFFFFFFFFFFFFFFFFFFFF AND DUP2 JUMP JUMPDEST PUSH0 DUP1 PUSH0 SWAP1 POP PUSH0 PUSH1 0x1 SWAP1 POP JUMPDEST PUSH1 0x4 SLOAD DUP2 GT PUSH2 0x852 JUMPI DUP2 PUSH1 0x2 PUSH0 DUP4 DUP2 MSTORE PUSH1 0x20 ADD SWAP1 DUP2 MSTORE PUSH1 0x20 ADD PUSH0 KECCAK256 PUSH1 0x2 ADD SLOAD GT ISZERO PUSH2 0x83F JUMPI PUSH1 0x2 PUSH0 DUP3 DUP2 MSTORE PUSH1 0x20 ADD SWAP1 DUP2 MSTORE PUSH1 0x20 ADD PUSH0 KECCAK256 PUSH1 0x2 ADD SLOAD SWAP2 POP PUSH1 0x2 PUSH0 DUP3 DUP2 MSTORE PUSH1 0x20 ADD SWAP1 DUP2 MSTORE PUSH1 0x20 ADD PUSH0 KECCAK256 PUSH0 ADD SLOAD SWAP3 POP JUMPDEST DUP1 DUP1 PUSH2 0x84A SWAP1 PUSH2 0x1121 JUMP JUMPDEST SWAP2 POP POP PUSH2 0x7EC JUMP JUMPDEST POP POP SWAP1 JUMP JUMPDEST PUSH1 0x60 PUSH0 PUSH2 0x862 PUSH2 0x7E1 JUMP JUMPDEST SWAP1 POP PUSH1 0x2 PUSH0 DUP3 DUP2 MSTORE PUSH1 0x20 ADD SWAP1 DUP2 MSTORE PUSH1 0x20 ADD PUSH0 KECCAK256 PUSH1 0x1 ADD DUP1 SLOAD PUSH2 0x883 SWAP1 PUSH2 0xEB5 JUMP JUMPDEST DUP1 PUSH1 0x1F ADD PUSH1 0x20 DUP1 SWAP2 DIV MUL PUSH1 0x20 ADD PUSH1 0x40 MLOAD SWAP1 DUP2 ADD PUSH1 0x40 MSTORE DUP1 SWAP3 SWAP2 SWAP1 DUP2 DUP2 MSTORE PUSH1 0x20 ADD DUP3 DUP1 SLOAD PUSH2 0x8AF SWAP1 PUSH2 0xEB5 JUMP JUMPDEST DUP1 ISZERO PUSH2 0x8FA JUMPI DUP1 PUSH1 0x1F LT PUSH2 0x8D1 JUMPI PUSH2 0x100 DUP1 DUP4 SLOAD DIV MUL DUP4 MSTORE SWAP2 PUSH1 0x20 ADD SWAP2 PUSH2 0x8FA JUMP JUMPDEST DUP3 ADD SWAP2 SWAP1 PUSH0 MSTORE PUSH1 0x20 PUSH0 KECCAK256 SWAP1 JUMPDEST DUP2 SLOAD DUP2 MSTORE SWAP1 PUSH1 0x1 ADD SWAP1 PUSH1 0x20 ADD DUP1 DUP4 GT PUSH2 0x8DD JUMPI DUP3 SWAP1 SUB PUSH1 0x1F AND DUP3 ADD SWAP2 JUMPDEST POP POP POP POP POP SWAP2 POP POP SWAP1 JUMP JUMPDEST PUSH0 PUSH1 0x40 MLOAD SWAP1 POP SWAP1 JUMP JUMPDEST PUSH0 DUP1 REVERT JUMPDEST PUSH0 DUP1 REVERT JUMPDEST PUSH0 DUP2 SWAP1 POP SWAP2 SWAP1 POP JUMP JUMPDEST PUSH2 0x928 DUP2 PUSH2 0x916 JUMP JUMPDEST DUP2 EQ PUSH2 0x932 JUMPI PUSH0 DUP1 REVERT JUMPDEST POP JUMP JUMPDEST PUSH0 DUP2 CALLDATALOAD SWAP1 POP PUSH2 0x943 DUP2 PUSH2 0x91F JUMP JUMPDEST SWAP3 SWAP2 POP POP JUMP JUMPDEST PUSH0 PUSH1 0x20 DUP3 DUP5 SUB SLT ISZERO PUSH2 0x95E JUMPI PUSH2 0x95D PUSH2 0x90E JUMP JUMPDEST JUMPDEST PUSH0 PUSH2 0x96B DUP5 DUP3 DUP6 ADD PUSH2 0x935 JUMP JUMPDEST SWAP2 POP POP SWAP3 SWAP2 POP POP JUMP JUMPDEST PUSH2 0x97D DUP2 PUSH2 0x916 JUMP JUMPDEST DUP3 MSTORE POP POP JUMP JUMPDEST PUSH0 PUSH1 0x20 DUP3 ADD SWAP1 POP PUSH2 0x996 PUSH0 DUP4 ADD DUP5 PUSH2 0x974 JUMP JUMPDEST SWAP3 SWAP2 POP POP JUMP JUMPDEST PUSH0 DUP2 MLOAD SWAP1 POP SWAP2 SWAP1 POP JUMP JUMPDEST PUSH0 DUP3 DUP3 MSTORE PUSH1 0x20 DUP3 ADD SWAP1 POP SWAP3 SWAP2 POP POP JUMP JUMPDEST DUP3 DUP2 DUP4 MCOPY PUSH0 DUP4 DUP4 ADD MSTORE POP POP POP JUMP JUMPDEST PUSH0 PUSH1 0x1F NOT PUSH1 0x1F DUP4 ADD AND SWAP1 POP SWAP2 SWAP1 POP JUMP JUMPDEST PUSH0 PUSH2 0x9DE DUP3 PUSH2 0x99C JUMP JUMPDEST PUSH2 0x9E8 DUP2 DUP6 PUSH2 0x9A6 JUMP JUMPDEST SWAP4 POP PUSH2 0x9F8 DUP2 DUP6 PUSH1 0x20 DUP7 ADD PUSH2 0x9B6 JUMP JUMPDEST PUSH2 0xA01 DUP2 PUSH2 0x9C4 JUMP JUMPDEST DUP5 ADD SWAP2 POP POP SWAP3 SWAP2 POP POP JUMP JUMPDEST PUSH0 PUSH1 0x60 DUP3 ADD SWAP1 POP PUSH2 0xA1F PUSH0 DUP4 ADD DUP7 PUSH2 0x974 JUMP JUMPDEST DUP2 DUP2 SUB PUSH1 0x20 DUP4 ADD MSTORE PUSH2 0xA31 DUP2 DUP6 PUSH2 0x9D4 JUMP JUMPDEST SWAP1 POP PUSH2 0xA40 PUSH1 0x40 DUP4 ADD DUP5 PUSH2 0x974 JUMP JUMPDEST SWAP5 SWAP4 POP POP POP POP JUMP JUMPDEST PUSH0 PUSH20 0xFFFFFFFFFFFFFFFFFFFFFFFFFFFFFFFFFFFFFFFF DUP3 AND SWAP1 POP SWAP2 SWAP1 POP JUMP JUMPDEST PUSH0 PUSH2 0xA71 DUP3 PUSH2 0xA48 JUMP JUMPDEST SWAP1 POP SWAP2 SWAP1 POP JUMP JUMPDEST PUSH2 0xA81 DUP2 PUSH2 0xA67 JUMP JUMPDEST DUP2 EQ PUSH2 0xA8B JUMPI PUSH0 DUP1 REVERT JUMPDEST POP JUMP JUMPDEST PUSH0 DUP2 CALLDATALOAD SWAP1 POP PUSH2 0xA9C DUP2 PUSH2 0xA78 JUMP JUMPDEST SWAP3 SWAP2 POP POP JUMP JUMPDEST PUSH0 PUSH1 0x20 DUP3 DUP5 SUB SLT ISZERO PUSH2 0xAB7 JUMPI PUSH2 0xAB6 PUSH2 0x90E JUMP JUMPDEST JUMPDEST PUSH0 PUSH2 0xAC4 DUP5 DUP3 DUP6 ADD PUSH2 0xA8E JUMP JUMPDEST SWAP2 POP POP SWAP3 SWAP2 POP POP JUMP JUMPDEST PUSH0 DUP1 REVERT JUMPDEST PUSH0 DUP1 REVERT JUMPDEST PUSH32 0x4E487B7100000000000000000000000000000000000000000000000000000000 PUSH0 MSTORE PUSH1 0x41 PUSH1 0x4 MSTORE PUSH1 0x24 PUSH0 REVERT JUMPDEST PUSH2 0xB0B DUP3 PUSH2 0x9C4 JUMP JUMPDEST DUP2 ADD DUP2 DUP2 LT PUSH8 0xFFFFFFFFFFFFFFFF DUP3 GT OR ISZERO PUSH2 0xB2A JUMPI PUSH2 0xB29 PUSH2 0xAD5 JUMP JUMPDEST JUMPDEST DUP1 PUSH1 0x40 MSTORE POP POP POP JUMP JUMPDEST PUSH0 PUSH2 0xB3C PUSH2 0x905 JUMP JUMPDEST SWAP1 POP PUSH2 0xB48 DUP3 DUP3 PUSH2 0xB02 JUMP JUMPDEST SWAP2 SWAP1 POP JUMP JUMPDEST PUSH0 PUSH8 0xFFFFFFFFFFFFFFFF DUP3 GT ISZERO PUSH2 0xB67 JUMPI PUSH2 0xB66 PUSH2 0xAD5 JUMP JUMPDEST JUMPDEST PUSH2 0xB70 DUP3 PUSH2 0x9C4 JUMP JUMPDEST SWAP1 POP PUSH1 0x20 DUP2 ADD SWAP1 POP SWAP2 SWAP1 POP JUMP JUMPDEST DUP3 DUP2 DUP4 CALLDATACOPY PUSH0 DUP4 DUP4 ADD MSTORE POP POP POP JUMP JUMPDEST PUSH0 PUSH2 0xB9D PUSH2 0xB98 DUP5 PUSH2 0xB4D JUMP JUMPDEST PUSH2 0xB33 JUMP JUMPDEST SWAP1 POP DUP3 DUP2 MSTORE PUSH1 0x20 DUP2 ADD DUP5 DUP5 DUP5 ADD GT ISZERO PUSH2 0xBB9 JUMPI PUSH2 0xBB8 PUSH2 0xAD1 JUMP JUMPDEST JUMPDEST PUSH2 0xBC4 DUP5 DUP3 DUP6 PUSH2 0xB7D JUMP JUMPDEST POP SWAP4 SWAP3 POP POP POP JUMP JUMPDEST PUSH0 DUP3 PUSH1 0x1F DUP4 ADD SLT PUSH2 0xBE0 JUMPI PUSH2 0xBDF PUSH2 0xACD JUMP JUMPDEST JUMPDEST DUP2 CALLDATALOAD PUSH2 0xBF0 DUP5 DUP3 PUSH1 0x20 DUP7 ADD PUSH2 0xB8B JUMP JUMPDEST SWAP2 POP POP SWAP3 SWAP2 POP POP JUMP JUMPDEST PUSH0 PUSH1 0x20 DUP3 DUP5 SUB SLT ISZERO PUSH2 0xC0E JUMPI PUSH2 0xC0D PUSH2 0x90E JUMP JUMPDEST JUMPDEST PUSH0 DUP3 ADD CALLDATALOAD PUSH8 0xFFFFFFFFFFFFFFFF DUP2 GT ISZERO PUSH2 0xC2B JUMPI PUSH2 0xC2A PUSH2 0x912 JUMP JUMPDEST JUMPDEST PUSH2 0xC37 DUP5 DUP3 DUP6 ADD PUSH2 0xBCC JUMP JUMPDEST SWAP2 POP POP SWAP3 SWAP2 POP POP JUMP JUMPDEST PUSH0 DUP2 ISZERO ISZERO SWAP1 POP SWAP2 SWAP1 POP JUMP JUMPDEST PUSH2 0xC54 DUP2 PUSH2 0xC40 JUMP JUMPDEST DUP3 MSTORE POP POP JUMP JUMPDEST PUSH0 PUSH1 0x20 DUP3 ADD SWAP1 POP PUSH2 0xC6D PUSH0 DUP4 ADD DUP5 PUSH2 0xC4B JUMP JUMPDEST SWAP3 SWAP2 POP POP JUMP JUMPDEST PUSH0 PUSH1 0x60 DUP3 ADD SWAP1 POP PUSH2 0xC86 PUSH0 DUP4 ADD DUP7 PUSH2 0xC4B JUMP JUMPDEST PUSH2 0xC93 PUSH1 0x20 DUP4 ADD DUP6 PUSH2 0xC4B JUMP JUMPDEST PUSH2 0xCA0 PUSH1 0x40 DUP4 ADD DUP5 PUSH2 0x974 JUMP JUMPDEST SWAP5 SWAP4 POP POP POP POP JUMP JUMPDEST PUSH2 0xCB1 DUP2 PUSH2 0xA67 JUMP JUMPDEST DUP3 MSTORE POP POP JUMP JUMPDEST PUSH0 PUSH1 0x20 DUP3 ADD SWAP1 POP PUSH2 0xCCA PUSH0 DUP4 ADD DUP5 PUSH2 0xCA8 JUMP JUMPDEST SWAP3 SWAP2 POP POP JUMP JUMPDEST PUSH0 PUSH1 0x20 DUP3 ADD SWAP1 POP DUP2 DUP2 SUB PUSH0 DUP4 ADD MSTORE PUSH2 0xCE8 DUP2 DUP5 PUSH2 0x9D4 JUMP JUMPDEST SWAP1 POP SWAP3 SWAP2 POP POP JUMP JUMPDEST PUSH32 0x596F75206D7573742062652061207265676973746572656420766F7465722E00 PUSH0 DUP3 ADD MSTORE POP JUMP JUMPDEST PUSH0 PUSH2 0xD24 PUSH1 0x1F DUP4 PUSH2 0x9A6 JUMP JUMPDEST SWAP2 POP PUSH2 0xD2F DUP3 PUSH2 0xCF0 JUMP JUMPDEST PUSH1 0x20 DUP3 ADD SWAP1 POP SWAP2 SWAP1 POP JUMP JUMPDEST PUSH0 PUSH1 0x20 DUP3 ADD SWAP1 POP DUP2 DUP2 SUB PUSH0 DUP4 ADD MSTORE PUSH2 0xD51 DUP2 PUSH2 0xD18 JUMP JUMPDEST SWAP1 POP SWAP2 SWAP1 POP JUMP JUMPDEST PUSH32 0x596F75206861766520616C726561647920766F7465642E000000000000000000 PUSH0 DUP3 ADD MSTORE POP JUMP JUMPDEST PUSH0 PUSH2 0xD8C PUSH1 0x17 DUP4 PUSH2 0x9A6 JUMP JUMPDEST SWAP2 POP PUSH2 0xD97 DUP3 PUSH2 0xD58 JUMP JUMPDEST PUSH1 0x20 DUP3 ADD SWAP1 POP SWAP2 SWAP1 POP JUMP JUMPDEST PUSH0 PUSH1 0x20 DUP3 ADD SWAP1 POP DUP2 DUP2 SUB PUSH0 DUP4 ADD MSTORE PUSH2 0xDB9 DUP2 PUSH2 0xD80 JUMP JUMPDEST SWAP1 POP SWAP2 SWAP1 POP JUMP JUMPDEST PUSH32 0x496E76616C69642063616E6469646174652049442E0000000000000000000000 PUSH0 DUP3 ADD MSTORE POP JUMP JUMPDEST PUSH0 PUSH2 0xDF4 PUSH1 0x15 DUP4 PUSH2 0x9A6 JUMP JUMPDEST SWAP2 POP PUSH2 0xDFF DUP3 PUSH2 0xDC0 JUMP JUMPDEST PUSH1 0x20 DUP3 ADD SWAP1 POP SWAP2 SWAP1 POP JUMP JUMPDEST PUSH0 PUSH1 0x20 DUP3 ADD SWAP1 POP DUP2 DUP2 SUB PUSH0 DUP4 ADD MSTORE PUSH2 0xE21 DUP2 PUSH2 0xDE8 JUMP JUMPDEST SWAP1 POP SWAP2 SWAP1 POP JUMP JUMPDEST PUSH32 0x4E487B7100000000000000000000000000000000000000000000000000000000 PUSH0 MSTORE PUSH1 0x11 PUSH1 0x4 MSTORE PUSH1 0x24 PUSH0 REVERT JUMPDEST PUSH0 PUSH2 0xE5F DUP3 PUSH2 0x916 JUMP JUMPDEST SWAP2 POP PUSH2 0xE6A DUP4 PUSH2 0x916 JUMP JUMPDEST SWAP3 POP DUP3 DUP3 ADD SWAP1 POP DUP1 DUP3 GT ISZERO PUSH2 0xE82 JUMPI PUSH2 0xE81 PUSH2 0xE28 JUMP JUMPDEST JUMPDEST SWAP3 SWAP2 POP POP JUMP JUMPDEST PUSH32 0x4E487B7100000000000000000000000000000000000000000000000000000000 PUSH0 MSTORE PUSH1 0x22 PUSH1 0x4 MSTORE PUSH1 0x24 PUSH0 REVERT JUMPDEST PUSH0 PUSH1 0x2 DUP3 DIV SWAP1 POP PUSH1 0x1 DUP3 AND DUP1 PUSH2 0xECC JUMPI PUSH1 0x7F DUP3 AND SWAP2 POP JUMPDEST PUSH1 0x20 DUP3 LT DUP2 SUB PUSH2 0xEDF JUMPI PUSH2 0xEDE PUSH2 0xE88 JUMP JUMPDEST JUMPDEST POP SWAP2 SWAP1 POP JUMP JUMPDEST PUSH32 0x4F6E6C792074686520656C656374696F6E20636F6D6D697373696F6E2063616E PUSH0 DUP3 ADD MSTORE PUSH32 0x20726567697374657220766F746572732E000000000000000000000000000000 PUSH1 0x20 DUP3 ADD MSTORE POP JUMP JUMPDEST PUSH0 PUSH2 0xF3F PUSH1 0x31 DUP4 PUSH2 0x9A6 JUMP JUMPDEST SWAP2 POP PUSH2 0xF4A DUP3 PUSH2 0xEE5 JUMP JUMPDEST PUSH1 0x40 DUP3 ADD SWAP1 POP SWAP2 SWAP1 POP JUMP JUMPDEST PUSH0 PUSH1 0x20 DUP3 ADD SWAP1 POP DUP2 DUP2 SUB PUSH0 DUP4 ADD MSTORE PUSH2 0xF6C DUP2 PUSH2 0xF33 JUMP JUMPDEST SWAP1 POP SWAP2 SWAP1 POP JUMP JUMPDEST PUSH32 0x566F74657220697320616C726561647920726567697374657265642E00000000 PUSH0 DUP3 ADD MSTORE POP JUMP JUMPDEST PUSH0 PUSH2 0xFA7 PUSH1 0x1C DUP4 PUSH2 0x9A6 JUMP JUMPDEST SWAP2 POP PUSH2 0xFB2 DUP3 PUSH2 0xF73 JUMP JUMPDEST PUSH1 0x20 DUP3 ADD SWAP1 POP SWAP2 SWAP1 POP JUMP JUMPDEST PUSH0 PUSH1 0x20 DUP3 ADD SWAP1 POP DUP2 DUP2 SUB PUSH0 DUP4 ADD MSTORE PUSH2 0xFD4 DUP2 PUSH2 0xF9B JUMP JUMPDEST SWAP1 POP SWAP2 SWAP1 POP JUMP JUMPDEST PUSH32 0x4F6E6C792074686520656C656374696F6E20636F6D6D697373696F6E2063616E PUSH0 DUP3 ADD MSTORE PUSH32 0x206164642063616E646964617465732E00000000000000000000000000000000 PUSH1 0x20 DUP3 ADD MSTORE POP JUMP JUMPDEST PUSH0 PUSH2 0x1035 PUSH1 0x30 DUP4 PUSH2 0x9A6 JUMP JUMPDEST SWAP2 POP PUSH2 0x1040 DUP3 PUSH2 0xFDB JUMP JUMPDEST PUSH1 0x40 DUP3 ADD SWAP1 POP SWAP2 SWAP1 POP JUMP JUMPDEST PUSH0 PUSH1 0x20 DUP3 ADD SWAP1 POP DUP2 DUP2 SUB PUSH0 DUP4 ADD MSTORE PUSH2 0x1062 DUP2 PUSH2 0x1029 JUMP JUMPDEST SWAP1 POP SWAP2 SWAP1 POP JUMP JUMPDEST PUSH0 DUP2 SWAP1 POP SWAP3 SWAP2 POP POP JUMP JUMPDEST PUSH0 PUSH2 0x107D DUP3 PUSH2 0x99C JUMP JUMPDEST PUSH2 0x1087 DUP2 DUP6 PUSH2 0x1069 JUMP JUMPDEST SWAP4 POP PUSH2 0x1097 DUP2 DUP6 PUSH1 0x20 DUP7 ADD PUSH2 0x9B6 JUMP JUMPDEST DUP1 DUP5 ADD SWAP2 POP POP SWAP3 SWAP2 POP POP JUMP JUMPDEST PUSH0 PUSH2 0x10AE DUP3 DUP5 PUSH2 0x1073 JUMP JUMPDEST SWAP2 POP DUP2 SWAP1 POP SWAP3 SWAP2 POP POP JUMP JUMPDEST PUSH32 0x43616E64696461746520697320616C726561647920726567697374657265642E PUSH0 DUP3 ADD MSTORE POP JUMP JUMPDEST PUSH0 PUSH2 0x10ED PUSH1 0x20 DUP4 PUSH2 0x9A6 JUMP JUMPDEST SWAP2 POP PUSH2 0x10F8 DUP3 PUSH2 0x10B9 JUMP JUMPDEST PUSH1 0x20 DUP3 ADD SWAP1 POP SWAP2 SWAP1 POP JUMP JUMPDEST PUSH0 PUSH1 0x20 DUP3 ADD SWAP1 POP DUP2 DUP2 SUB PUSH0 DUP4 ADD MSTORE PUSH2 0x111A DUP2 PUSH2 0x10E1 JUMP JUMPDEST SWAP1 POP SWAP2 SWAP1 POP JUMP JUMPDEST PUSH0 PUSH2 0x112B DUP3 PUSH2 0x916 JUMP JUMPDEST SWAP2 POP PUSH32 0xFFFFFFFFFFFFFFFFFFFFFFFFFFFFFFFFFFFFFFFFFFFFFFFFFFFFFFFFFFFFFFFF DUP3 SUB PUSH2 0x115D JUMPI PUSH2 0x115C PUSH2 0xE28 JUMP JUMPDEST JUMPDEST PUSH1 0x1 DUP3 ADD SWAP1 POP SWAP2 SWAP1 POP JUMP JUMPDEST PUSH0 DUP2 SWAP1 POP DUP2 PUSH0 MSTORE PUSH1 0x20 PUSH0 KECCAK256 SWAP1 POP SWAP2 SWAP1 POP JUMP JUMPDEST PUSH0 PUSH1 0x20 PUSH1 0x1F DUP4 ADD DIV SWAP1 POP SWAP2 SWAP1 POP JUMP JUMPDEST PUSH0 DUP3 DUP3 SHL SWAP1 POP SWAP3 SWAP2 POP POP JUMP JUMPDEST PUSH0 PUSH1 0x8 DUP4 MUL PUSH2 0x11C4 PUSH32 0xFFFFFFFFFFFFFFFFFFFFFFFFFFFFFFFFFFFFFFFFFFFFFFFFFFFFFFFFFFFFFFFF DUP3 PUSH2 0x1189 JUMP JUMPDEST PUSH2 0x11CE DUP7 DUP4 PUSH2 0x1189 JUMP JUMPDEST SWAP6 POP DUP1 NOT DUP5 AND SWAP4 POP DUP1 DUP7 AND DUP5 OR SWAP3 POP POP POP SWAP4 SWAP3 POP POP POP JUMP JUMPDEST PUSH0 DUP2 SWAP1 POP SWAP2 SWAP1 POP JUMP JUMPDEST PUSH0 PUSH2 0x1209 PUSH2 0x1204 PUSH2 0x11FF DUP5 PUSH2 0x916 JUMP JUMPDEST PUSH2 0x11E6 JUMP JUMPDEST PUSH2 0x916 JUMP JUMPDEST SWAP1 POP SWAP2 SWAP1 POP JUMP JUMPDEST PUSH0 DUP2 SWAP1 POP SWAP2 SWAP1 POP JUMP JUMPDEST PUSH2 0x1222 DUP4 PUSH2 0x11EF JUMP JUMPDEST PUSH2 0x1236 PUSH2 0x122E DUP3 PUSH2 0x1210 JUMP JUMPDEST DUP5 DUP5 SLOAD PUSH2 0x1195 JUMP JUMPDEST DUP3 SSTORE POP POP POP POP JUMP JUMPDEST PUSH0 SWAP1 JUMP JUMPDEST PUSH2 0x124A PUSH2 0x123E JUMP JUMPDEST PUSH2 0x1255 DUP2 DUP5 DUP5 PUSH2 0x1219 JUMP JUMPDEST POP POP POP JUMP JUMPDEST JUMPDEST DUP2 DUP2 LT ISZERO PUSH2 0x1278 JUMPI PUSH2 0x126D PUSH0 DUP3 PUSH2 0x1242 JUMP JUMPDEST PUSH1 0x1 DUP2 ADD SWAP1 POP PUSH2 0x125B JUMP JUMPDEST POP POP JUMP JUMPDEST PUSH1 0x1F DUP3 GT ISZERO PUSH2 0x12BD JUMPI PUSH2 0x128E DUP2 PUSH2 0x1168 JUMP JUMPDEST PUSH2 0x1297 DUP5 PUSH2 0x117A JUMP JUMPDEST DUP2 ADD PUSH1 0x20 DUP6 LT ISZERO PUSH2 0x12A6 JUMPI DUP2 SWAP1 POP JUMPDEST PUSH2 0x12BA PUSH2 0x12B2 DUP6 PUSH2 0x117A JUMP JUMPDEST DUP4 ADD DUP3 PUSH2 0x125A JUMP JUMPDEST POP POP JUMPDEST POP POP POP JUMP JUMPDEST PUSH0 DUP3 DUP3 SHR SWAP1 POP SWAP3 SWAP2 POP POP JUMP JUMPDEST PUSH0 PUSH2 0x12DD PUSH0 NOT DUP5 PUSH1 0x8 MUL PUSH2 0x12C2 JUMP JUMPDEST NOT DUP1 DUP4 AND SWAP2 POP POP SWAP3 SWAP2 POP POP JUMP JUMPDEST PUSH0 PUSH2 0x12F5 DUP4 DUP4 PUSH2 0x12CE JUMP JUMPDEST SWAP2 POP DUP3 PUSH1 0x2 MUL DUP3 OR SWAP1 POP SWAP3 SWAP2 POP POP JUMP JUMPDEST PUSH2 0x130E DUP3 PUSH2 0x99C JUMP JUMPDEST PUSH8 0xFFFFFFFFFFFFFFFF DUP2 GT ISZERO PUSH2 0x1327 JUMPI PUSH2 0x1326 PUSH2 0xAD5 JUMP JUMPDEST JUMPDEST PUSH2 0x1331 DUP3 SLOAD PUSH2 0xEB5 JUMP JUMPDEST PUSH2 0x133C DUP3 DUP3 DUP6 PUSH2 0x127C JUMP JUMPDEST PUSH0 PUSH1 0x20 SWAP1 POP PUSH1 0x1F DUP4 GT PUSH1 0x1 DUP2 EQ PUSH2 0x136D JUMPI PUSH0 DUP5 ISZERO PUSH2 0x135B JUMPI DUP3 DUP8 ADD MLOAD SWAP1 POP JUMPDEST PUSH2 0x1365 DUP6 DUP3 PUSH2 0x12EA JUMP JUMPDEST DUP7 SSTORE POP PUSH2 0x13CC JUMP JUMPDEST PUSH1 0x1F NOT DUP5 AND PUSH2 0x137B DUP7 PUSH2 0x1168 JUMP JUMPDEST PUSH0 JUMPDEST DUP3 DUP2 LT ISZERO PUSH2 0x13A2 JUMPI DUP5 DUP10 ADD MLOAD DUP3 SSTORE PUSH1 0x1 DUP3 ADD SWAP2 POP PUSH1 0x20 DUP6 ADD SWAP5 POP PUSH1 0x20 DUP2 ADD SWAP1 POP PUSH2 0x137D JUMP JUMPDEST DUP7 DUP4 LT ISZERO PUSH2 0x13BF JUMPI DUP5 DUP10 ADD MLOAD PUSH2 0x13BB PUSH1 0x1F DUP10 AND DUP3 PUSH2 0x12CE JUMP JUMPDEST DUP4 SSTORE POP JUMPDEST PUSH1 0x1 PUSH1 0x2 DUP9 MUL ADD DUP9 SSTORE POP POP POP JUMPDEST POP POP POP POP POP POP JUMP INVALID LOG2 PUSH5 0x6970667358 0x22 SLT KECCAK256 0xBA DUP3 0xB2 0x2A 0xA6 0xD1 0xD1 DUP5 0xF9 0xAF SWAP1 0xAE 0x27 SUB 0xAC GAS 0xD6 0xFC 0xE6 0xED BASEFEE 0x2E BLOCKHASH 0x2C 0xBA 0xE8 0xE4 SMOD CODESIZE LOG0 0xCF 0x25 PUSH5 0x736F6C6343 STOP ADDMOD BYTE STOP CALLER "
				},
				"gasEstimates": {
					"creation": {
						"codeDepositCost": "1026000",
						"executionCost": "51824",
						"totalCost": "1077824"
					},
					"external": {
						"addCandidate(string)": "infinite",
						"candidates(uint256)": "infinite",
						"candidatesCount()": "2448",
						"electionCommission()": "2549",
						"isCandidateRegistered(string)": "infinite",
						"registerVoter(address)": "29289",
						"vote(uint256)": "infinite",
						"voters(address)": "infinite",
						"winnerName()": "infinite",
						"winningCandidate()": "infinite"
					}
				},
				"methodIdentifiers": {
					"addCandidate(string)": "462e91ec",
					"candidates(uint256)": "3477ee2e",
					"candidatesCount()": "2d35a8a2",
					"electionCommission()": "aab46b7f",
					"isCandidateRegistered(string)": "565e802a",
					"registerVoter(address)": "38db6dd3",
					"vote(uint256)": "0121b93f",
					"voters(address)": "a3ec138d",
					"winnerName()": "e2ba53f0",
					"winningCandidate()": "d28178d7"
				}
			},
			"storageLayout": {
				"storage": [
					{
						"astId": 17,
						"contract": "contracts/VotingSystem.sol:VotingSystem",
						"label": "electionCommission",
						"offset": 0,
						"slot": "0",
						"type": "t_address"
					},
					{
						"astId": 22,
						"contract": "contracts/VotingSystem.sol:VotingSystem",
						"label": "voters",
						"offset": 0,
						"slot": "1",
						"type": "t_mapping(t_address,t_struct(Voter)8_storage)"
					},
					{
						"astId": 27,
						"contract": "contracts/VotingSystem.sol:VotingSystem",
						"label": "candidates",
						"offset": 0,
						"slot": "2",
						"type": "t_mapping(t_uint256,t_struct(Candidate)15_storage)"
					},
					{
						"astId": 31,
						"contract": "contracts/VotingSystem.sol:VotingSystem",
						"label": "isCandidateRegistered",
						"offset": 0,
						"slot": "3",
						"type": "t_mapping(t_string_memory_ptr,t_bool)"
					},
					{
						"astId": 33,
						"contract": "contracts/VotingSystem.sol:VotingSystem",
						"label": "candidatesCount",
						"offset": 0,
						"slot": "4",
						"type": "t_uint256"
					}
				],
				"types": {
					"t_address": {
						"encoding": "inplace",
						"label": "address",
						"numberOfBytes": "20"
					},
					"t_bool": {
						"encoding": "inplace",
						"label": "bool",
						"numberOfBytes": "1"
					},
					"t_mapping(t_address,t_struct(Voter)8_storage)": {
						"encoding": "mapping",
						"key": "t_address",
						"label": "mapping(address => struct VotingSystem.Voter)",
						"numberOfBytes": "32",
						"value": "t_struct(Voter)8_storage"
					},
					"t_mapping(t_string_memory_ptr,t_bool)": {
						"encoding": "mapping",
						"key": "t_string_memory_ptr",
						"label": "mapping(string => bool)",
						"numberOfBytes": "32",
						"value": "t_bool"
					},
					"t_mapping(t_uint256,t_struct(Candidate)15_storage)": {
						"encoding": "mapping",
						"key": "t_uint256",
						"label": "mapping(uint256 => struct VotingSystem.Candidate)",
						"numberOfBytes": "32",
						"value": "t_struct(Candidate)15_storage"
					},
					"t_string_memory_ptr": {
						"encoding": "bytes",
						"label": "string",
						"numberOfBytes": "32"
					},
					"t_string_storage": {
						"encoding": "bytes",
						"label": "string",
						"numberOfBytes": "32"
					},
					"t_struct(Candidate)15_storage": {
						"encoding": "inplace",
						"label": "struct VotingSystem.Candidate",
						"members": [
							{
								"astId": 10,
								"contract": "contracts/VotingSystem.sol:VotingSystem",
								"label": "id",
								"offset": 0,
								"slot": "0",
								"type": "t_uint256"
							},
							{
								"astId": 12,
								"contract": "contracts/VotingSystem.sol:VotingSystem",
								"label": "name",
								"offset": 0,
								"slot": "1",
								"type": "t_string_storage"
							},
							{
								"astId": 14,
								"contract": "contracts/VotingSystem.sol:VotingSystem",
								"label": "voteCount",
								"offset": 0,
								"slot": "2",
								"type": "t_uint256"
							}
						],
						"numberOfBytes": "96"
					},
					"t_struct(Voter)8_storage": {
						"encoding": "inplace",
						"label": "struct VotingSystem.Voter",
						"members": [
							{
								"astId": 3,
								"contract": "contracts/VotingSystem.sol:VotingSystem",
								"label": "isRegistered",
								"offset": 0,
								"slot": "0",
								"type": "t_bool"
							},
							{
								"astId": 5,
								"contract": "contracts/VotingSystem.sol:VotingSystem",
								"label": "hasVoted",
								"offset": 1,
								"slot": "0",
								"type": "t_bool"
							},
							{
								"astId": 7,
								"contract": "contracts/VotingSystem.sol:VotingSystem",
								"label": "votedCandidateId",
								"offset": 0,
								"slot": "1",
								"type": "t_uint256"
							}
						],
						"numberOfBytes": "64"
					},
					"t_uint256": {
						"encoding": "inplace",
						"label": "uint256",
						"numberOfBytes": "32"
					}
				}
			},
			"userdoc": {
				"kind": "user",
				"methods": {},
				"version": 1
			}
		}
	}
}